{
  "_format": "hh-sol-artifact-1",
  "contractName": "AlvaraMint",
  "sourceName": "contracts/AlvaraMint.sol",
  "abi": [
    {
      "inputs": [
        {
          "internalType": "address",
          "name": "_alvaToken",
          "type": "address"
        }
      ],
      "stateMutability": "nonpayable",
      "type": "constructor"
    },
    {
      "inputs": [
        {
          "internalType": "address",
          "name": "sender",
          "type": "address"
        },
        {
          "internalType": "uint256",
          "name": "tokenId",
          "type": "uint256"
        },
        {
          "internalType": "address",
          "name": "owner",
          "type": "address"
        }
      ],
      "name": "ERC721IncorrectOwner",
      "type": "error"
    },
    {
      "inputs": [
        {
          "internalType": "address",
          "name": "operator",
          "type": "address"
        },
        {
          "internalType": "uint256",
          "name": "tokenId",
          "type": "uint256"
        }
      ],
      "name": "ERC721InsufficientApproval",
      "type": "error"
    },
    {
      "inputs": [
        {
          "internalType": "address",
          "name": "approver",
          "type": "address"
        }
      ],
      "name": "ERC721InvalidApprover",
      "type": "error"
    },
    {
      "inputs": [
        {
          "internalType": "address",
          "name": "operator",
          "type": "address"
        }
      ],
      "name": "ERC721InvalidOperator",
      "type": "error"
    },
    {
      "inputs": [
        {
          "internalType": "address",
          "name": "owner",
          "type": "address"
        }
      ],
      "name": "ERC721InvalidOwner",
      "type": "error"
    },
    {
      "inputs": [
        {
          "internalType": "address",
          "name": "receiver",
          "type": "address"
        }
      ],
      "name": "ERC721InvalidReceiver",
      "type": "error"
    },
    {
      "inputs": [
        {
          "internalType": "address",
          "name": "sender",
          "type": "address"
        }
      ],
      "name": "ERC721InvalidSender",
      "type": "error"
    },
    {
      "inputs": [
        {
          "internalType": "uint256",
          "name": "tokenId",
          "type": "uint256"
        }
      ],
      "name": "ERC721NonexistentToken",
      "type": "error"
    },
    {
      "inputs": [
        {
          "internalType": "address",
          "name": "owner",
          "type": "address"
        }
      ],
      "name": "OwnableInvalidOwner",
      "type": "error"
    },
    {
      "inputs": [
        {
          "internalType": "address",
          "name": "account",
          "type": "address"
        }
      ],
      "name": "OwnableUnauthorizedAccount",
      "type": "error"
    },
    {
      "anonymous": false,
      "inputs": [
        {
          "indexed": true,
          "internalType": "address",
          "name": "owner",
          "type": "address"
        },
        {
          "indexed": true,
          "internalType": "address",
          "name": "approved",
          "type": "address"
        },
        {
          "indexed": true,
          "internalType": "uint256",
          "name": "tokenId",
          "type": "uint256"
        }
      ],
      "name": "Approval",
      "type": "event"
    },
    {
      "anonymous": false,
      "inputs": [
        {
          "indexed": true,
          "internalType": "address",
          "name": "owner",
          "type": "address"
        },
        {
          "indexed": true,
          "internalType": "address",
          "name": "operator",
          "type": "address"
        },
        {
          "indexed": false,
          "internalType": "bool",
          "name": "approved",
          "type": "bool"
        }
      ],
      "name": "ApprovalForAll",
      "type": "event"
    },
    {
      "anonymous": false,
      "inputs": [
        {
          "indexed": false,
          "internalType": "uint256",
          "name": "_fromTokenId",
          "type": "uint256"
        },
        {
          "indexed": false,
          "internalType": "uint256",
          "name": "_toTokenId",
          "type": "uint256"
        }
      ],
      "name": "BatchMetadataUpdate",
      "type": "event"
    },
    {
      "anonymous": false,
      "inputs": [
        {
          "indexed": false,
          "internalType": "uint256",
          "name": "_tokenId",
          "type": "uint256"
        }
      ],
      "name": "MetadataUpdate",
      "type": "event"
    },
    {
      "anonymous": false,
      "inputs": [
        {
          "indexed": true,
          "internalType": "address",
          "name": "previousOwner",
          "type": "address"
        },
        {
          "indexed": true,
          "internalType": "address",
          "name": "newOwner",
          "type": "address"
        }
      ],
      "name": "OwnershipTransferred",
      "type": "event"
    },
    {
      "anonymous": false,
      "inputs": [
        {
          "indexed": true,
          "internalType": "address",
          "name": "from",
          "type": "address"
        },
        {
          "indexed": true,
          "internalType": "address",
          "name": "to",
          "type": "address"
        },
        {
          "indexed": true,
          "internalType": "uint256",
          "name": "tokenId",
          "type": "uint256"
        }
      ],
      "name": "Transfer",
      "type": "event"
    },
    {
      "inputs": [],
      "name": "DISCOUNT_PRICE",
      "outputs": [
        {
          "internalType": "uint256",
          "name": "",
          "type": "uint256"
        }
      ],
      "stateMutability": "view",
      "type": "function"
    },
    {
      "inputs": [],
      "name": "DISCOUNT_THRESHOLD",
      "outputs": [
        {
          "internalType": "uint256",
          "name": "",
          "type": "uint256"
        }
      ],
      "stateMutability": "view",
      "type": "function"
    },
    {
      "inputs": [],
      "name": "MAX_MINTS_PER_WALLET",
      "outputs": [
        {
          "internalType": "uint256",
          "name": "",
          "type": "uint256"
        }
      ],
      "stateMutability": "view",
      "type": "function"
    },
    {
      "inputs": [],
      "name": "STANDARD_PRICE",
      "outputs": [
        {
          "internalType": "uint256",
          "name": "",
          "type": "uint256"
        }
      ],
      "stateMutability": "view",
      "type": "function"
    },
    {
      "inputs": [],
      "name": "alvaToken",
      "outputs": [
        {
          "internalType": "address",
          "name": "",
          "type": "address"
        }
      ],
      "stateMutability": "view",
      "type": "function"
    },
    {
      "inputs": [
        {
          "internalType": "address",
          "name": "to",
          "type": "address"
        },
        {
          "internalType": "uint256",
          "name": "tokenId",
          "type": "uint256"
        }
      ],
      "name": "approve",
      "outputs": [],
      "stateMutability": "nonpayable",
      "type": "function"
    },
    {
      "inputs": [
        {
          "internalType": "address",
          "name": "owner",
          "type": "address"
        }
      ],
      "name": "balanceOf",
      "outputs": [
        {
          "internalType": "uint256",
          "name": "",
          "type": "uint256"
        }
      ],
      "stateMutability": "view",
      "type": "function"
    },
    {
      "inputs": [],
      "name": "baseURI",
      "outputs": [
        {
          "internalType": "string",
          "name": "",
          "type": "string"
        }
      ],
      "stateMutability": "view",
      "type": "function"
    },
    {
      "inputs": [
        {
          "internalType": "uint256",
          "name": "tokenId",
          "type": "uint256"
        }
      ],
      "name": "getApproved",
      "outputs": [
        {
          "internalType": "address",
          "name": "",
          "type": "address"
        }
      ],
      "stateMutability": "view",
      "type": "function"
    },
    {
      "inputs": [
        {
          "internalType": "address",
          "name": "owner",
          "type": "address"
        },
        {
          "internalType": "address",
          "name": "operator",
          "type": "address"
        }
      ],
      "name": "isApprovedForAll",
      "outputs": [
        {
          "internalType": "bool",
          "name": "",
          "type": "bool"
        }
      ],
      "stateMutability": "view",
      "type": "function"
    },
    {
      "inputs": [
        {
          "internalType": "uint256",
          "name": "designId",
          "type": "uint256"
        }
      ],
      "name": "mint",
      "outputs": [],
      "stateMutability": "payable",
      "type": "function"
    },
    {
      "inputs": [],
      "name": "name",
      "outputs": [
        {
          "internalType": "string",
          "name": "",
          "type": "string"
        }
      ],
      "stateMutability": "view",
      "type": "function"
    },
    {
      "inputs": [],
      "name": "nextTokenId",
      "outputs": [
        {
          "internalType": "uint256",
          "name": "",
          "type": "uint256"
        }
      ],
      "stateMutability": "view",
      "type": "function"
    },
    {
      "inputs": [],
      "name": "owner",
      "outputs": [
        {
          "internalType": "address",
          "name": "",
          "type": "address"
        }
      ],
      "stateMutability": "view",
      "type": "function"
    },
    {
      "inputs": [
        {
          "internalType": "uint256",
          "name": "tokenId",
          "type": "uint256"
        }
      ],
      "name": "ownerOf",
      "outputs": [
        {
          "internalType": "address",
          "name": "",
          "type": "address"
        }
      ],
      "stateMutability": "view",
      "type": "function"
    },
    {
      "inputs": [],
      "name": "renounceOwnership",
      "outputs": [],
      "stateMutability": "nonpayable",
      "type": "function"
    },
    {
      "inputs": [
        {
          "internalType": "address",
          "name": "from",
          "type": "address"
        },
        {
          "internalType": "address",
          "name": "to",
          "type": "address"
        },
        {
          "internalType": "uint256",
          "name": "tokenId",
          "type": "uint256"
        }
      ],
      "name": "safeTransferFrom",
      "outputs": [],
      "stateMutability": "nonpayable",
      "type": "function"
    },
    {
      "inputs": [
        {
          "internalType": "address",
          "name": "from",
          "type": "address"
        },
        {
          "internalType": "address",
          "name": "to",
          "type": "address"
        },
        {
          "internalType": "uint256",
          "name": "tokenId",
          "type": "uint256"
        },
        {
          "internalType": "bytes",
          "name": "data",
          "type": "bytes"
        }
      ],
      "name": "safeTransferFrom",
      "outputs": [],
      "stateMutability": "nonpayable",
      "type": "function"
    },
    {
      "inputs": [
        {
          "internalType": "address",
          "name": "_alva",
          "type": "address"
        }
      ],
      "name": "setAlvaToken",
      "outputs": [],
      "stateMutability": "nonpayable",
      "type": "function"
    },
    {
      "inputs": [
        {
          "internalType": "address",
          "name": "operator",
          "type": "address"
        },
        {
          "internalType": "bool",
          "name": "approved",
          "type": "bool"
        }
      ],
      "name": "setApprovalForAll",
      "outputs": [],
      "stateMutability": "nonpayable",
      "type": "function"
    },
    {
      "inputs": [
        {
          "internalType": "string",
          "name": "newBaseURI",
          "type": "string"
        }
      ],
      "name": "setBaseURI",
      "outputs": [],
      "stateMutability": "nonpayable",
      "type": "function"
    },
    {
      "inputs": [
        {
          "internalType": "bytes4",
          "name": "interfaceId",
          "type": "bytes4"
        }
      ],
      "name": "supportsInterface",
      "outputs": [
        {
          "internalType": "bool",
          "name": "",
          "type": "bool"
        }
      ],
      "stateMutability": "view",
      "type": "function"
    },
    {
      "inputs": [],
      "name": "symbol",
      "outputs": [
        {
          "internalType": "string",
          "name": "",
          "type": "string"
        }
      ],
      "stateMutability": "view",
      "type": "function"
    },
    {
      "inputs": [
        {
          "internalType": "uint256",
          "name": "",
          "type": "uint256"
        }
      ],
      "name": "tokenDesign",
      "outputs": [
        {
          "internalType": "uint256",
          "name": "",
          "type": "uint256"
        }
      ],
      "stateMutability": "view",
      "type": "function"
    },
    {
      "inputs": [
        {
          "internalType": "uint256",
          "name": "tokenId",
          "type": "uint256"
        }
      ],
      "name": "tokenURI",
      "outputs": [
        {
          "internalType": "string",
          "name": "",
          "type": "string"
        }
      ],
      "stateMutability": "view",
      "type": "function"
    },
    {
      "inputs": [
        {
          "internalType": "address",
          "name": "from",
          "type": "address"
        },
        {
          "internalType": "address",
          "name": "to",
          "type": "address"
        },
        {
          "internalType": "uint256",
          "name": "tokenId",
          "type": "uint256"
        }
      ],
      "name": "transferFrom",
      "outputs": [],
      "stateMutability": "nonpayable",
      "type": "function"
    },
    {
      "inputs": [
        {
          "internalType": "address",
          "name": "newOwner",
          "type": "address"
        }
      ],
      "name": "transferOwnership",
      "outputs": [],
      "stateMutability": "nonpayable",
      "type": "function"
    },
    {
      "inputs": [
        {
          "internalType": "address",
          "name": "",
          "type": "address"
        }
      ],
      "name": "walletMints",
      "outputs": [
        {
          "internalType": "uint256",
          "name": "",
          "type": "uint256"
        }
      ],
      "stateMutability": "view",
      "type": "function"
    },
    {
      "inputs": [],
      "name": "withdraw",
      "outputs": [],
      "stateMutability": "nonpayable",
      "type": "function"
    }
  ],
  "bytecode": "0x608060405260016009556040518060600160405280602481526020016200367260249139600c908162000033919062000509565b503480156200004157600080fd5b50604051620036963803806200369683398181016040528101906200006791906200065a565b336040518060400160405280600a81526020017f416c76617261204e4654000000000000000000000000000000000000000000008152506040518060400160405280600481526020017f414c5641000000000000000000000000000000000000000000000000000000008152508160009081620000e5919062000509565b508060019081620000f7919062000509565b505050600073ffffffffffffffffffffffffffffffffffffffff168173ffffffffffffffffffffffffffffffffffffffff16036200016f5760006040517f1e4fbdf70000000000000000000000000000000000000000000000000000000081526004016200016691906200069d565b60405180910390fd5b6200018081620001c960201b60201c565b5080600860006101000a81548173ffffffffffffffffffffffffffffffffffffffff021916908373ffffffffffffffffffffffffffffffffffffffff16021790555050620006ba565b6000600760009054906101000a900473ffffffffffffffffffffffffffffffffffffffff16905081600760006101000a81548173ffffffffffffffffffffffffffffffffffffffff021916908373ffffffffffffffffffffffffffffffffffffffff1602179055508173ffffffffffffffffffffffffffffffffffffffff168173ffffffffffffffffffffffffffffffffffffffff167f8be0079c531659141344cd1fd0a4f28419497f9722a3daafe3b4186f6b6457e060405160405180910390a35050565b600081519050919050565b7f4e487b7100000000000000000000000000000000000000000000000000000000600052604160045260246000fd5b7f4e487b7100000000000000000000000000000000000000000000000000000000600052602260045260246000fd5b600060028204905060018216806200031157607f821691505b602082108103620003275762000326620002c9565b5b50919050565b60008190508160005260206000209050919050565b60006020601f8301049050919050565b600082821b905092915050565b600060088302620003917fffffffffffffffffffffffffffffffffffffffffffffffffffffffffffffffff8262000352565b6200039d868362000352565b95508019841693508086168417925050509392505050565b6000819050919050565b6000819050919050565b6000620003ea620003e4620003de84620003b5565b620003bf565b620003b5565b9050919050565b6000819050919050565b6200040683620003c9565b6200041e6200041582620003f1565b8484546200035f565b825550505050565b600090565b6200043562000426565b62000442818484620003fb565b505050565b5b818110156200046a576200045e6000826200042b565b60018101905062000448565b5050565b601f821115620004b95762000483816200032d565b6200048e8462000342565b810160208510156200049e578190505b620004b6620004ad8562000342565b83018262000447565b50505b505050565b600082821c905092915050565b6000620004de60001984600802620004be565b1980831691505092915050565b6000620004f98383620004cb565b9150826002028217905092915050565b62000514826200028f565b67ffffffffffffffff81111562000530576200052f6200029a565b5b6200053c8254620002f8565b620005498282856200046e565b600060209050601f8311600181146200058157600084156200056c578287015190505b620005788582620004eb565b865550620005e8565b601f19841662000591866200032d565b60005b82811015620005bb5784890151825560018201915060208501945060208101905062000594565b86831015620005db5784890151620005d7601f891682620004cb565b8355505b6001600288020188555050505b505050505050565b600080fd5b600073ffffffffffffffffffffffffffffffffffffffff82169050919050565b60006200062282620005f5565b9050919050565b620006348162000615565b81146200064057600080fd5b50565b600081519050620006548162000629565b92915050565b600060208284031215620006735762000672620005f0565b5b6000620006838482850162000643565b91505092915050565b620006978162000615565b82525050565b6000602082019050620006b460008301846200068c565b92915050565b612fa880620006ca6000396000f3fe6080604052600436106101c25760003560e01c806370a08231116100f7578063a22cb46511610095578063e78fba2211610064578063e78fba2214610621578063e985e9c51461064c578063f0293fd314610689578063f2fde38b146106c6576101c2565b8063a22cb46514610569578063b88d4fde14610592578063c87b56dd146105bb578063e5aeb2aa146105f8576101c2565b80638c16d99e116100d15780638c16d99e146104cc5780638da5cb5b146104f757806395d89b4114610522578063a0712d681461054d576101c2565b806370a082311461044d578063715018a61461048a57806375794a3c146104a1576101c2565b8063304495531161016457806355f804b31161013e57806355f804b3146103915780636352211e146103ba57806369f66cb7146103f75780636c0360eb14610422576101c2565b806330449553146103265780633ccfd60b1461035157806342842e0e14610368576101c2565b8063081812fc116101a0578063081812fc1461025a578063095ea7b314610297578063231efbe2146102c057806323b872dd146102fd576101c2565b806301ffc9a7146101c7578063057707a01461020457806306fdde031461022f575b600080fd5b3480156101d357600080fd5b506101ee60048036038101906101e99190612082565b6106ef565b6040516101fb91906120ca565b60405180910390f35b34801561021057600080fd5b50610219610750565b60405161022691906120fe565b60405180910390f35b34801561023b57600080fd5b5061024461075a565b60405161025191906121a9565b60405180910390f35b34801561026657600080fd5b50610281600480360381019061027c91906121f7565b6107ec565b60405161028e9190612265565b60405180910390f35b3480156102a357600080fd5b506102be60048036038101906102b991906122ac565b610808565b005b3480156102cc57600080fd5b506102e760048036038101906102e291906121f7565b61081e565b6040516102f491906120fe565b60405180910390f35b34801561030957600080fd5b50610324600480360381019061031f91906122ec565b610836565b005b34801561033257600080fd5b5061033b610938565b60405161034891906120fe565b60405180910390f35b34801561035d57600080fd5b50610366610945565b005b34801561037457600080fd5b5061038f600480360381019061038a91906122ec565b61099d565b005b34801561039d57600080fd5b506103b860048036038101906103b391906123a4565b6109bd565b005b3480156103c657600080fd5b506103e160048036038101906103dc91906121f7565b6109db565b6040516103ee9190612265565b60405180910390f35b34801561040357600080fd5b5061040c6109ed565b60405161041991906120fe565b60405180910390f35b34801561042e57600080fd5b506104376109f8565b60405161044491906121a9565b60405180910390f35b34801561045957600080fd5b50610474600480360381019061046f91906123f1565b610a8a565b60405161048191906120fe565b60405180910390f35b34801561049657600080fd5b5061049f610b44565b005b3480156104ad57600080fd5b506104b6610b58565b6040516104c391906120fe565b60405180910390f35b3480156104d857600080fd5b506104e1610b5e565b6040516104ee9190612265565b60405180910390f35b34801561050357600080fd5b5061050c610b84565b6040516105199190612265565b60405180910390f35b34801561052e57600080fd5b50610537610bae565b60405161054491906121a9565b60405180910390f35b610567600480360381019061056291906121f7565b610c40565b005b34801561057557600080fd5b50610590600480360381019061058b919061244a565b610eba565b005b34801561059e57600080fd5b506105b960048036038101906105b491906125ba565b610ed0565b005b3480156105c757600080fd5b506105e260048036038101906105dd91906121f7565b610ef5565b6040516105ef91906121a9565b60405180910390f35b34801561060457600080fd5b5061061f600480360381019061061a91906123f1565b610fb9565b005b34801561062d57600080fd5b50610636611005565b60405161064391906120fe565b60405180910390f35b34801561065857600080fd5b50610673600480360381019061066e919061263d565b61100a565b60405161068091906120ca565b60405180910390f35b34801561069557600080fd5b506106b060048036038101906106ab91906123f1565b61109e565b6040516106bd91906120fe565b60405180910390f35b3480156106d257600080fd5b506106ed60048036038101906106e891906123f1565b6110b6565b005b6000634906490660e01b7bffffffffffffffffffffffffffffffffffffffffffffffffffffffff1916827bffffffffffffffffffffffffffffffffffffffffffffffffffffffff1916148061074957506107488261113c565b5b9050919050565b65fa1c6d50300081565b606060008054610769906126ac565b80601f0160208091040260200160405190810160405280929190818152602001828054610795906126ac565b80156107e25780601f106107b7576101008083540402835291602001916107e2565b820191906000526020600020905b8154815290600101906020018083116107c557829003601f168201915b5050505050905090565b60006107f78261121e565b50610801826112a6565b9050919050565b61081a82826108156112e3565b6112eb565b5050565b600b6020528060005260406000206000915090505481565b600073ffffffffffffffffffffffffffffffffffffffff168273ffffffffffffffffffffffffffffffffffffffff16036108a85760006040517f64a0ae9200000000000000000000000000000000000000000000000000000000815260040161089f9190612265565b60405180910390fd5b60006108bc83836108b76112e3565b6112fd565b90508373ffffffffffffffffffffffffffffffffffffffff168173ffffffffffffffffffffffffffffffffffffffff1614610932578382826040517f64283d7b000000000000000000000000000000000000000000000000000000008152600401610929939291906126dd565b60405180910390fd5b50505050565b680821ab0d441498000081565b61094d611517565b610955610b84565b73ffffffffffffffffffffffffffffffffffffffff166108fc479081150290604051600060405180830381858888f1935050505015801561099a573d6000803e3d6000fd5b50565b6109b883838360405180602001604052806000815250610ed0565b505050565b6109c5611517565b8181600c91826109d69291906128cb565b505050565b60006109e68261121e565b9050919050565b6601f438daa0600081565b6060600c8054610a07906126ac565b80601f0160208091040260200160405190810160405280929190818152602001828054610a33906126ac565b8015610a805780601f10610a5557610100808354040283529160200191610a80565b820191906000526020600020905b815481529060010190602001808311610a6357829003601f168201915b5050505050905090565b60008073ffffffffffffffffffffffffffffffffffffffff168273ffffffffffffffffffffffffffffffffffffffff1603610afd5760006040517f89c62b64000000000000000000000000000000000000000000000000000000008152600401610af49190612265565b60405180910390fd5b600360008373ffffffffffffffffffffffffffffffffffffffff1673ffffffffffffffffffffffffffffffffffffffff168152602001908152602001600020549050919050565b610b4c611517565b610b56600061159e565b565b60095481565b600860009054906101000a900473ffffffffffffffffffffffffffffffffffffffff1681565b6000600760009054906101000a900473ffffffffffffffffffffffffffffffffffffffff16905090565b606060018054610bbd906126ac565b80601f0160208091040260200160405190810160405280929190818152602001828054610be9906126ac565b8015610c365780601f10610c0b57610100808354040283529160200191610c36565b820191906000526020600020905b815481529060010190602001808311610c1957829003601f168201915b5050505050905090565b6003600a60003373ffffffffffffffffffffffffffffffffffffffff1673ffffffffffffffffffffffffffffffffffffffff1681526020019081526020016000205410610cc2576040517f08c379a0000000000000000000000000000000000000000000000000000000008152600401610cb9906129e7565b60405180910390fd5b60018110158015610cd45750600a8111155b610d13576040517f08c379a0000000000000000000000000000000000000000000000000000000008152600401610d0a90612a53565b60405180910390fd5b6000680821ab0d4414980000600860009054906101000a900473ffffffffffffffffffffffffffffffffffffffff1673ffffffffffffffffffffffffffffffffffffffff166370a08231336040518263ffffffff1660e01b8152600401610d7a9190612265565b602060405180830381865afa158015610d97573d6000803e3d6000fd5b505050506040513d601f19601f82011682018060405250810190610dbb9190612a88565b10159050600081610dd3576601f438daa06000610ddb565b65fa1c6d5030005b905080341015610e20576040517f08c379a0000000000000000000000000000000000000000000000000000000008152600401610e1790612b01565b60405180910390fd5b600060096000815480929190610e3590612b50565b919050559050610e453382611664565b83600b6000838152602001908152602001600020819055506001600a60003373ffffffffffffffffffffffffffffffffffffffff1673ffffffffffffffffffffffffffffffffffffffff1681526020019081526020016000206000828254610ead9190612b98565b9250508190555050505050565b610ecc610ec56112e3565b8383611682565b5050565b610edb848484610836565b610eef610ee66112e3565b858585856117f1565b50505050565b6060600073ffffffffffffffffffffffffffffffffffffffff16610f18836119a2565b73ffffffffffffffffffffffffffffffffffffffff1603610f6e576040517f08c379a0000000000000000000000000000000000000000000000000000000008152600401610f6590612c18565b60405180910390fd5b6000600b6000848152602001908152602001600020549050600c610f91826119df565b604051602001610fa2929190612d43565b604051602081830303815290604052915050919050565b610fc1611517565b80600860006101000a81548173ffffffffffffffffffffffffffffffffffffffff021916908373ffffffffffffffffffffffffffffffffffffffff16021790555050565b600381565b6000600560008473ffffffffffffffffffffffffffffffffffffffff1673ffffffffffffffffffffffffffffffffffffffff16815260200190815260200160002060008373ffffffffffffffffffffffffffffffffffffffff1673ffffffffffffffffffffffffffffffffffffffff16815260200190815260200160002060009054906101000a900460ff16905092915050565b600a6020528060005260406000206000915090505481565b6110be611517565b600073ffffffffffffffffffffffffffffffffffffffff168173ffffffffffffffffffffffffffffffffffffffff16036111305760006040517f1e4fbdf70000000000000000000000000000000000000000000000000000000081526004016111279190612265565b60405180910390fd5b6111398161159e565b50565b60007f80ac58cd000000000000000000000000000000000000000000000000000000007bffffffffffffffffffffffffffffffffffffffffffffffffffffffff1916827bffffffffffffffffffffffffffffffffffffffffffffffffffffffff1916148061120757507f5b5e139f000000000000000000000000000000000000000000000000000000007bffffffffffffffffffffffffffffffffffffffffffffffffffffffff1916827bffffffffffffffffffffffffffffffffffffffffffffffffffffffff1916145b80611217575061121682611b45565b5b9050919050565b60008061122a836119a2565b9050600073ffffffffffffffffffffffffffffffffffffffff168173ffffffffffffffffffffffffffffffffffffffff160361129d57826040517f7e27328900000000000000000000000000000000000000000000000000000000815260040161129491906120fe565b60405180910390fd5b80915050919050565b60006004600083815260200190815260200160002060009054906101000a900473ffffffffffffffffffffffffffffffffffffffff169050919050565b600033905090565b6112f88383836001611baf565b505050565b600080611309846119a2565b9050600073ffffffffffffffffffffffffffffffffffffffff168373ffffffffffffffffffffffffffffffffffffffff161461134b5761134a818486611d74565b5b600073ffffffffffffffffffffffffffffffffffffffff168173ffffffffffffffffffffffffffffffffffffffff16146113dc5761138d600085600080611baf565b6001600360008373ffffffffffffffffffffffffffffffffffffffff1673ffffffffffffffffffffffffffffffffffffffff168152602001908152602001600020600082825403925050819055505b600073ffffffffffffffffffffffffffffffffffffffff168573ffffffffffffffffffffffffffffffffffffffff161461145f576001600360008773ffffffffffffffffffffffffffffffffffffffff1673ffffffffffffffffffffffffffffffffffffffff168152602001908152602001600020600082825401925050819055505b846002600086815260200190815260200160002060006101000a81548173ffffffffffffffffffffffffffffffffffffffff021916908373ffffffffffffffffffffffffffffffffffffffff160217905550838573ffffffffffffffffffffffffffffffffffffffff168273ffffffffffffffffffffffffffffffffffffffff167fddf252ad1be2c89b69c2b068fc378daa952ba7f163c4a11628f55a4df523b3ef60405160405180910390a4809150509392505050565b61151f6112e3565b73ffffffffffffffffffffffffffffffffffffffff1661153d610b84565b73ffffffffffffffffffffffffffffffffffffffff161461159c576115606112e3565b6040517f118cdaa70000000000000000000000000000000000000000000000000000000081526004016115939190612265565b60405180910390fd5b565b6000600760009054906101000a900473ffffffffffffffffffffffffffffffffffffffff16905081600760006101000a81548173ffffffffffffffffffffffffffffffffffffffff021916908373ffffffffffffffffffffffffffffffffffffffff1602179055508173ffffffffffffffffffffffffffffffffffffffff168173ffffffffffffffffffffffffffffffffffffffff167f8be0079c531659141344cd1fd0a4f28419497f9722a3daafe3b4186f6b6457e060405160405180910390a35050565b61167e828260405180602001604052806000815250611e38565b5050565b600073ffffffffffffffffffffffffffffffffffffffff168273ffffffffffffffffffffffffffffffffffffffff16036116f357816040517f5b08ba180000000000000000000000000000000000000000000000000000000081526004016116ea9190612265565b60405180910390fd5b80600560008573ffffffffffffffffffffffffffffffffffffffff1673ffffffffffffffffffffffffffffffffffffffff16815260200190815260200160002060008473ffffffffffffffffffffffffffffffffffffffff1673ffffffffffffffffffffffffffffffffffffffff16815260200190815260200160002060006101000a81548160ff0219169083151502179055508173ffffffffffffffffffffffffffffffffffffffff168373ffffffffffffffffffffffffffffffffffffffff167f17307eab39ab6107e8899845ad3d59bd9653f200f220920489ca2b5937696c31836040516117e491906120ca565b60405180910390a3505050565b60008373ffffffffffffffffffffffffffffffffffffffff163b111561199b578273ffffffffffffffffffffffffffffffffffffffff1663150b7a02868685856040518563ffffffff1660e01b81526004016118509493929190612dc7565b6020604051808303816000875af192505050801561188c57506040513d601f19601f820116820180604052508101906118899190612e28565b60015b611910573d80600081146118bc576040519150601f19603f3d011682016040523d82523d6000602084013e6118c1565b606091505b50600081510361190857836040517f64a0ae920000000000000000000000000000000000000000000000000000000081526004016118ff9190612265565b60405180910390fd5b805160208201fd5b63150b7a0260e01b7bffffffffffffffffffffffffffffffffffffffffffffffffffffffff1916817bffffffffffffffffffffffffffffffffffffffffffffffffffffffff19161461199957836040517f64a0ae920000000000000000000000000000000000000000000000000000000081526004016119909190612265565b60405180910390fd5b505b5050505050565b60006002600083815260200190815260200160002060009054906101000a900473ffffffffffffffffffffffffffffffffffffffff169050919050565b606060008203611a26576040518060400160405280600181526020017f30000000000000000000000000000000000000000000000000000000000000008152509050611b40565b600082905060005b60008214611a58578080611a4190612b50565b915050600a82611a519190612e84565b9150611a2e565b60008167ffffffffffffffff811115611a7457611a7361248f565b5b6040519080825280601f01601f191660200182016040528015611aa65781602001600182028036833780820191505090505b50905060008290505b60008614611b3857600181611ac49190612eb5565b9050600a86611ad39190612ee9565b6030611adf9190612b98565b60f81b828281518110611af557611af4612f1a565b5b60200101907effffffffffffffffffffffffffffffffffffffffffffffffffffffffffffff1916908160001a905350600a86611b319190612e84565b9550611aaf565b819450505050505b919050565b60007f01ffc9a7000000000000000000000000000000000000000000000000000000007bffffffffffffffffffffffffffffffffffffffffffffffffffffffff1916827bffffffffffffffffffffffffffffffffffffffffffffffffffffffff1916149050919050565b8080611be85750600073ffffffffffffffffffffffffffffffffffffffff168273ffffffffffffffffffffffffffffffffffffffff1614155b15611d1c576000611bf88461121e565b9050600073ffffffffffffffffffffffffffffffffffffffff168373ffffffffffffffffffffffffffffffffffffffff1614158015611c6357508273ffffffffffffffffffffffffffffffffffffffff168173ffffffffffffffffffffffffffffffffffffffff1614155b8015611c765750611c74818461100a565b155b15611cb857826040517fa9fbf51f000000000000000000000000000000000000000000000000000000008152600401611caf9190612265565b60405180910390fd5b8115611d1a57838573ffffffffffffffffffffffffffffffffffffffff168273ffffffffffffffffffffffffffffffffffffffff167f8c5be1e5ebec7d5bd14f71427d1e84f3dd0314c0f7b2291e5b200ac8c7c3b92560405160405180910390a45b505b836004600085815260200190815260200160002060006101000a81548173ffffffffffffffffffffffffffffffffffffffff021916908373ffffffffffffffffffffffffffffffffffffffff16021790555050505050565b611d7f838383611e5c565b611e3357600073ffffffffffffffffffffffffffffffffffffffff168373ffffffffffffffffffffffffffffffffffffffff1603611df457806040517f7e273289000000000000000000000000000000000000000000000000000000008152600401611deb91906120fe565b60405180910390fd5b81816040517f177e802f000000000000000000000000000000000000000000000000000000008152600401611e2a929190612f49565b60405180910390fd5b505050565b611e428383611f1d565b611e57611e4d6112e3565b60008585856117f1565b505050565b60008073ffffffffffffffffffffffffffffffffffffffff168373ffffffffffffffffffffffffffffffffffffffff1614158015611f1457508273ffffffffffffffffffffffffffffffffffffffff168473ffffffffffffffffffffffffffffffffffffffff161480611ed55750611ed4848461100a565b5b80611f1357508273ffffffffffffffffffffffffffffffffffffffff16611efb836112a6565b73ffffffffffffffffffffffffffffffffffffffff16145b5b90509392505050565b600073ffffffffffffffffffffffffffffffffffffffff168273ffffffffffffffffffffffffffffffffffffffff1603611f8f5760006040517f64a0ae92000000000000000000000000000000000000000000000000000000008152600401611f869190612265565b60405180910390fd5b6000611f9d838360006112fd565b9050600073ffffffffffffffffffffffffffffffffffffffff168173ffffffffffffffffffffffffffffffffffffffff16146120115760006040517f73c6ac6e0000000000000000000000000000000000000000000000000000000081526004016120089190612265565b60405180910390fd5b505050565b6000604051905090565b600080fd5b600080fd5b60007fffffffff0000000000000000000000000000000000000000000000000000000082169050919050565b61205f8161202a565b811461206a57600080fd5b50565b60008135905061207c81612056565b92915050565b60006020828403121561209857612097612020565b5b60006120a68482850161206d565b91505092915050565b60008115159050919050565b6120c4816120af565b82525050565b60006020820190506120df60008301846120bb565b92915050565b6000819050919050565b6120f8816120e5565b82525050565b600060208201905061211360008301846120ef565b92915050565b600081519050919050565b600082825260208201905092915050565b60005b83811015612153578082015181840152602081019050612138565b60008484015250505050565b6000601f19601f8301169050919050565b600061217b82612119565b6121858185612124565b9350612195818560208601612135565b61219e8161215f565b840191505092915050565b600060208201905081810360008301526121c38184612170565b905092915050565b6121d4816120e5565b81146121df57600080fd5b50565b6000813590506121f1816121cb565b92915050565b60006020828403121561220d5761220c612020565b5b600061221b848285016121e2565b91505092915050565b600073ffffffffffffffffffffffffffffffffffffffff82169050919050565b600061224f82612224565b9050919050565b61225f81612244565b82525050565b600060208201905061227a6000830184612256565b92915050565b61228981612244565b811461229457600080fd5b50565b6000813590506122a681612280565b92915050565b600080604083850312156122c3576122c2612020565b5b60006122d185828601612297565b92505060206122e2858286016121e2565b9150509250929050565b60008060006060848603121561230557612304612020565b5b600061231386828701612297565b935050602061232486828701612297565b9250506040612335868287016121e2565b9150509250925092565b600080fd5b600080fd5b600080fd5b60008083601f8401126123645761236361233f565b5b8235905067ffffffffffffffff81111561238157612380612344565b5b60208301915083600182028301111561239d5761239c612349565b5b9250929050565b600080602083850312156123bb576123ba612020565b5b600083013567ffffffffffffffff8111156123d9576123d8612025565b5b6123e58582860161234e565b92509250509250929050565b60006020828403121561240757612406612020565b5b600061241584828501612297565b91505092915050565b612427816120af565b811461243257600080fd5b50565b6000813590506124448161241e565b92915050565b6000806040838503121561246157612460612020565b5b600061246f85828601612297565b925050602061248085828601612435565b9150509250929050565b600080fd5b7f4e487b7100000000000000000000000000000000000000000000000000000000600052604160045260246000fd5b6124c78261215f565b810181811067ffffffffffffffff821117156124e6576124e561248f565b5b80604052505050565b60006124f9612016565b905061250582826124be565b919050565b600067ffffffffffffffff8211156125255761252461248f565b5b61252e8261215f565b9050602081019050919050565b82818337600083830152505050565b600061255d6125588461250a565b6124ef565b9050828152602081018484840111156125795761257861248a565b5b61258484828561253b565b509392505050565b600082601f8301126125a1576125a061233f565b5b81356125b184826020860161254a565b91505092915050565b600080600080608085870312156125d4576125d3612020565b5b60006125e287828801612297565b94505060206125f387828801612297565b9350506040612604878288016121e2565b925050606085013567ffffffffffffffff81111561262557612624612025565b5b6126318782880161258c565b91505092959194509250565b6000806040838503121561265457612653612020565b5b600061266285828601612297565b925050602061267385828601612297565b9150509250929050565b7f4e487b7100000000000000000000000000000000000000000000000000000000600052602260045260246000fd5b600060028204905060018216806126c457607f821691505b6020821081036126d7576126d661267d565b5b50919050565b60006060820190506126f26000830186612256565b6126ff60208301856120ef565b61270c6040830184612256565b949350505050565b600082905092915050565b60008190508160005260206000209050919050565b60006020601f8301049050919050565b600082821b905092915050565b6000600883026127817fffffffffffffffffffffffffffffffffffffffffffffffffffffffffffffffff82612744565b61278b8683612744565b95508019841693508086168417925050509392505050565b6000819050919050565b60006127c86127c36127be846120e5565b6127a3565b6120e5565b9050919050565b6000819050919050565b6127e2836127ad565b6127f66127ee826127cf565b848454612751565b825550505050565b600090565b61280b6127fe565b6128168184846127d9565b505050565b5b8181101561283a5761282f600082612803565b60018101905061281c565b5050565b601f82111561287f576128508161271f565b61285984612734565b81016020851015612868578190505b61287c61287485612734565b83018261281b565b50505b505050565b600082821c905092915050565b60006128a260001984600802612884565b1980831691505092915050565b60006128bb8383612891565b9150826002028217905092915050565b6128d58383612714565b67ffffffffffffffff8111156128ee576128ed61248f565b5b6128f882546126ac565b61290382828561283e565b6000601f8311600181146129325760008415612920578287013590505b61292a85826128af565b865550612992565b601f1984166129408661271f565b60005b8281101561296857848901358255600182019150602085019450602081019050612943565b868310156129855784890135612981601f891682612891565b8355505b6001600288020188555050505b50505050505050565b7f4d696e74206c696d697420726561636865640000000000000000000000000000600082015250565b60006129d1601283612124565b91506129dc8261299b565b602082019050919050565b60006020820190508181036000830152612a00816129c4565b9050919050565b7f496e76616c69642064657369676e000000000000000000000000000000000000600082015250565b6000612a3d600e83612124565b9150612a4882612a07565b602082019050919050565b60006020820190508181036000830152612a6c81612a30565b9050919050565b600081519050612a82816121cb565b92915050565b600060208284031215612a9e57612a9d612020565b5b6000612aac84828501612a73565b91505092915050565b7f496e73756666696369656e74204554482073656e740000000000000000000000600082015250565b6000612aeb601583612124565b9150612af682612ab5565b602082019050919050565b60006020820190508181036000830152612b1a81612ade565b9050919050565b7f4e487b7100000000000000000000000000000000000000000000000000000000600052601160045260246000fd5b6000612b5b826120e5565b91507fffffffffffffffffffffffffffffffffffffffffffffffffffffffffffffffff8203612b8d57612b8c612b21565b5b600182019050919050565b6000612ba3826120e5565b9150612bae836120e5565b9250828201905080821115612bc657612bc5612b21565b5b92915050565b7f4e6f6e6578697374656e7420746f6b656e000000000000000000000000000000600082015250565b6000612c02601183612124565b9150612c0d82612bcc565b602082019050919050565b60006020820190508181036000830152612c3181612bf5565b9050919050565b600081905092915050565b60008154612c50816126ac565b612c5a8186612c38565b94506001821660008114612c755760018114612c8a57612cbd565b60ff1983168652811515820286019350612cbd565b612c938561271f565b60005b83811015612cb557815481890152600182019150602081019050612c96565b838801955050505b50505092915050565b6000612cd182612119565b612cdb8185612c38565b9350612ceb818560208601612135565b80840191505092915050565b7f2e6a736f6e000000000000000000000000000000000000000000000000000000600082015250565b6000612d2d600583612c38565b9150612d3882612cf7565b600582019050919050565b6000612d4f8285612c43565b9150612d5b8284612cc6565b9150612d6682612d20565b91508190509392505050565b600081519050919050565b600082825260208201905092915050565b6000612d9982612d72565b612da38185612d7d565b9350612db3818560208601612135565b612dbc8161215f565b840191505092915050565b6000608082019050612ddc6000830187612256565b612de96020830186612256565b612df660408301856120ef565b8181036060830152612e088184612d8e565b905095945050505050565b600081519050612e2281612056565b92915050565b600060208284031215612e3e57612e3d612020565b5b6000612e4c84828501612e13565b91505092915050565b7f4e487b7100000000000000000000000000000000000000000000000000000000600052601260045260246000fd5b6000612e8f826120e5565b9150612e9a836120e5565b925082612eaa57612ea9612e55565b5b828204905092915050565b6000612ec0826120e5565b9150612ecb836120e5565b9250828203905081811115612ee357612ee2612b21565b5b92915050565b6000612ef4826120e5565b9150612eff836120e5565b925082612f0f57612f0e612e55565b5b828206905092915050565b7f4e487b7100000000000000000000000000000000000000000000000000000000600052603260045260246000fd5b6000604082019050612f5e6000830185612256565b612f6b60208301846120ef565b939250505056fea264697066735822122079706cdff223c50388d96b9981859c87a70c1f36c411c4f0fc480a220cd629e764736f6c6343000814003368747470733a2f2f6170692e616c766172612d6e66742e636f6d2f6d657461646174612f",
  "linkReferences": {},
  "deployedLinkReferences": {}
}