{
  "_format": "hh-sol-artifact-1",
  "contractName": "AlvaraMintIPFS",
  "sourceName": "src/AlvaraMintIPFS.sol",
  "abi": [
    {
      "inputs": [
        {
          "internalType": "address",
          "name": "_alvaToken",
          "type": "address"
        },
        {
          "internalType": "address",
          "name": "_veALVAToken",
          "type": "address"
        },
        {
          "internalType": "address",
          "name": "_wethToken",
          "type": "address"
        },
        {
          "internalType": "address",
          "name": "_swapRouter",
          "type": "address"
        }
      ],
      "stateMutability": "nonpayable",
      "type": "constructor"
    },
    {
      "inputs": [
        {
          "internalType": "address",
          "name": "sender",
          "type": "address"
        },
        {
          "internalType": "uint256",
          "name": "tokenId",
          "type": "uint256"
        },
        {
          "internalType": "address",
          "name": "owner",
          "type": "address"
        }
      ],
      "name": "ERC721IncorrectOwner",
      "type": "error"
    },
    {
      "inputs": [
        {
          "internalType": "address",
          "name": "operator",
          "type": "address"
        },
        {
          "internalType": "uint256",
          "name": "tokenId",
          "type": "uint256"
        }
      ],
      "name": "ERC721InsufficientApproval",
      "type": "error"
    },
    {
      "inputs": [
        {
          "internalType": "address",
          "name": "approver",
          "type": "address"
        }
      ],
      "name": "ERC721InvalidApprover",
      "type": "error"
    },
    {
      "inputs": [
        {
          "internalType": "address",
          "name": "operator",
          "type": "address"
        }
      ],
      "name": "ERC721InvalidOperator",
      "type": "error"
    },
    {
      "inputs": [
        {
          "internalType": "address",
          "name": "owner",
          "type": "address"
        }
      ],
      "name": "ERC721InvalidOwner",
      "type": "error"
    },
    {
      "inputs": [
        {
          "internalType": "address",
          "name": "receiver",
          "type": "address"
        }
      ],
      "name": "ERC721InvalidReceiver",
      "type": "error"
    },
    {
      "inputs": [
        {
          "internalType": "address",
          "name": "sender",
          "type": "address"
        }
      ],
      "name": "ERC721InvalidSender",
      "type": "error"
    },
    {
      "inputs": [
        {
          "internalType": "uint256",
          "name": "tokenId",
          "type": "uint256"
        }
      ],
      "name": "ERC721NonexistentToken",
      "type": "error"
    },
    {
      "inputs": [
        {
          "internalType": "address",
          "name": "owner",
          "type": "address"
        }
      ],
      "name": "OwnableInvalidOwner",
      "type": "error"
    },
    {
      "inputs": [
        {
          "internalType": "address",
          "name": "account",
          "type": "address"
        }
      ],
      "name": "OwnableUnauthorizedAccount",
      "type": "error"
    },
    {
      "inputs": [],
      "name": "ReentrancyGuardReentrantCall",
      "type": "error"
    },
    {
      "anonymous": false,
      "inputs": [
        {
          "indexed": true,
          "internalType": "address",
          "name": "owner",
          "type": "address"
        },
        {
          "indexed": true,
          "internalType": "address",
          "name": "approved",
          "type": "address"
        },
        {
          "indexed": true,
          "internalType": "uint256",
          "name": "tokenId",
          "type": "uint256"
        }
      ],
      "name": "Approval",
      "type": "event"
    },
    {
      "anonymous": false,
      "inputs": [
        {
          "indexed": true,
          "internalType": "address",
          "name": "owner",
          "type": "address"
        },
        {
          "indexed": true,
          "internalType": "address",
          "name": "operator",
          "type": "address"
        },
        {
          "indexed": false,
          "internalType": "bool",
          "name": "approved",
          "type": "bool"
        }
      ],
      "name": "ApprovalForAll",
      "type": "event"
    },
    {
      "anonymous": false,
      "inputs": [
        {
          "indexed": false,
          "internalType": "uint256",
          "name": "_fromTokenId",
          "type": "uint256"
        },
        {
          "indexed": false,
          "internalType": "uint256",
          "name": "_toTokenId",
          "type": "uint256"
        }
      ],
      "name": "BatchMetadataUpdate",
      "type": "event"
    },
    {
      "anonymous": false,
      "inputs": [
        {
          "indexed": false,
          "internalType": "uint256",
          "name": "_tokenId",
          "type": "uint256"
        }
      ],
      "name": "MetadataUpdate",
      "type": "event"
    },
    {
      "anonymous": false,
      "inputs": [
        {
          "indexed": true,
          "internalType": "address",
          "name": "previousOwner",
          "type": "address"
        },
        {
          "indexed": true,
          "internalType": "address",
          "name": "newOwner",
          "type": "address"
        }
      ],
      "name": "OwnershipTransferred",
      "type": "event"
    },
    {
      "anonymous": false,
      "inputs": [
        {
          "indexed": true,
          "internalType": "address",
          "name": "user",
          "type": "address"
        },
        {
          "indexed": false,
          "internalType": "uint256",
          "name": "ethIn",
          "type": "uint256"
        },
        {
          "indexed": false,
          "internalType": "uint256",
          "name": "alvaOut",
          "type": "uint256"
        }
      ],
      "name": "SwapExecuted",
      "type": "event"
    },
    {
      "anonymous": false,
      "inputs": [
        {
          "indexed": true,
          "internalType": "address",
          "name": "from",
          "type": "address"
        },
        {
          "indexed": true,
          "internalType": "address",
          "name": "to",
          "type": "address"
        },
        {
          "indexed": true,
          "internalType": "uint256",
          "name": "tokenId",
          "type": "uint256"
        }
      ],
      "name": "Transfer",
      "type": "event"
    },
    {
      "inputs": [],
      "name": "POOL_FEE",
      "outputs": [
        {
          "internalType": "uint24",
          "name": "",
          "type": "uint24"
        }
      ],
      "stateMutability": "view",
      "type": "function"
    },
    {
      "inputs": [],
      "name": "alvaToken",
      "outputs": [
        {
          "internalType": "address",
          "name": "",
          "type": "address"
        }
      ],
      "stateMutability": "view",
      "type": "function"
    },
    {
      "inputs": [
        {
          "internalType": "address",
          "name": "to",
          "type": "address"
        },
        {
          "internalType": "uint256",
          "name": "tokenId",
          "type": "uint256"
        }
      ],
      "name": "approve",
      "outputs": [],
      "stateMutability": "nonpayable",
      "type": "function"
    },
    {
      "inputs": [
        {
          "internalType": "address",
          "name": "owner",
          "type": "address"
        }
      ],
      "name": "balanceOf",
      "outputs": [
        {
          "internalType": "uint256",
          "name": "",
          "type": "uint256"
        }
      ],
      "stateMutability": "view",
      "type": "function"
    },
    {
      "inputs": [
        {
          "internalType": "uint256",
          "name": "tokenId",
          "type": "uint256"
        }
      ],
      "name": "getApproved",
      "outputs": [
        {
          "internalType": "address",
          "name": "",
          "type": "address"
        }
      ],
      "stateMutability": "view",
      "type": "function"
    },
    {
      "inputs": [],
      "name": "getDiscountPrice",
      "outputs": [
        {
          "internalType": "uint256",
          "name": "",
          "type": "uint256"
        }
      ],
      "stateMutability": "view",
      "type": "function"
    },
    {
      "inputs": [
        {
          "internalType": "address",
          "name": "user",
          "type": "address"
        }
      ],
      "name": "hasVeALVA",
      "outputs": [
        {
          "internalType": "bool",
          "name": "",
          "type": "bool"
        }
      ],
      "stateMutability": "view",
      "type": "function"
    },
    {
      "inputs": [
        {
          "internalType": "address",
          "name": "owner",
          "type": "address"
        },
        {
          "internalType": "address",
          "name": "operator",
          "type": "address"
        }
      ],
      "name": "isApprovedForAll",
      "outputs": [
        {
          "internalType": "bool",
          "name": "",
          "type": "bool"
        }
      ],
      "stateMutability": "view",
      "type": "function"
    },
    {
      "inputs": [
        {
          "internalType": "string",
          "name": "designId",
          "type": "string"
        }
      ],
      "name": "mint",
      "outputs": [],
      "stateMutability": "payable",
      "type": "function"
    },
    {
      "inputs": [],
      "name": "name",
      "outputs": [
        {
          "internalType": "string",
          "name": "",
          "type": "string"
        }
      ],
      "stateMutability": "view",
      "type": "function"
    },
    {
      "inputs": [],
      "name": "nextTokenId",
      "outputs": [
        {
          "internalType": "uint256",
          "name": "",
          "type": "uint256"
        }
      ],
      "stateMutability": "view",
      "type": "function"
    },
    {
      "inputs": [],
      "name": "owner",
      "outputs": [
        {
          "internalType": "address",
          "name": "",
          "type": "address"
        }
      ],
      "stateMutability": "view",
      "type": "function"
    },
    {
      "inputs": [
        {
          "internalType": "uint256",
          "name": "tokenId",
          "type": "uint256"
        }
      ],
      "name": "ownerOf",
      "outputs": [
        {
          "internalType": "address",
          "name": "",
          "type": "address"
        }
      ],
      "stateMutability": "view",
      "type": "function"
    },
    {
      "inputs": [],
      "name": "renounceOwnership",
      "outputs": [],
      "stateMutability": "nonpayable",
      "type": "function"
    },
    {
      "inputs": [
        {
          "internalType": "address",
          "name": "from",
          "type": "address"
        },
        {
          "internalType": "address",
          "name": "to",
          "type": "address"
        },
        {
          "internalType": "uint256",
          "name": "tokenId",
          "type": "uint256"
        }
      ],
      "name": "safeTransferFrom",
      "outputs": [],
      "stateMutability": "nonpayable",
      "type": "function"
    },
    {
      "inputs": [
        {
          "internalType": "address",
          "name": "from",
          "type": "address"
        },
        {
          "internalType": "address",
          "name": "to",
          "type": "address"
        },
        {
          "internalType": "uint256",
          "name": "tokenId",
          "type": "uint256"
        },
        {
          "internalType": "bytes",
          "name": "data",
          "type": "bytes"
        }
      ],
      "name": "safeTransferFrom",
      "outputs": [],
      "stateMutability": "nonpayable",
      "type": "function"
    },
    {
      "inputs": [
        {
          "internalType": "address",
          "name": "operator",
          "type": "address"
        },
        {
          "internalType": "bool",
          "name": "approved",
          "type": "bool"
        }
      ],
      "name": "setApprovalForAll",
      "outputs": [],
      "stateMutability": "nonpayable",
      "type": "function"
    },
    {
      "inputs": [
        {
          "internalType": "uint256",
          "name": "newPrice",
          "type": "uint256"
        }
      ],
      "name": "setStandardPrice",
      "outputs": [],
      "stateMutability": "nonpayable",
      "type": "function"
    },
    {
      "inputs": [],
      "name": "standardPrice",
      "outputs": [
        {
          "internalType": "uint256",
          "name": "",
          "type": "uint256"
        }
      ],
      "stateMutability": "view",
      "type": "function"
    },
    {
      "inputs": [
        {
          "internalType": "bytes4",
          "name": "interfaceId",
          "type": "bytes4"
        }
      ],
      "name": "supportsInterface",
      "outputs": [
        {
          "internalType": "bool",
          "name": "",
          "type": "bool"
        }
      ],
      "stateMutability": "view",
      "type": "function"
    },
    {
      "inputs": [],
      "name": "swapRouter",
      "outputs": [
        {
          "internalType": "contract ISwapRouter",
          "name": "",
          "type": "address"
        }
      ],
      "stateMutability": "view",
      "type": "function"
    },
    {
      "inputs": [],
      "name": "symbol",
      "outputs": [
        {
          "internalType": "string",
          "name": "",
          "type": "string"
        }
      ],
      "stateMutability": "view",
      "type": "function"
    },
    {
      "inputs": [
        {
          "internalType": "uint256",
          "name": "",
          "type": "uint256"
        }
      ],
      "name": "tokenDesign",
      "outputs": [
        {
          "internalType": "string",
          "name": "",
          "type": "string"
        }
      ],
      "stateMutability": "view",
      "type": "function"
    },
    {
      "inputs": [
        {
          "internalType": "uint256",
          "name": "tokenId",
          "type": "uint256"
        }
      ],
      "name": "tokenURI",
      "outputs": [
        {
          "internalType": "string",
          "name": "",
          "type": "string"
        }
      ],
      "stateMutability": "view",
      "type": "function"
    },
    {
      "inputs": [
        {
          "internalType": "address",
          "name": "from",
          "type": "address"
        },
        {
          "internalType": "address",
          "name": "to",
          "type": "address"
        },
        {
          "internalType": "uint256",
          "name": "tokenId",
          "type": "uint256"
        }
      ],
      "name": "transferFrom",
      "outputs": [],
      "stateMutability": "nonpayable",
      "type": "function"
    },
    {
      "inputs": [
        {
          "internalType": "address",
          "name": "newOwner",
          "type": "address"
        }
      ],
      "name": "transferOwnership",
      "outputs": [],
      "stateMutability": "nonpayable",
      "type": "function"
    },
    {
      "inputs": [],
      "name": "veALVAToken",
      "outputs": [
        {
          "internalType": "address",
          "name": "",
          "type": "address"
        }
      ],
      "stateMutability": "view",
      "type": "function"
    },
    {
      "inputs": [
        {
          "internalType": "address",
          "name": "",
          "type": "address"
        }
      ],
      "name": "walletMints",
      "outputs": [
        {
          "internalType": "uint256",
          "name": "",
          "type": "uint256"
        }
      ],
      "stateMutability": "view",
      "type": "function"
    },
    {
      "inputs": [],
      "name": "wethToken",
      "outputs": [
        {
          "internalType": "address",
          "name": "",
          "type": "address"
        }
      ],
      "stateMutability": "view",
      "type": "function"
    },
    {
      "stateMutability": "payable",
      "type": "receive"
    }
  ],
  "bytecode": "0x61010060405266038d7ea4c680006009556001600a553480156200002257600080fd5b5060405162001f3338038062001f3383398101604081905262000045916200017b565b336040518060400160405280600a815260200169105b1d985c984813919560b21b81525060405180604001604052806004815260200163414c564160e01b81525081600090816200009791906200027d565b506001620000a682826200027d565b5050506001600160a01b038116620000d857604051631e4fbdf760e01b81526000600482015260240160405180910390fd5b620000e3816200010c565b5060016008556001600160a01b0393841660805291831660a052821660c0521660e05262000349565b600780546001600160a01b038381166001600160a01b0319831681179093556040519116919082907f8be0079c531659141344cd1fd0a4f28419497f9722a3daafe3b4186f6b6457e090600090a35050565b80516001600160a01b03811681146200017657600080fd5b919050565b600080600080608085870312156200019257600080fd5b6200019d856200015e565b9350620001ad602086016200015e565b9250620001bd604086016200015e565b9150620001cd606086016200015e565b905092959194509250565b634e487b7160e01b600052604160045260246000fd5b600181811c908216806200020357607f821691505b6020821081036200022457634e487b7160e01b600052602260045260246000fd5b50919050565b601f8211156200027857600081815260208120601f850160051c81016020861015620002535750805b601f850160051c820191505b8181101562000274578281556001016200025f565b5050505b505050565b81516001600160401b03811115620002995762000299620001d8565b620002b181620002aa8454620001ee565b846200022a565b602080601f831160018114620002e95760008415620002d05750858301515b600019600386901b1c1916600185901b17855562000274565b600085815260208120601f198616915b828110156200031a57888601518255948401946001909101908401620002f9565b5085821015620003395787850151600019600388901b60f8161c191681555b5050505050600190811b01905550565b60805160a05160c05160e051611b8d620003a6600039600081816104e8015261119a01526000818161036d01526110a00152600081816102190152610911015260008181610441015281816110c501526112330152611b8d6000f3fe6080604052600436106101c65760003560e01c806375794a3c116100f7578063b88d4fde11610095578063dd1b9c4a11610064578063dd1b9c4a1461053d578063e985e9c514610567578063f0293fd314610587578063f2fde38b146105b457600080fd5b8063b88d4fde146104b6578063c31c9c07146104d6578063c87b56dd1461050a578063d85d3d271461052a57600080fd5b80638c16d99e116100d15780638c16d99e1461042f5780638da5cb5b1461046357806395d89b4114610481578063a22cb4651461049657600080fd5b806375794a3c146103e4578063854e3214146103fa57806387b5903b1461040f57600080fd5b806323b872dd116101645780634b57b0be1161013e5780634b57b0be1461035b5780636352211e1461038f57806370a08231146103af578063715018a6146103cf57600080fd5b806323b872dd146102fb57806342842e0e1461031b57806349d429a01461033b57600080fd5b8063081812fc116101a0578063081812fc14610275578063095ea7b3146102955780631f1525e2146102b7578063231efbe2146102db57600080fd5b806301ffc9a7146101d2578063031937181461020757806306fdde031461025357600080fd5b366101cd57005b600080fd5b3480156101de57600080fd5b506101f26101ed366004611550565b6105d4565b60405190151581526020015b60405180910390f35b34801561021357600080fd5b5061023b7f000000000000000000000000000000000000000000000000000000000000000081565b6040516001600160a01b0390911681526020016101fe565b34801561025f57600080fd5b506102686105ff565b6040516101fe91906115c4565b34801561028157600080fd5b5061023b6102903660046115d7565b610691565b3480156102a157600080fd5b506102b56102b036600461160c565b6106ba565b005b3480156102c357600080fd5b506102cd60095481565b6040519081526020016101fe565b3480156102e757600080fd5b506102686102f63660046115d7565b6106c9565b34801561030757600080fd5b506102b5610316366004611636565b610763565b34801561032757600080fd5b506102b5610336366004611636565b6107f3565b34801561034757600080fd5b506102b56103563660046115d7565b610813565b34801561036757600080fd5b5061023b7f000000000000000000000000000000000000000000000000000000000000000081565b34801561039b57600080fd5b5061023b6103aa3660046115d7565b610870565b3480156103bb57600080fd5b506102cd6103ca366004611672565b61087b565b3480156103db57600080fd5b506102b56108c3565b3480156103f057600080fd5b506102cd600a5481565b34801561040657600080fd5b506102cd6108d7565b34801561041b57600080fd5b506101f261042a366004611672565b6108ed565b34801561043b57600080fd5b5061023b7f000000000000000000000000000000000000000000000000000000000000000081565b34801561046f57600080fd5b506007546001600160a01b031661023b565b34801561048d57600080fd5b50610268610983565b3480156104a257600080fd5b506102b56104b136600461169b565b610992565b3480156104c257600080fd5b506102b56104d13660046116e8565b61099d565b3480156104e257600080fd5b5061023b7f000000000000000000000000000000000000000000000000000000000000000081565b34801561051657600080fd5b506102686105253660046115d7565b6109b5565b6102b56105383660046117c4565b610ad1565b34801561054957600080fd5b50610553610bb881565b60405162ffffff90911681526020016101fe565b34801561057357600080fd5b506101f2610582366004611836565b610bc2565b34801561059357600080fd5b506102cd6105a2366004611672565b600b6020526000908152604090205481565b3480156105c057600080fd5b506102b56105cf366004611672565b610bf0565b60006001600160e01b03198216632483248360e11b14806105f957506105f982610c2e565b92915050565b60606000805461060e90611869565b80601f016020809104026020016040519081016040528092919081815260200182805461063a90611869565b80156106875780601f1061065c57610100808354040283529160200191610687565b820191906000526020600020905b81548152906001019060200180831161066a57829003601f168201915b5050505050905090565b600061069c82610c7e565b506000828152600460205260409020546001600160a01b03166105f9565b6106c5828233610cb7565b5050565b600c60205260009081526040902080546106e290611869565b80601f016020809104026020016040519081016040528092919081815260200182805461070e90611869565b801561075b5780601f106107305761010080835404028352916020019161075b565b820191906000526020600020905b81548152906001019060200180831161073e57829003601f168201915b505050505081565b6001600160a01b03821661079257604051633250574960e11b8152600060048201526024015b60405180910390fd5b600061079f838333610cc4565b9050836001600160a01b0316816001600160a01b0316146107ed576040516364283d7b60e01b81526001600160a01b0380861660048301526024820184905282166044820152606401610789565b50505050565b61080e8383836040518060200160405280600081525061099d565b505050565b61081b610dbd565b6000811161086b5760405162461bcd60e51b815260206004820152601c60248201527f5072696365206d7573742062652067726561746572207468616e2030000000006044820152606401610789565b600955565b60006105f982610c7e565b60006001600160a01b0382166108a7576040516322718ad960e21b815260006004820152602401610789565b506001600160a01b031660009081526003602052604090205490565b6108cb610dbd565b6108d56000610dea565b565b600060026009546108e891906118b9565b905090565b6040516370a0823160e01b81526001600160a01b03828116600483015260009182917f000000000000000000000000000000000000000000000000000000000000000016906370a0823190602401602060405180830381865afa158015610958573d6000803e3d6000fd5b505050506040513d601f19601f8201168201806040525081019061097c91906118db565b1192915050565b60606001805461060e90611869565b6106c5338383610e3c565b6109a8848484610763565b6107ed3385858585610edb565b6000818152600260205260409020546060906001600160a01b0316610a105760405162461bcd60e51b81526020600482015260116024820152702737b732bc34b9ba32b73a103a37b5b2b760791b6044820152606401610789565b6000828152600c602052604081208054610a2990611869565b80601f0160208091040260200160405190810160405280929190818152602001828054610a5590611869565b8015610aa25780601f10610a7757610100808354040283529160200191610aa2565b820191906000526020600020905b815481529060010190602001808311610a8557829003601f168201915b5050505050905080604051602001610aba91906118f4565b604051602081830303815290604052915050919050565b610ad9611006565b6000610ae4336108ed565b9050600081610af557600954610b04565b6002600954610b0491906118b9565b9050803414610b4a5760405162461bcd60e51b8152602060048201526012602482015271125b98dbdc9c9958dd08115512081cd95b9d60721b6044820152606401610789565b600a805460009182610b5b836119ae565b919050559050610b6b3382611030565b6000818152600c60205260409020610b84858783611a0d565b50336000908152600b60205260408120805460019290610ba5908490611acd565b90915550610bb59050343361104a565b5050506106c56001600855565b6001600160a01b03918216600090815260056020908152604080832093909416825291909152205460ff1690565b610bf8610dbd565b6001600160a01b038116610c2257604051631e4fbdf760e01b815260006004820152602401610789565b610c2b81610dea565b50565b60006001600160e01b031982166380ac58cd60e01b1480610c5f57506001600160e01b03198216635b5e139f60e01b145b806105f957506301ffc9a760e01b6001600160e01b03198316146105f9565b6000818152600260205260408120546001600160a01b0316806105f957604051637e27328960e01b815260048101849052602401610789565b61080e83838360016112ed565b6000828152600260205260408120546001600160a01b0390811690831615610cf157610cf18184866113f3565b6001600160a01b03811615610d2f57610d0e6000856000806112ed565b6001600160a01b038116600090815260036020526040902080546000190190555b6001600160a01b03851615610d5e576001600160a01b0385166000908152600360205260409020805460010190555b60008481526002602052604080822080546001600160a01b0319166001600160a01b0389811691821790925591518793918516917fddf252ad1be2c89b69c2b068fc378daa952ba7f163c4a11628f55a4df523b3ef91a4949350505050565b6007546001600160a01b031633146108d55760405163118cdaa760e01b8152336004820152602401610789565b600780546001600160a01b038381166001600160a01b0319831681179093556040519116919082907f8be0079c531659141344cd1fd0a4f28419497f9722a3daafe3b4186f6b6457e090600090a35050565b6001600160a01b038216610e6e57604051630b61174360e31b81526001600160a01b0383166004820152602401610789565b6001600160a01b03838116600081815260056020908152604080832094871680845294825291829020805460ff191686151590811790915591519182527f17307eab39ab6107e8899845ad3d59bd9653f200f220920489ca2b5937696c31910160405180910390a3505050565b6001600160a01b0383163b15610fff57604051630a85bd0160e11b81526001600160a01b0384169063150b7a0290610f1d908890889087908790600401611ae0565b6020604051808303816000875af1925050508015610f58575060408051601f3d908101601f19168201909252610f5591810190611b1d565b60015b610fc1573d808015610f86576040519150601f19603f3d011682016040523d82523d6000602084013e610f8b565b606091505b508051600003610fb957604051633250574960e11b81526001600160a01b0385166004820152602401610789565b805160208201fd5b6001600160e01b03198116630a85bd0160e11b14610ffd57604051633250574960e11b81526001600160a01b0385166004820152602401610789565b505b5050505050565b60026008540361102957604051633ee5aeb560e01b815260040160405180910390fd5b6002600855565b6106c5828260405180602001604052806000815250611457565b6000821161108b5760405162461bcd60e51b815260206004820152600e60248201526d04e6f2045544820746f20737761760941b6044820152606401610789565b60408051610100810182526001600160a01b037f0000000000000000000000000000000000000000000000000000000000000000811682527f0000000000000000000000000000000000000000000000000000000000000000166020820152610bb8918101919091523060608201526000906080810161110d42610384611acd565b81526020808201869052600060408084018290526060938401829052805163414bf38960e01b815285516001600160a01b03908116600483015293860151841660248201529085015162ffffff16604482015292840151821660648401526080840151608484015260a084015160a484015260c084015160c484015260e0840151821660e48401529293507f0000000000000000000000000000000000000000000000000000000000000000169063414bf3899086906101040160206040518083038185885af11580156111e5573d6000803e3d6000fd5b50505050506040513d601f19601f8201168201806040525081019061120a91906118db565b60405163a9059cbb60e01b81526001600160a01b038581166004830152602482018390529192507f00000000000000000000000000000000000000000000000000000000000000009091169063a9059cbb906044016020604051808303816000875af115801561127e573d6000803e3d6000fd5b505050506040513d601f19601f820116820180604052508101906112a29190611b3a565b5060408051858152602081018390526001600160a01b038516917f2d043ce009ff53fd444b0f4f5ff4c3f4ee293265203f77f156eeb33b595dfc4f910160405180910390a250505050565b808061130157506001600160a01b03821615155b156113c357600061131184610c7e565b90506001600160a01b0383161580159061133d5750826001600160a01b0316816001600160a01b031614155b8015611350575061134e8184610bc2565b155b156113795760405163a9fbf51f60e01b81526001600160a01b0384166004820152602401610789565b81156113c15783856001600160a01b0316826001600160a01b03167f8c5be1e5ebec7d5bd14f71427d1e84f3dd0314c0f7b2291e5b200ac8c7c3b92560405160405180910390a45b505b5050600090815260046020526040902080546001600160a01b0319166001600160a01b0392909216919091179055565b6113fe83838361146f565b61080e576001600160a01b03831661142c57604051637e27328960e01b815260048101829052602401610789565b60405163177e802f60e01b81526001600160a01b038316600482015260248101829052604401610789565b61146183836114d5565b61080e336000858585610edb565b60006001600160a01b038316158015906114cd5750826001600160a01b0316846001600160a01b031614806114a957506114a98484610bc2565b806114cd57506000828152600460205260409020546001600160a01b038481169116145b949350505050565b6001600160a01b0382166114ff57604051633250574960e11b815260006004820152602401610789565b600061150d83836000610cc4565b90506001600160a01b0381161561080e576040516339e3563760e11b815260006004820152602401610789565b6001600160e01b031981168114610c2b57600080fd5b60006020828403121561156257600080fd5b813561156d8161153a565b9392505050565b60005b8381101561158f578181015183820152602001611577565b50506000910152565b600081518084526115b0816020860160208601611574565b601f01601f19169290920160200192915050565b60208152600061156d6020830184611598565b6000602082840312156115e957600080fd5b5035919050565b80356001600160a01b038116811461160757600080fd5b919050565b6000806040838503121561161f57600080fd5b611628836115f0565b946020939093013593505050565b60008060006060848603121561164b57600080fd5b611654846115f0565b9250611662602085016115f0565b9150604084013590509250925092565b60006020828403121561168457600080fd5b61156d826115f0565b8015158114610c2b57600080fd5b600080604083850312156116ae57600080fd5b6116b7836115f0565b915060208301356116c78161168d565b809150509250929050565b634e487b7160e01b600052604160045260246000fd5b600080600080608085870312156116fe57600080fd5b611707856115f0565b9350611715602086016115f0565b925060408501359150606085013567ffffffffffffffff8082111561173957600080fd5b818701915087601f83011261174d57600080fd5b81358181111561175f5761175f6116d2565b604051601f8201601f19908116603f01168101908382118183101715611787576117876116d2565b816040528281528a60208487010111156117a057600080fd5b82602086016020830137600060208483010152809550505050505092959194509250565b600080602083850312156117d757600080fd5b823567ffffffffffffffff808211156117ef57600080fd5b818501915085601f83011261180357600080fd5b81358181111561181257600080fd5b86602082850101111561182457600080fd5b60209290920196919550909350505050565b6000806040838503121561184957600080fd5b611852836115f0565b9150611860602084016115f0565b90509250929050565b600181811c9082168061187d57607f821691505b60208210810361189d57634e487b7160e01b600052602260045260246000fd5b50919050565b634e487b7160e01b600052601160045260246000fd5b6000826118d657634e487b7160e01b600052601260045260246000fd5b500490565b6000602082840312156118ed57600080fd5b5051919050565b7f68747470733a2f2f79656c6c6f772d696d70657269616c2d776173702d33313781527f2e6d7970696e6174612e636c6f75642f697066732f626166796265696237677660208201527f7a37783336326b33666565366878337066663262663462706837766d696d7065604082015270746279337461777437356f656e767a692f60781b606082015260008251611992816071850160208701611574565b64173539b7b760d91b6071939091019283015250607601919050565b6000600182016119c0576119c06118a3565b5060010190565b601f82111561080e57600081815260208120601f850160051c810160208610156119ee5750805b601f850160051c820191505b81811015610ffd578281556001016119fa565b67ffffffffffffffff831115611a2557611a256116d2565b611a3983611a338354611869565b836119c7565b6000601f841160018114611a6d5760008515611a555750838201355b600019600387901b1c1916600186901b178355610fff565b600083815260209020601f19861690835b82811015611a9e5786850135825560209485019460019092019101611a7e565b5086821015611abb5760001960f88860031b161c19848701351681555b505060018560011b0183555050505050565b808201808211156105f9576105f96118a3565b6001600160a01b0385811682528416602082015260408101839052608060608201819052600090611b1390830184611598565b9695505050505050565b600060208284031215611b2f57600080fd5b815161156d8161153a565b600060208284031215611b4c57600080fd5b815161156d8161168d56fea2646970667358221220a67db8c295ba44a4a59e966c692d8658bf592c35e92ba37381fe51bc8a5454f764736f6c63430008140033",
  "linkReferences": {},
  "deployedLinkReferences": {}
}