{
  "_format": "hh-sol-artifact-1",
  "contractName": "AlvaraMintIPFS",
  "sourceName": "src/AlvaraMintIPFS.sol",
  "abi": [
    {
      "inputs": [
        {
          "internalType": "address",
          "name": "_alvaToken",
          "type": "address"
        },
        {
          "internalType": "address",
          "name": "_veALVAToken",
          "type": "address"
        },
        {
          "internalType": "address",
          "name": "_uniswapV4Router",
          "type": "address"
        }
      ],
      "stateMutability": "nonpayable",
      "type": "constructor"
    },
    {
      "inputs": [
        {
          "internalType": "address",
          "name": "sender",
          "type": "address"
        },
        {
          "internalType": "uint256",
          "name": "tokenId",
          "type": "uint256"
        },
        {
          "internalType": "address",
          "name": "owner",
          "type": "address"
        }
      ],
      "name": "ERC721IncorrectOwner",
      "type": "error"
    },
    {
      "inputs": [
        {
          "internalType": "address",
          "name": "operator",
          "type": "address"
        },
        {
          "internalType": "uint256",
          "name": "tokenId",
          "type": "uint256"
        }
      ],
      "name": "ERC721InsufficientApproval",
      "type": "error"
    },
    {
      "inputs": [
        {
          "internalType": "address",
          "name": "approver",
          "type": "address"
        }
      ],
      "name": "ERC721InvalidApprover",
      "type": "error"
    },
    {
      "inputs": [
        {
          "internalType": "address",
          "name": "operator",
          "type": "address"
        }
      ],
      "name": "ERC721InvalidOperator",
      "type": "error"
    },
    {
      "inputs": [
        {
          "internalType": "address",
          "name": "owner",
          "type": "address"
        }
      ],
      "name": "ERC721InvalidOwner",
      "type": "error"
    },
    {
      "inputs": [
        {
          "internalType": "address",
          "name": "receiver",
          "type": "address"
        }
      ],
      "name": "ERC721InvalidReceiver",
      "type": "error"
    },
    {
      "inputs": [
        {
          "internalType": "address",
          "name": "sender",
          "type": "address"
        }
      ],
      "name": "ERC721InvalidSender",
      "type": "error"
    },
    {
      "inputs": [
        {
          "internalType": "uint256",
          "name": "tokenId",
          "type": "uint256"
        }
      ],
      "name": "ERC721NonexistentToken",
      "type": "error"
    },
    {
      "inputs": [
        {
          "internalType": "address",
          "name": "owner",
          "type": "address"
        }
      ],
      "name": "OwnableInvalidOwner",
      "type": "error"
    },
    {
      "inputs": [
        {
          "internalType": "address",
          "name": "account",
          "type": "address"
        }
      ],
      "name": "OwnableUnauthorizedAccount",
      "type": "error"
    },
    {
      "inputs": [],
      "name": "ReentrancyGuardReentrantCall",
      "type": "error"
    },
    {
      "anonymous": false,
      "inputs": [
        {
          "indexed": true,
          "internalType": "address",
          "name": "owner",
          "type": "address"
        },
        {
          "indexed": true,
          "internalType": "address",
          "name": "approved",
          "type": "address"
        },
        {
          "indexed": true,
          "internalType": "uint256",
          "name": "tokenId",
          "type": "uint256"
        }
      ],
      "name": "Approval",
      "type": "event"
    },
    {
      "anonymous": false,
      "inputs": [
        {
          "indexed": true,
          "internalType": "address",
          "name": "owner",
          "type": "address"
        },
        {
          "indexed": true,
          "internalType": "address",
          "name": "operator",
          "type": "address"
        },
        {
          "indexed": false,
          "internalType": "bool",
          "name": "approved",
          "type": "bool"
        }
      ],
      "name": "ApprovalForAll",
      "type": "event"
    },
    {
      "anonymous": false,
      "inputs": [
        {
          "indexed": false,
          "internalType": "uint256",
          "name": "_fromTokenId",
          "type": "uint256"
        },
        {
          "indexed": false,
          "internalType": "uint256",
          "name": "_toTokenId",
          "type": "uint256"
        }
      ],
      "name": "BatchMetadataUpdate",
      "type": "event"
    },
    {
      "anonymous": false,
      "inputs": [
        {
          "indexed": false,
          "internalType": "uint256",
          "name": "_tokenId",
          "type": "uint256"
        }
      ],
      "name": "MetadataUpdate",
      "type": "event"
    },
    {
      "anonymous": false,
      "inputs": [
        {
          "indexed": true,
          "internalType": "address",
          "name": "previousOwner",
          "type": "address"
        },
        {
          "indexed": true,
          "internalType": "address",
          "name": "newOwner",
          "type": "address"
        }
      ],
      "name": "OwnershipTransferred",
      "type": "event"
    },
    {
      "anonymous": false,
      "inputs": [
        {
          "indexed": true,
          "internalType": "address",
          "name": "from",
          "type": "address"
        },
        {
          "indexed": true,
          "internalType": "address",
          "name": "to",
          "type": "address"
        },
        {
          "indexed": true,
          "internalType": "uint256",
          "name": "tokenId",
          "type": "uint256"
        }
      ],
      "name": "Transfer",
      "type": "event"
    },
    {
      "inputs": [],
      "name": "alvaToken",
      "outputs": [
        {
          "internalType": "address",
          "name": "",
          "type": "address"
        }
      ],
      "stateMutability": "view",
      "type": "function"
    },
    {
      "inputs": [
        {
          "internalType": "address",
          "name": "to",
          "type": "address"
        },
        {
          "internalType": "uint256",
          "name": "tokenId",
          "type": "uint256"
        }
      ],
      "name": "approve",
      "outputs": [],
      "stateMutability": "nonpayable",
      "type": "function"
    },
    {
      "inputs": [
        {
          "internalType": "address",
          "name": "owner",
          "type": "address"
        }
      ],
      "name": "balanceOf",
      "outputs": [
        {
          "internalType": "uint256",
          "name": "",
          "type": "uint256"
        }
      ],
      "stateMutability": "view",
      "type": "function"
    },
    {
      "inputs": [
        {
          "internalType": "uint256",
          "name": "tokenId",
          "type": "uint256"
        }
      ],
      "name": "getApproved",
      "outputs": [
        {
          "internalType": "address",
          "name": "",
          "type": "address"
        }
      ],
      "stateMutability": "view",
      "type": "function"
    },
    {
      "inputs": [],
      "name": "getDiscountPrice",
      "outputs": [
        {
          "internalType": "uint256",
          "name": "",
          "type": "uint256"
        }
      ],
      "stateMutability": "view",
      "type": "function"
    },
    {
      "inputs": [
        {
          "internalType": "address",
          "name": "user",
          "type": "address"
        }
      ],
      "name": "hasVeALVA",
      "outputs": [
        {
          "internalType": "bool",
          "name": "",
          "type": "bool"
        }
      ],
      "stateMutability": "view",
      "type": "function"
    },
    {
      "inputs": [
        {
          "internalType": "address",
          "name": "owner",
          "type": "address"
        },
        {
          "internalType": "address",
          "name": "operator",
          "type": "address"
        }
      ],
      "name": "isApprovedForAll",
      "outputs": [
        {
          "internalType": "bool",
          "name": "",
          "type": "bool"
        }
      ],
      "stateMutability": "view",
      "type": "function"
    },
    {
      "inputs": [
        {
          "internalType": "string",
          "name": "designId",
          "type": "string"
        }
      ],
      "name": "mint",
      "outputs": [],
      "stateMutability": "payable",
      "type": "function"
    },
    {
      "inputs": [],
      "name": "name",
      "outputs": [
        {
          "internalType": "string",
          "name": "",
          "type": "string"
        }
      ],
      "stateMutability": "view",
      "type": "function"
    },
    {
      "inputs": [],
      "name": "nextTokenId",
      "outputs": [
        {
          "internalType": "uint256",
          "name": "",
          "type": "uint256"
        }
      ],
      "stateMutability": "view",
      "type": "function"
    },
    {
      "inputs": [],
      "name": "owner",
      "outputs": [
        {
          "internalType": "address",
          "name": "",
          "type": "address"
        }
      ],
      "stateMutability": "view",
      "type": "function"
    },
    {
      "inputs": [
        {
          "internalType": "uint256",
          "name": "tokenId",
          "type": "uint256"
        }
      ],
      "name": "ownerOf",
      "outputs": [
        {
          "internalType": "address",
          "name": "",
          "type": "address"
        }
      ],
      "stateMutability": "view",
      "type": "function"
    },
    {
      "inputs": [],
      "name": "renounceOwnership",
      "outputs": [],
      "stateMutability": "nonpayable",
      "type": "function"
    },
    {
      "inputs": [
        {
          "internalType": "address",
          "name": "from",
          "type": "address"
        },
        {
          "internalType": "address",
          "name": "to",
          "type": "address"
        },
        {
          "internalType": "uint256",
          "name": "tokenId",
          "type": "uint256"
        }
      ],
      "name": "safeTransferFrom",
      "outputs": [],
      "stateMutability": "nonpayable",
      "type": "function"
    },
    {
      "inputs": [
        {
          "internalType": "address",
          "name": "from",
          "type": "address"
        },
        {
          "internalType": "address",
          "name": "to",
          "type": "address"
        },
        {
          "internalType": "uint256",
          "name": "tokenId",
          "type": "uint256"
        },
        {
          "internalType": "bytes",
          "name": "data",
          "type": "bytes"
        }
      ],
      "name": "safeTransferFrom",
      "outputs": [],
      "stateMutability": "nonpayable",
      "type": "function"
    },
    {
      "inputs": [
        {
          "internalType": "address",
          "name": "operator",
          "type": "address"
        },
        {
          "internalType": "bool",
          "name": "approved",
          "type": "bool"
        }
      ],
      "name": "setApprovalForAll",
      "outputs": [],
      "stateMutability": "nonpayable",
      "type": "function"
    },
    {
      "inputs": [
        {
          "internalType": "uint256",
          "name": "newPrice",
          "type": "uint256"
        }
      ],
      "name": "setStandardPrice",
      "outputs": [],
      "stateMutability": "nonpayable",
      "type": "function"
    },
    {
      "inputs": [],
      "name": "standardPrice",
      "outputs": [
        {
          "internalType": "uint256",
          "name": "",
          "type": "uint256"
        }
      ],
      "stateMutability": "view",
      "type": "function"
    },
    {
      "inputs": [
        {
          "internalType": "bytes4",
          "name": "interfaceId",
          "type": "bytes4"
        }
      ],
      "name": "supportsInterface",
      "outputs": [
        {
          "internalType": "bool",
          "name": "",
          "type": "bool"
        }
      ],
      "stateMutability": "view",
      "type": "function"
    },
    {
      "inputs": [],
      "name": "symbol",
      "outputs": [
        {
          "internalType": "string",
          "name": "",
          "type": "string"
        }
      ],
      "stateMutability": "view",
      "type": "function"
    },
    {
      "inputs": [
        {
          "internalType": "uint256",
          "name": "",
          "type": "uint256"
        }
      ],
      "name": "tokenDesign",
      "outputs": [
        {
          "internalType": "string",
          "name": "",
          "type": "string"
        }
      ],
      "stateMutability": "view",
      "type": "function"
    },
    {
      "inputs": [
        {
          "internalType": "uint256",
          "name": "tokenId",
          "type": "uint256"
        }
      ],
      "name": "tokenURI",
      "outputs": [
        {
          "internalType": "string",
          "name": "",
          "type": "string"
        }
      ],
      "stateMutability": "view",
      "type": "function"
    },
    {
      "inputs": [
        {
          "internalType": "address",
          "name": "from",
          "type": "address"
        },
        {
          "internalType": "address",
          "name": "to",
          "type": "address"
        },
        {
          "internalType": "uint256",
          "name": "tokenId",
          "type": "uint256"
        }
      ],
      "name": "transferFrom",
      "outputs": [],
      "stateMutability": "nonpayable",
      "type": "function"
    },
    {
      "inputs": [
        {
          "internalType": "address",
          "name": "newOwner",
          "type": "address"
        }
      ],
      "name": "transferOwnership",
      "outputs": [],
      "stateMutability": "nonpayable",
      "type": "function"
    },
    {
      "inputs": [],
      "name": "uniswapV4Router",
      "outputs": [
        {
          "internalType": "contract IUniswapV4Router",
          "name": "",
          "type": "address"
        }
      ],
      "stateMutability": "view",
      "type": "function"
    },
    {
      "inputs": [],
      "name": "veALVAToken",
      "outputs": [
        {
          "internalType": "address",
          "name": "",
          "type": "address"
        }
      ],
      "stateMutability": "view",
      "type": "function"
    },
    {
      "inputs": [
        {
          "internalType": "address",
          "name": "",
          "type": "address"
        }
      ],
      "name": "walletMints",
      "outputs": [
        {
          "internalType": "uint256",
          "name": "",
          "type": "uint256"
        }
      ],
      "stateMutability": "view",
      "type": "function"
    },
    {
      "inputs": [],
      "name": "withdraw",
      "outputs": [],
      "stateMutability": "nonpayable",
      "type": "function"
    },
    {
      "stateMutability": "payable",
      "type": "receive"
    }
  ],
  "bytecode": "0x60e060405266038d7ea4c680006009556001600a553480156200002157600080fd5b5060405162001cf138038062001cf1833981016040819052620000449162000175565b336040518060400160405280600a815260200169105b1d985c984813919560b21b81525060405180604001604052806004815260200163414c564160e01b815250816000908162000096919062000264565b506001620000a5828262000264565b5050506001600160a01b038116620000d757604051631e4fbdf760e01b81526000600482015260240160405180910390fd5b620000e28162000106565b5060016008556001600160a01b0392831660805290821660a0521660c05262000330565b600780546001600160a01b038381166001600160a01b0319831681179093556040519116919082907f8be0079c531659141344cd1fd0a4f28419497f9722a3daafe3b4186f6b6457e090600090a35050565b80516001600160a01b03811681146200017057600080fd5b919050565b6000806000606084860312156200018b57600080fd5b620001968462000158565b9250620001a66020850162000158565b9150620001b66040850162000158565b90509250925092565b634e487b7160e01b600052604160045260246000fd5b600181811c90821680620001ea57607f821691505b6020821081036200020b57634e487b7160e01b600052602260045260246000fd5b50919050565b601f8211156200025f57600081815260208120601f850160051c810160208610156200023a5750805b601f850160051c820191505b818110156200025b5782815560010162000246565b5050505b505050565b81516001600160401b03811115620002805762000280620001bf565b6200029881620002918454620001d5565b8462000211565b602080601f831160018114620002d05760008415620002b75750858301515b600019600386901b1c1916600185901b1785556200025b565b600085815260208120601f198616915b828110156200030157888601518255948401946001909101908401620002e0565b5085821015620003205787850151600019600388901b60f8161c191681555b5050505050600190811b01905550565b60805160a05160c05161197c62000375600039600081816104f1015261109d01526000818161020e01526109010152600081816104170152611063015261197c6000f3fe6080604052600436106101bb5760003560e01c806375794a3c116100ec578063b88d4fde1161008a578063d94f199711610064578063d94f1997146104df578063e985e9c514610513578063f0293fd314610533578063f2fde38b1461056057600080fd5b8063b88d4fde1461048c578063c87b56dd146104ac578063d85d3d27146104cc57600080fd5b80638c16d99e116100c65780638c16d99e146104055780638da5cb5b1461043957806395d89b4114610457578063a22cb4651461046c57600080fd5b806375794a3c146103ba578063854e3214146103d057806387b5903b146103e557600080fd5b806323b872dd1161015957806349d429a01161013357806349d429a0146103455780636352211e1461036557806370a0823114610385578063715018a6146103a557600080fd5b806323b872dd146102f05780633ccfd60b1461031057806342842e0e1461032557600080fd5b8063081812fc11610195578063081812fc1461026a578063095ea7b31461028a5780631f1525e2146102ac578063231efbe2146102d057600080fd5b806301ffc9a7146101c757806303193718146101fc57806306fdde031461024857600080fd5b366101c257005b600080fd5b3480156101d357600080fd5b506101e76101e2366004611365565b610580565b60405190151581526020015b60405180910390f35b34801561020857600080fd5b506102307f000000000000000000000000000000000000000000000000000000000000000081565b6040516001600160a01b0390911681526020016101f3565b34801561025457600080fd5b5061025d6105ab565b6040516101f391906113d9565b34801561027657600080fd5b506102306102853660046113ec565b61063d565b34801561029657600080fd5b506102aa6102a5366004611421565b610666565b005b3480156102b857600080fd5b506102c260095481565b6040519081526020016101f3565b3480156102dc57600080fd5b5061025d6102eb3660046113ec565b610675565b3480156102fc57600080fd5b506102aa61030b36600461144b565b61070f565b34801561031c57600080fd5b506102aa61079f565b34801561033157600080fd5b506102aa61034036600461144b565b6107e3565b34801561035157600080fd5b506102aa6103603660046113ec565b610803565b34801561037157600080fd5b506102306103803660046113ec565b610860565b34801561039157600080fd5b506102c26103a0366004611487565b61086b565b3480156103b157600080fd5b506102aa6108b3565b3480156103c657600080fd5b506102c2600a5481565b3480156103dc57600080fd5b506102c26108c7565b3480156103f157600080fd5b506101e7610400366004611487565b6108dd565b34801561041157600080fd5b506102307f000000000000000000000000000000000000000000000000000000000000000081565b34801561044557600080fd5b506007546001600160a01b0316610230565b34801561046357600080fd5b5061025d610973565b34801561047857600080fd5b506102aa6104873660046114a2565b610982565b34801561049857600080fd5b506102aa6104a73660046114f4565b61098d565b3480156104b857600080fd5b5061025d6104c73660046113ec565b6109a5565b6102aa6104da3660046115d0565b610ac1565b3480156104eb57600080fd5b506102307f000000000000000000000000000000000000000000000000000000000000000081565b34801561051f57600080fd5b506101e761052e366004611642565b610bb2565b34801561053f57600080fd5b506102c261054e366004611487565b600b6020526000908152604090205481565b34801561056c57600080fd5b506102aa61057b366004611487565b610be0565b60006001600160e01b03198216632483248360e11b14806105a557506105a582610c1b565b92915050565b6060600080546105ba90611675565b80601f01602080910402602001604051908101604052809291908181526020018280546105e690611675565b80156106335780601f1061060857610100808354040283529160200191610633565b820191906000526020600020905b81548152906001019060200180831161061657829003601f168201915b5050505050905090565b600061064882610c6b565b506000828152600460205260409020546001600160a01b03166105a5565b610671828233610ca4565b5050565b600c602052600090815260409020805461068e90611675565b80601f01602080910402602001604051908101604052809291908181526020018280546106ba90611675565b80156107075780601f106106dc57610100808354040283529160200191610707565b820191906000526020600020905b8154815290600101906020018083116106ea57829003601f168201915b505050505081565b6001600160a01b03821661073e57604051633250574960e11b8152600060048201526024015b60405180910390fd5b600061074b838333610cb1565b9050836001600160a01b0316816001600160a01b031614610799576040516364283d7b60e01b81526001600160a01b0380861660048301526024820184905282166044820152606401610735565b50505050565b6107a7610daa565b6007546040516001600160a01b03909116904780156108fc02916000818181858888f193505050501580156107e0573d6000803e3d6000fd5b50565b6107fe8383836040518060200160405280600081525061098d565b505050565b61080b610daa565b6000811161085b5760405162461bcd60e51b815260206004820152601c60248201527f5072696365206d7573742062652067726561746572207468616e2030000000006044820152606401610735565b600955565b60006105a582610c6b565b60006001600160a01b038216610897576040516322718ad960e21b815260006004820152602401610735565b506001600160a01b031660009081526003602052604090205490565b6108bb610daa565b6108c56000610dd7565b565b600060026009546108d891906116c5565b905090565b6040516370a0823160e01b81526001600160a01b03828116600483015260009182917f000000000000000000000000000000000000000000000000000000000000000016906370a0823190602401602060405180830381865afa158015610948573d6000803e3d6000fd5b505050506040513d601f19601f8201168201806040525081019061096c91906116e7565b1192915050565b6060600180546105ba90611675565b610671338383610e29565b61099884848461070f565b6107993385858585610ec8565b6000818152600260205260409020546060906001600160a01b0316610a005760405162461bcd60e51b81526020600482015260116024820152702737b732bc34b9ba32b73a103a37b5b2b760791b6044820152606401610735565b6000828152600c602052604081208054610a1990611675565b80601f0160208091040260200160405190810160405280929190818152602001828054610a4590611675565b8015610a925780601f10610a6757610100808354040283529160200191610a92565b820191906000526020600020905b815481529060010190602001808311610a7557829003601f168201915b5050505050905080604051602001610aaa9190611700565b604051602081830303815290604052915050919050565b610ac9610ff3565b6000610ad4336108dd565b9050600081610ae557600954610af4565b6002600954610af491906116c5565b9050803414610b3a5760405162461bcd60e51b8152602060048201526012602482015271125b98dbdc9c9958dd08115512081cd95b9d60721b6044820152606401610735565b600a805460009182610b4b836117ba565b919050559050610b5b338261101d565b6000818152600c60205260409020610b74858783611819565b50336000908152600b60205260408120805460019290610b959084906118d9565b90915550610ba590503433611037565b5050506106716001600855565b6001600160a01b03918216600090815260056020908152604080832093909416825291909152205460ff1690565b610be8610daa565b6001600160a01b038116610c1257604051631e4fbdf760e01b815260006004820152602401610735565b6107e081610dd7565b60006001600160e01b031982166380ac58cd60e01b1480610c4c57506001600160e01b03198216635b5e139f60e01b145b806105a557506301ffc9a760e01b6001600160e01b03198316146105a5565b6000818152600260205260408120546001600160a01b0316806105a557604051637e27328960e01b815260048101849052602401610735565b6107fe8383836001611102565b6000828152600260205260408120546001600160a01b0390811690831615610cde57610cde818486611208565b6001600160a01b03811615610d1c57610cfb600085600080611102565b6001600160a01b038116600090815260036020526040902080546000190190555b6001600160a01b03851615610d4b576001600160a01b0385166000908152600360205260409020805460010190555b60008481526002602052604080822080546001600160a01b0319166001600160a01b0389811691821790925591518793918516917fddf252ad1be2c89b69c2b068fc378daa952ba7f163c4a11628f55a4df523b3ef91a4949350505050565b6007546001600160a01b031633146108c55760405163118cdaa760e01b8152336004820152602401610735565b600780546001600160a01b038381166001600160a01b0319831681179093556040519116919082907f8be0079c531659141344cd1fd0a4f28419497f9722a3daafe3b4186f6b6457e090600090a35050565b6001600160a01b038216610e5b57604051630b61174360e31b81526001600160a01b0383166004820152602401610735565b6001600160a01b03838116600081815260056020908152604080832094871680845294825291829020805460ff191686151590811790915591519182527f17307eab39ab6107e8899845ad3d59bd9653f200f220920489ca2b5937696c31910160405180910390a3505050565b6001600160a01b0383163b15610fec57604051630a85bd0160e11b81526001600160a01b0384169063150b7a0290610f0a9088908890879087906004016118ec565b6020604051808303816000875af1925050508015610f45575060408051601f3d908101601f19168201909252610f4291810190611929565b60015b610fae573d808015610f73576040519150601f19603f3d011682016040523d82523d6000602084013e610f78565b606091505b508051600003610fa657604051633250574960e11b81526001600160a01b0385166004820152602401610735565b805160208201fd5b6001600160e01b03198116630a85bd0160e11b14610fea57604051633250574960e11b81526001600160a01b0385166004820152602401610735565b505b5050505050565b60026008540361101657604051633ee5aeb560e01b815260040160405180910390fd5b6002600855565b61067182826040518060200160405280600081525061126c565b60006110454261012c6118d9565b60405163072e9d7160e11b8152600060048201526001600160a01b037f0000000000000000000000000000000000000000000000000000000000000000811660248301528481166044830152606482018390529192507f000000000000000000000000000000000000000000000000000000000000000090911690630e5d3ae29085906084016000604051808303818588803b1580156110e457600080fd5b505af11580156110f8573d6000803e3d6000fd5b5050505050505050565b808061111657506001600160a01b03821615155b156111d857600061112684610c6b565b90506001600160a01b038316158015906111525750826001600160a01b0316816001600160a01b031614155b801561116557506111638184610bb2565b155b1561118e5760405163a9fbf51f60e01b81526001600160a01b0384166004820152602401610735565b81156111d65783856001600160a01b0316826001600160a01b03167f8c5be1e5ebec7d5bd14f71427d1e84f3dd0314c0f7b2291e5b200ac8c7c3b92560405160405180910390a45b505b5050600090815260046020526040902080546001600160a01b0319166001600160a01b0392909216919091179055565b611213838383611284565b6107fe576001600160a01b03831661124157604051637e27328960e01b815260048101829052602401610735565b60405163177e802f60e01b81526001600160a01b038316600482015260248101829052604401610735565b61127683836112ea565b6107fe336000858585610ec8565b60006001600160a01b038316158015906112e25750826001600160a01b0316846001600160a01b031614806112be57506112be8484610bb2565b806112e257506000828152600460205260409020546001600160a01b038481169116145b949350505050565b6001600160a01b03821661131457604051633250574960e11b815260006004820152602401610735565b600061132283836000610cb1565b90506001600160a01b038116156107fe576040516339e3563760e11b815260006004820152602401610735565b6001600160e01b0319811681146107e057600080fd5b60006020828403121561137757600080fd5b81356113828161134f565b9392505050565b60005b838110156113a457818101518382015260200161138c565b50506000910152565b600081518084526113c5816020860160208601611389565b601f01601f19169290920160200192915050565b60208152600061138260208301846113ad565b6000602082840312156113fe57600080fd5b5035919050565b80356001600160a01b038116811461141c57600080fd5b919050565b6000806040838503121561143457600080fd5b61143d83611405565b946020939093013593505050565b60008060006060848603121561146057600080fd5b61146984611405565b925061147760208501611405565b9150604084013590509250925092565b60006020828403121561149957600080fd5b61138282611405565b600080604083850312156114b557600080fd5b6114be83611405565b9150602083013580151581146114d357600080fd5b809150509250929050565b634e487b7160e01b600052604160045260246000fd5b6000806000806080858703121561150a57600080fd5b61151385611405565b935061152160208601611405565b925060408501359150606085013567ffffffffffffffff8082111561154557600080fd5b818701915087601f83011261155957600080fd5b81358181111561156b5761156b6114de565b604051601f8201601f19908116603f01168101908382118183101715611593576115936114de565b816040528281528a60208487010111156115ac57600080fd5b82602086016020830137600060208483010152809550505050505092959194509250565b600080602083850312156115e357600080fd5b823567ffffffffffffffff808211156115fb57600080fd5b818501915085601f83011261160f57600080fd5b81358181111561161e57600080fd5b86602082850101111561163057600080fd5b60209290920196919550909350505050565b6000806040838503121561165557600080fd5b61165e83611405565b915061166c60208401611405565b90509250929050565b600181811c9082168061168957607f821691505b6020821081036116a957634e487b7160e01b600052602260045260246000fd5b50919050565b634e487b7160e01b600052601160045260246000fd5b6000826116e257634e487b7160e01b600052601260045260246000fd5b500490565b6000602082840312156116f957600080fd5b5051919050565b7f68747470733a2f2f79656c6c6f772d696d70657269616c2d776173702d33313781527f2e6d7970696e6174612e636c6f75642f697066732f626166796265696237677660208201527f7a37783336326b33666565366878337066663262663462706837766d696d7065604082015270746279337461777437356f656e767a692f60781b60608201526000825161179e816071850160208701611389565b64173539b7b760d91b6071939091019283015250607601919050565b6000600182016117cc576117cc6116af565b5060010190565b601f8211156107fe57600081815260208120601f850160051c810160208610156117fa5750805b601f850160051c820191505b81811015610fea57828155600101611806565b67ffffffffffffffff831115611831576118316114de565b6118458361183f8354611675565b836117d3565b6000601f84116001811461187957600085156118615750838201355b600019600387901b1c1916600186901b178355610fec565b600083815260209020601f19861690835b828110156118aa578685013582556020948501946001909201910161188a565b50868210156118c75760001960f88860031b161c19848701351681555b505060018560011b0183555050505050565b808201808211156105a5576105a56116af565b6001600160a01b038581168252841660208201526040810183905260806060820181905260009061191f908301846113ad565b9695505050505050565b60006020828403121561193b57600080fd5b81516113828161134f56fea2646970667358221220e825a44fd01f6b6e0d2c23a21db9a5442de09da657748dedfd98b405c8a2ebd164736f6c63430008140033",
  "linkReferences": {},
  "deployedLinkReferences": {}
}