{
  "_format": "hh-sol-artifact-1",
  "contractName": "AlvaraMint",
  "sourceName": "src/AlvaraMint.sol",
  "abi": [
    {
      "inputs": [
        {
          "internalType": "address",
          "name": "_alvaToken",
          "type": "address"
        }
      ],
      "stateMutability": "nonpayable",
      "type": "constructor"
    },
    {
      "inputs": [
        {
          "internalType": "address",
          "name": "sender",
          "type": "address"
        },
        {
          "internalType": "uint256",
          "name": "tokenId",
          "type": "uint256"
        },
        {
          "internalType": "address",
          "name": "owner",
          "type": "address"
        }
      ],
      "name": "ERC721IncorrectOwner",
      "type": "error"
    },
    {
      "inputs": [
        {
          "internalType": "address",
          "name": "operator",
          "type": "address"
        },
        {
          "internalType": "uint256",
          "name": "tokenId",
          "type": "uint256"
        }
      ],
      "name": "ERC721InsufficientApproval",
      "type": "error"
    },
    {
      "inputs": [
        {
          "internalType": "address",
          "name": "approver",
          "type": "address"
        }
      ],
      "name": "ERC721InvalidApprover",
      "type": "error"
    },
    {
      "inputs": [
        {
          "internalType": "address",
          "name": "operator",
          "type": "address"
        }
      ],
      "name": "ERC721InvalidOperator",
      "type": "error"
    },
    {
      "inputs": [
        {
          "internalType": "address",
          "name": "owner",
          "type": "address"
        }
      ],
      "name": "ERC721InvalidOwner",
      "type": "error"
    },
    {
      "inputs": [
        {
          "internalType": "address",
          "name": "receiver",
          "type": "address"
        }
      ],
      "name": "ERC721InvalidReceiver",
      "type": "error"
    },
    {
      "inputs": [
        {
          "internalType": "address",
          "name": "sender",
          "type": "address"
        }
      ],
      "name": "ERC721InvalidSender",
      "type": "error"
    },
    {
      "inputs": [
        {
          "internalType": "uint256",
          "name": "tokenId",
          "type": "uint256"
        }
      ],
      "name": "ERC721NonexistentToken",
      "type": "error"
    },
    {
      "inputs": [
        {
          "internalType": "address",
          "name": "owner",
          "type": "address"
        }
      ],
      "name": "OwnableInvalidOwner",
      "type": "error"
    },
    {
      "inputs": [
        {
          "internalType": "address",
          "name": "account",
          "type": "address"
        }
      ],
      "name": "OwnableUnauthorizedAccount",
      "type": "error"
    },
    {
      "anonymous": false,
      "inputs": [
        {
          "indexed": true,
          "internalType": "address",
          "name": "owner",
          "type": "address"
        },
        {
          "indexed": true,
          "internalType": "address",
          "name": "approved",
          "type": "address"
        },
        {
          "indexed": true,
          "internalType": "uint256",
          "name": "tokenId",
          "type": "uint256"
        }
      ],
      "name": "Approval",
      "type": "event"
    },
    {
      "anonymous": false,
      "inputs": [
        {
          "indexed": true,
          "internalType": "address",
          "name": "owner",
          "type": "address"
        },
        {
          "indexed": true,
          "internalType": "address",
          "name": "operator",
          "type": "address"
        },
        {
          "indexed": false,
          "internalType": "bool",
          "name": "approved",
          "type": "bool"
        }
      ],
      "name": "ApprovalForAll",
      "type": "event"
    },
    {
      "anonymous": false,
      "inputs": [
        {
          "indexed": false,
          "internalType": "uint256",
          "name": "_fromTokenId",
          "type": "uint256"
        },
        {
          "indexed": false,
          "internalType": "uint256",
          "name": "_toTokenId",
          "type": "uint256"
        }
      ],
      "name": "BatchMetadataUpdate",
      "type": "event"
    },
    {
      "anonymous": false,
      "inputs": [
        {
          "indexed": false,
          "internalType": "uint256",
          "name": "_tokenId",
          "type": "uint256"
        }
      ],
      "name": "MetadataUpdate",
      "type": "event"
    },
    {
      "anonymous": false,
      "inputs": [
        {
          "indexed": true,
          "internalType": "address",
          "name": "previousOwner",
          "type": "address"
        },
        {
          "indexed": true,
          "internalType": "address",
          "name": "newOwner",
          "type": "address"
        }
      ],
      "name": "OwnershipTransferred",
      "type": "event"
    },
    {
      "anonymous": false,
      "inputs": [
        {
          "indexed": true,
          "internalType": "address",
          "name": "from",
          "type": "address"
        },
        {
          "indexed": true,
          "internalType": "address",
          "name": "to",
          "type": "address"
        },
        {
          "indexed": true,
          "internalType": "uint256",
          "name": "tokenId",
          "type": "uint256"
        }
      ],
      "name": "Transfer",
      "type": "event"
    },
    {
      "inputs": [],
      "name": "DISCOUNT_PRICE",
      "outputs": [
        {
          "internalType": "uint256",
          "name": "",
          "type": "uint256"
        }
      ],
      "stateMutability": "view",
      "type": "function"
    },
    {
      "inputs": [],
      "name": "DISCOUNT_THRESHOLD",
      "outputs": [
        {
          "internalType": "uint256",
          "name": "",
          "type": "uint256"
        }
      ],
      "stateMutability": "view",
      "type": "function"
    },
    {
      "inputs": [],
      "name": "MAX_MINTS_PER_WALLET",
      "outputs": [
        {
          "internalType": "uint256",
          "name": "",
          "type": "uint256"
        }
      ],
      "stateMutability": "view",
      "type": "function"
    },
    {
      "inputs": [],
      "name": "STANDARD_PRICE",
      "outputs": [
        {
          "internalType": "uint256",
          "name": "",
          "type": "uint256"
        }
      ],
      "stateMutability": "view",
      "type": "function"
    },
    {
      "inputs": [],
      "name": "alvaToken",
      "outputs": [
        {
          "internalType": "address",
          "name": "",
          "type": "address"
        }
      ],
      "stateMutability": "view",
      "type": "function"
    },
    {
      "inputs": [
        {
          "internalType": "address",
          "name": "to",
          "type": "address"
        },
        {
          "internalType": "uint256",
          "name": "tokenId",
          "type": "uint256"
        }
      ],
      "name": "approve",
      "outputs": [],
      "stateMutability": "nonpayable",
      "type": "function"
    },
    {
      "inputs": [
        {
          "internalType": "address",
          "name": "owner",
          "type": "address"
        }
      ],
      "name": "balanceOf",
      "outputs": [
        {
          "internalType": "uint256",
          "name": "",
          "type": "uint256"
        }
      ],
      "stateMutability": "view",
      "type": "function"
    },
    {
      "inputs": [],
      "name": "baseURI",
      "outputs": [
        {
          "internalType": "string",
          "name": "",
          "type": "string"
        }
      ],
      "stateMutability": "view",
      "type": "function"
    },
    {
      "inputs": [
        {
          "internalType": "uint256",
          "name": "tokenId",
          "type": "uint256"
        }
      ],
      "name": "getApproved",
      "outputs": [
        {
          "internalType": "address",
          "name": "",
          "type": "address"
        }
      ],
      "stateMutability": "view",
      "type": "function"
    },
    {
      "inputs": [
        {
          "internalType": "address",
          "name": "owner",
          "type": "address"
        },
        {
          "internalType": "address",
          "name": "operator",
          "type": "address"
        }
      ],
      "name": "isApprovedForAll",
      "outputs": [
        {
          "internalType": "bool",
          "name": "",
          "type": "bool"
        }
      ],
      "stateMutability": "view",
      "type": "function"
    },
    {
      "inputs": [
        {
          "internalType": "uint256",
          "name": "designId",
          "type": "uint256"
        }
      ],
      "name": "mint",
      "outputs": [],
      "stateMutability": "payable",
      "type": "function"
    },
    {
      "inputs": [],
      "name": "name",
      "outputs": [
        {
          "internalType": "string",
          "name": "",
          "type": "string"
        }
      ],
      "stateMutability": "view",
      "type": "function"
    },
    {
      "inputs": [],
      "name": "nextTokenId",
      "outputs": [
        {
          "internalType": "uint256",
          "name": "",
          "type": "uint256"
        }
      ],
      "stateMutability": "view",
      "type": "function"
    },
    {
      "inputs": [],
      "name": "owner",
      "outputs": [
        {
          "internalType": "address",
          "name": "",
          "type": "address"
        }
      ],
      "stateMutability": "view",
      "type": "function"
    },
    {
      "inputs": [
        {
          "internalType": "uint256",
          "name": "tokenId",
          "type": "uint256"
        }
      ],
      "name": "ownerOf",
      "outputs": [
        {
          "internalType": "address",
          "name": "",
          "type": "address"
        }
      ],
      "stateMutability": "view",
      "type": "function"
    },
    {
      "inputs": [],
      "name": "renounceOwnership",
      "outputs": [],
      "stateMutability": "nonpayable",
      "type": "function"
    },
    {
      "inputs": [
        {
          "internalType": "address",
          "name": "from",
          "type": "address"
        },
        {
          "internalType": "address",
          "name": "to",
          "type": "address"
        },
        {
          "internalType": "uint256",
          "name": "tokenId",
          "type": "uint256"
        }
      ],
      "name": "safeTransferFrom",
      "outputs": [],
      "stateMutability": "nonpayable",
      "type": "function"
    },
    {
      "inputs": [
        {
          "internalType": "address",
          "name": "from",
          "type": "address"
        },
        {
          "internalType": "address",
          "name": "to",
          "type": "address"
        },
        {
          "internalType": "uint256",
          "name": "tokenId",
          "type": "uint256"
        },
        {
          "internalType": "bytes",
          "name": "data",
          "type": "bytes"
        }
      ],
      "name": "safeTransferFrom",
      "outputs": [],
      "stateMutability": "nonpayable",
      "type": "function"
    },
    {
      "inputs": [
        {
          "internalType": "address",
          "name": "_alva",
          "type": "address"
        }
      ],
      "name": "setAlvaToken",
      "outputs": [],
      "stateMutability": "nonpayable",
      "type": "function"
    },
    {
      "inputs": [
        {
          "internalType": "address",
          "name": "operator",
          "type": "address"
        },
        {
          "internalType": "bool",
          "name": "approved",
          "type": "bool"
        }
      ],
      "name": "setApprovalForAll",
      "outputs": [],
      "stateMutability": "nonpayable",
      "type": "function"
    },
    {
      "inputs": [
        {
          "internalType": "string",
          "name": "newBaseURI",
          "type": "string"
        }
      ],
      "name": "setBaseURI",
      "outputs": [],
      "stateMutability": "nonpayable",
      "type": "function"
    },
    {
      "inputs": [
        {
          "internalType": "bytes4",
          "name": "interfaceId",
          "type": "bytes4"
        }
      ],
      "name": "supportsInterface",
      "outputs": [
        {
          "internalType": "bool",
          "name": "",
          "type": "bool"
        }
      ],
      "stateMutability": "view",
      "type": "function"
    },
    {
      "inputs": [],
      "name": "symbol",
      "outputs": [
        {
          "internalType": "string",
          "name": "",
          "type": "string"
        }
      ],
      "stateMutability": "view",
      "type": "function"
    },
    {
      "inputs": [
        {
          "internalType": "uint256",
          "name": "",
          "type": "uint256"
        }
      ],
      "name": "tokenDesign",
      "outputs": [
        {
          "internalType": "uint256",
          "name": "",
          "type": "uint256"
        }
      ],
      "stateMutability": "view",
      "type": "function"
    },
    {
      "inputs": [
        {
          "internalType": "uint256",
          "name": "tokenId",
          "type": "uint256"
        }
      ],
      "name": "tokenURI",
      "outputs": [
        {
          "internalType": "string",
          "name": "",
          "type": "string"
        }
      ],
      "stateMutability": "view",
      "type": "function"
    },
    {
      "inputs": [
        {
          "internalType": "address",
          "name": "from",
          "type": "address"
        },
        {
          "internalType": "address",
          "name": "to",
          "type": "address"
        },
        {
          "internalType": "uint256",
          "name": "tokenId",
          "type": "uint256"
        }
      ],
      "name": "transferFrom",
      "outputs": [],
      "stateMutability": "nonpayable",
      "type": "function"
    },
    {
      "inputs": [
        {
          "internalType": "address",
          "name": "newOwner",
          "type": "address"
        }
      ],
      "name": "transferOwnership",
      "outputs": [],
      "stateMutability": "nonpayable",
      "type": "function"
    },
    {
      "inputs": [
        {
          "internalType": "address",
          "name": "",
          "type": "address"
        }
      ],
      "name": "walletMints",
      "outputs": [
        {
          "internalType": "uint256",
          "name": "",
          "type": "uint256"
        }
      ],
      "stateMutability": "view",
      "type": "function"
    },
    {
      "inputs": [],
      "name": "withdraw",
      "outputs": [],
      "stateMutability": "nonpayable",
      "type": "function"
    }
  ],
  "bytecode": "0x600160095560e0604052602460808181529062001be260a039600c9062000027908262000214565b503480156200003557600080fd5b5060405162001c0638038062001c068339810160408190526200005891620002e0565b336040518060400160405280600a815260200169105b1d985c984813919560b21b81525060405180604001604052806004815260200163414c564160e01b8152508160009081620000aa919062000214565b506001620000b9828262000214565b5050506001600160a01b038116620000eb57604051631e4fbdf760e01b81526000600482015260240160405180910390fd5b620000f6816200011d565b50600880546001600160a01b0319166001600160a01b039290921691909117905562000312565b600780546001600160a01b038381166001600160a01b0319831681179093556040519116919082907f8be0079c531659141344cd1fd0a4f28419497f9722a3daafe3b4186f6b6457e090600090a35050565b634e487b7160e01b600052604160045260246000fd5b600181811c908216806200019a57607f821691505b602082108103620001bb57634e487b7160e01b600052602260045260246000fd5b50919050565b601f8211156200020f57600081815260208120601f850160051c81016020861015620001ea5750805b601f850160051c820191505b818110156200020b57828155600101620001f6565b5050505b505050565b81516001600160401b038111156200023057620002306200016f565b620002488162000241845462000185565b84620001c1565b602080601f831160018114620002805760008415620002675750858301515b600019600386901b1c1916600185901b1785556200020b565b600085815260208120601f198616915b82811015620002b15788860151825594840194600190910190840162000290565b5085821015620002d05787850151600019600388901b60f8161c191681555b5050505050600190811b01905550565b600060208284031215620002f357600080fd5b81516001600160a01b03811681146200030b57600080fd5b9392505050565b6118c080620003226000396000f3fe6080604052600436106101c25760003560e01c806370a08231116100f7578063a22cb46511610095578063e78fba2211610064578063e78fba22146104e1578063e985e9c5146104f6578063f0293fd314610516578063f2fde38b1461054357600080fd5b8063a22cb46514610461578063b88d4fde14610481578063c87b56dd146104a1578063e5aeb2aa146104c157600080fd5b80638c16d99e116100d15780638c16d99e146103fb5780638da5cb5b1461041b57806395d89b4114610439578063a0712d681461044e57600080fd5b806370a08231146103b0578063715018a6146103d057806375794a3c146103e557600080fd5b8063304495531161016457806355f804b31161013e57806355f804b3146103405780636352211e1461036057806369f66cb7146103805780636c0360eb1461039b57600080fd5b806330449553146102ee5780633ccfd60b1461030b57806342842e0e1461032057600080fd5b8063081812fc116101a0578063081812fc14610247578063095ea7b31461027f578063231efbe2146102a157806323b872dd146102ce57600080fd5b806301ffc9a7146101c7578063057707a0146101fc57806306fdde0314610225575b600080fd5b3480156101d357600080fd5b506101e76101e2366004611287565b610563565b60405190151581526020015b60405180910390f35b34801561020857600080fd5b506102176611c37937e0800081565b6040519081526020016101f3565b34801561023157600080fd5b5061023a61058e565b6040516101f391906112fb565b34801561025357600080fd5b5061026761026236600461130e565b610620565b6040516001600160a01b0390911681526020016101f3565b34801561028b57600080fd5b5061029f61029a366004611343565b610649565b005b3480156102ad57600080fd5b506102176102bc36600461130e565b600b6020526000908152604090205481565b3480156102da57600080fd5b5061029f6102e936600461136d565b610658565b3480156102fa57600080fd5b50610217680821ab0d441498000081565b34801561031757600080fd5b5061029f6106e8565b34801561032c57600080fd5b5061029f61033b36600461136d565b61072c565b34801561034c57600080fd5b5061029f61035b3660046113a9565b61074c565b34801561036c57600080fd5b5061026761037b36600461130e565b610761565b34801561038c57600080fd5b50610217662386f26fc1000081565b3480156103a757600080fd5b5061023a61076c565b3480156103bc57600080fd5b506102176103cb36600461141b565b61077b565b3480156103dc57600080fd5b5061029f6107c3565b3480156103f157600080fd5b5061021760095481565b34801561040757600080fd5b50600854610267906001600160a01b031681565b34801561042757600080fd5b506007546001600160a01b0316610267565b34801561044557600080fd5b5061023a6107d7565b61029f61045c36600461130e565b6107e6565b34801561046d57600080fd5b5061029f61047c366004611436565b6109d4565b34801561048d57600080fd5b5061029f61049c366004611488565b6109df565b3480156104ad57600080fd5b5061023a6104bc36600461130e565b6109f7565b3480156104cd57600080fd5b5061029f6104dc36600461141b565b610a94565b3480156104ed57600080fd5b50610217600381565b34801561050257600080fd5b506101e7610511366004611564565b610abe565b34801561052257600080fd5b5061021761053136600461141b565b600a6020526000908152604090205481565b34801561054f57600080fd5b5061029f61055e36600461141b565b610aec565b60006001600160e01b03198216632483248360e11b1480610588575061058882610b27565b92915050565b60606000805461059d90611597565b80601f01602080910402602001604051908101604052809291908181526020018280546105c990611597565b80156106165780601f106105eb57610100808354040283529160200191610616565b820191906000526020600020905b8154815290600101906020018083116105f957829003601f168201915b5050505050905090565b600061062b82610b77565b506000828152600460205260409020546001600160a01b0316610588565b610654828233610bb0565b5050565b6001600160a01b03821661068757604051633250574960e11b8152600060048201526024015b60405180910390fd5b6000610694838333610bbd565b9050836001600160a01b0316816001600160a01b0316146106e2576040516364283d7b60e01b81526001600160a01b038086166004830152602482018490528216604482015260640161067e565b50505050565b6106f0610cb6565b6007546040516001600160a01b03909116904780156108fc02916000818181858888f19350505050158015610729573d6000803e3d6000fd5b50565b610747838383604051806020016040528060008152506109df565b505050565b610754610cb6565b600c610747828483611617565b600061058882610b77565b6060600c805461059d90611597565b60006001600160a01b0382166107a7576040516322718ad960e21b81526000600482015260240161067e565b506001600160a01b031660009081526003602052604090205490565b6107cb610cb6565b6107d56000610ce3565b565b60606001805461059d90611597565b600181101580156107f85750600a8111155b6108355760405162461bcd60e51b815260206004820152600e60248201526d24b73b30b634b2103232b9b4b3b760911b604482015260640161067e565b336000908152600a60205260409020546003116108945760405162461bcd60e51b815260206004820152601c60248201527f4d6178206d696e7473207065722077616c6c6574207265616368656400000000604482015260640161067e565b6008546040516370a0823160e01b8152336004820152600091680821ab0d4414980000916001600160a01b03909116906370a0823190602401602060405180830381865afa1580156108ea573d6000803e3d6000fd5b505050506040513d601f19601f8201168201806040525081019061090e91906116d7565b1015905060008161092657662386f26fc1000061092f565b6611c37937e080005b9050803410156109795760405162461bcd60e51b8152602060048201526015602482015274125b9cdd59999a58da595b9d08115512081cd95b9d605a1b604482015260640161067e565b600980546000918261098a83611706565b91905055905061099a3382610d35565b6000818152600b60209081526040808320879055338352600a90915281208054600192906109c990849061171f565b909155505050505050565b610654338383610d4f565b6109ea848484610658565b6106e23385858585610dee565b6000818152600260205260409020546060906001600160a01b0316610a525760405162461bcd60e51b81526020600482015260116024820152702737b732bc34b9ba32b73a103a37b5b2b760791b604482015260640161067e565b6000828152600b6020526040902054600c610a6c82610f19565b604051602001610a7d929190611732565b604051602081830303815290604052915050919050565b610a9c610cb6565b600880546001600160a01b0319166001600160a01b0392909216919091179055565b6001600160a01b03918216600090815260056020908152604080832093909416825291909152205460ff1690565b610af4610cb6565b6001600160a01b038116610b1e57604051631e4fbdf760e01b81526000600482015260240161067e565b61072981610ce3565b60006001600160e01b031982166380ac58cd60e01b1480610b5857506001600160e01b03198216635b5e139f60e01b145b8061058857506301ffc9a760e01b6001600160e01b0319831614610588565b6000818152600260205260408120546001600160a01b03168061058857604051637e27328960e01b81526004810184905260240161067e565b6107478383836001611024565b6000828152600260205260408120546001600160a01b0390811690831615610bea57610bea81848661112a565b6001600160a01b03811615610c2857610c07600085600080611024565b6001600160a01b038116600090815260036020526040902080546000190190555b6001600160a01b03851615610c57576001600160a01b0385166000908152600360205260409020805460010190555b60008481526002602052604080822080546001600160a01b0319166001600160a01b0389811691821790925591518793918516917fddf252ad1be2c89b69c2b068fc378daa952ba7f163c4a11628f55a4df523b3ef91a4949350505050565b6007546001600160a01b031633146107d55760405163118cdaa760e01b815233600482015260240161067e565b600780546001600160a01b038381166001600160a01b0319831681179093556040519116919082907f8be0079c531659141344cd1fd0a4f28419497f9722a3daafe3b4186f6b6457e090600090a35050565b61065482826040518060200160405280600081525061118e565b6001600160a01b038216610d8157604051630b61174360e31b81526001600160a01b038316600482015260240161067e565b6001600160a01b03838116600081815260056020908152604080832094871680845294825291829020805460ff191686151590811790915591519182527f17307eab39ab6107e8899845ad3d59bd9653f200f220920489ca2b5937696c31910160405180910390a3505050565b6001600160a01b0383163b15610f1257604051630a85bd0160e11b81526001600160a01b0384169063150b7a0290610e309088908890879087906004016117c9565b6020604051808303816000875af1925050508015610e6b575060408051601f3d908101601f19168201909252610e6891810190611806565b60015b610ed4573d808015610e99576040519150601f19603f3d011682016040523d82523d6000602084013e610e9e565b606091505b508051600003610ecc57604051633250574960e11b81526001600160a01b038516600482015260240161067e565b805160208201fd5b6001600160e01b03198116630a85bd0160e11b14610f1057604051633250574960e11b81526001600160a01b038516600482015260240161067e565b505b5050505050565b606081600003610f405750506040805180820190915260018152600360fc1b602082015290565b8160005b8115610f6a5780610f5481611706565b9150610f639050600a83611839565b9150610f44565b60008167ffffffffffffffff811115610f8557610f85611472565b6040519080825280601f01601f191660200182016040528015610faf576020820181803683370190505b509050815b851561101b57610fc560018261184d565b9050610fd2600a87611860565b610fdd90603061171f565b60f81b828281518110610ff257610ff2611874565b60200101906001600160f81b031916908160001a905350611014600a87611839565b9550610fb4565b50949350505050565b808061103857506001600160a01b03821615155b156110fa57600061104884610b77565b90506001600160a01b038316158015906110745750826001600160a01b0316816001600160a01b031614155b801561108757506110858184610abe565b155b156110b05760405163a9fbf51f60e01b81526001600160a01b038416600482015260240161067e565b81156110f85783856001600160a01b0316826001600160a01b03167f8c5be1e5ebec7d5bd14f71427d1e84f3dd0314c0f7b2291e5b200ac8c7c3b92560405160405180910390a45b505b5050600090815260046020526040902080546001600160a01b0319166001600160a01b0392909216919091179055565b6111358383836111a6565b610747576001600160a01b03831661116357604051637e27328960e01b81526004810182905260240161067e565b60405163177e802f60e01b81526001600160a01b03831660048201526024810182905260440161067e565b611198838361120c565b610747336000858585610dee565b60006001600160a01b038316158015906112045750826001600160a01b0316846001600160a01b031614806111e057506111e08484610abe565b8061120457506000828152600460205260409020546001600160a01b038481169116145b949350505050565b6001600160a01b03821661123657604051633250574960e11b81526000600482015260240161067e565b600061124483836000610bbd565b90506001600160a01b03811615610747576040516339e3563760e11b81526000600482015260240161067e565b6001600160e01b03198116811461072957600080fd5b60006020828403121561129957600080fd5b81356112a481611271565b9392505050565b60005b838110156112c65781810151838201526020016112ae565b50506000910152565b600081518084526112e78160208601602086016112ab565b601f01601f19169290920160200192915050565b6020815260006112a460208301846112cf565b60006020828403121561132057600080fd5b5035919050565b80356001600160a01b038116811461133e57600080fd5b919050565b6000806040838503121561135657600080fd5b61135f83611327565b946020939093013593505050565b60008060006060848603121561138257600080fd5b61138b84611327565b925061139960208501611327565b9150604084013590509250925092565b600080602083850312156113bc57600080fd5b823567ffffffffffffffff808211156113d457600080fd5b818501915085601f8301126113e857600080fd5b8135818111156113f757600080fd5b86602082850101111561140957600080fd5b60209290920196919550909350505050565b60006020828403121561142d57600080fd5b6112a482611327565b6000806040838503121561144957600080fd5b61145283611327565b91506020830135801515811461146757600080fd5b809150509250929050565b634e487b7160e01b600052604160045260246000fd5b6000806000806080858703121561149e57600080fd5b6114a785611327565b93506114b560208601611327565b925060408501359150606085013567ffffffffffffffff808211156114d957600080fd5b818701915087601f8301126114ed57600080fd5b8135818111156114ff576114ff611472565b604051601f8201601f19908116603f0116810190838211818310171561152757611527611472565b816040528281528a602084870101111561154057600080fd5b82602086016020830137600060208483010152809550505050505092959194509250565b6000806040838503121561157757600080fd5b61158083611327565b915061158e60208401611327565b90509250929050565b600181811c908216806115ab57607f821691505b6020821081036115cb57634e487b7160e01b600052602260045260246000fd5b50919050565b601f82111561074757600081815260208120601f850160051c810160208610156115f85750805b601f850160051c820191505b81811015610f1057828155600101611604565b67ffffffffffffffff83111561162f5761162f611472565b6116438361163d8354611597565b836115d1565b6000601f841160018114611677576000851561165f5750838201355b600019600387901b1c1916600186901b178355610f12565b600083815260209020601f19861690835b828110156116a85786850135825560209485019460019092019101611688565b50868210156116c55760001960f88860031b161c19848701351681555b505060018560011b0183555050505050565b6000602082840312156116e957600080fd5b5051919050565b634e487b7160e01b600052601160045260246000fd5b600060018201611718576117186116f0565b5060010190565b80820180821115610588576105886116f0565b600080845461174081611597565b60018281168015611758576001811461176d5761179c565b60ff198416875282151583028701945061179c565b8860005260208060002060005b858110156117935781548a82015290840190820161177a565b50505082870194505b5050505083516117b08183602088016112ab565b64173539b7b760d91b9101908152600501949350505050565b6001600160a01b03858116825284166020820152604081018390526080606082018190526000906117fc908301846112cf565b9695505050505050565b60006020828403121561181857600080fd5b81516112a481611271565b634e487b7160e01b600052601260045260246000fd5b60008261184857611848611823565b500490565b81810381811115610588576105886116f0565b60008261186f5761186f611823565b500690565b634e487b7160e01b600052603260045260246000fdfea26469706673582212204652b0f049215e508160973bf8613c6093a730fac9ae5e1c800cdb5cf7767b1964736f6c6343000814003368747470733a2f2f6170692e616c766172612d6e66742e636f6d2f6d657461646174612f",
  "linkReferences": {},
  "deployedLinkReferences": {}
}