{
  "_format": "hh-sol-artifact-1",
  "contractName": "AlvaraMintIPFS",
  "sourceName": "contracts/AlvaraMintIPFS.sol",
  "abi": [
    {
      "inputs": [
        {
          "internalType": "address",
          "name": "_alvaToken",
          "type": "address"
        }
      ],
      "stateMutability": "nonpayable",
      "type": "constructor"
    },
    {
      "inputs": [
        {
          "internalType": "address",
          "name": "sender",
          "type": "address"
        },
        {
          "internalType": "uint256",
          "name": "tokenId",
          "type": "uint256"
        },
        {
          "internalType": "address",
          "name": "owner",
          "type": "address"
        }
      ],
      "name": "ERC721IncorrectOwner",
      "type": "error"
    },
    {
      "inputs": [
        {
          "internalType": "address",
          "name": "operator",
          "type": "address"
        },
        {
          "internalType": "uint256",
          "name": "tokenId",
          "type": "uint256"
        }
      ],
      "name": "ERC721InsufficientApproval",
      "type": "error"
    },
    {
      "inputs": [
        {
          "internalType": "address",
          "name": "approver",
          "type": "address"
        }
      ],
      "name": "ERC721InvalidApprover",
      "type": "error"
    },
    {
      "inputs": [
        {
          "internalType": "address",
          "name": "operator",
          "type": "address"
        }
      ],
      "name": "ERC721InvalidOperator",
      "type": "error"
    },
    {
      "inputs": [
        {
          "internalType": "address",
          "name": "owner",
          "type": "address"
        }
      ],
      "name": "ERC721InvalidOwner",
      "type": "error"
    },
    {
      "inputs": [
        {
          "internalType": "address",
          "name": "receiver",
          "type": "address"
        }
      ],
      "name": "ERC721InvalidReceiver",
      "type": "error"
    },
    {
      "inputs": [
        {
          "internalType": "address",
          "name": "sender",
          "type": "address"
        }
      ],
      "name": "ERC721InvalidSender",
      "type": "error"
    },
    {
      "inputs": [
        {
          "internalType": "uint256",
          "name": "tokenId",
          "type": "uint256"
        }
      ],
      "name": "ERC721NonexistentToken",
      "type": "error"
    },
    {
      "inputs": [
        {
          "internalType": "address",
          "name": "owner",
          "type": "address"
        }
      ],
      "name": "OwnableInvalidOwner",
      "type": "error"
    },
    {
      "inputs": [
        {
          "internalType": "address",
          "name": "account",
          "type": "address"
        }
      ],
      "name": "OwnableUnauthorizedAccount",
      "type": "error"
    },
    {
      "anonymous": false,
      "inputs": [
        {
          "indexed": true,
          "internalType": "address",
          "name": "owner",
          "type": "address"
        },
        {
          "indexed": true,
          "internalType": "address",
          "name": "approved",
          "type": "address"
        },
        {
          "indexed": true,
          "internalType": "uint256",
          "name": "tokenId",
          "type": "uint256"
        }
      ],
      "name": "Approval",
      "type": "event"
    },
    {
      "anonymous": false,
      "inputs": [
        {
          "indexed": true,
          "internalType": "address",
          "name": "owner",
          "type": "address"
        },
        {
          "indexed": true,
          "internalType": "address",
          "name": "operator",
          "type": "address"
        },
        {
          "indexed": false,
          "internalType": "bool",
          "name": "approved",
          "type": "bool"
        }
      ],
      "name": "ApprovalForAll",
      "type": "event"
    },
    {
      "anonymous": false,
      "inputs": [
        {
          "indexed": false,
          "internalType": "uint256",
          "name": "_fromTokenId",
          "type": "uint256"
        },
        {
          "indexed": false,
          "internalType": "uint256",
          "name": "_toTokenId",
          "type": "uint256"
        }
      ],
      "name": "BatchMetadataUpdate",
      "type": "event"
    },
    {
      "anonymous": false,
      "inputs": [
        {
          "indexed": false,
          "internalType": "uint256",
          "name": "_tokenId",
          "type": "uint256"
        }
      ],
      "name": "MetadataUpdate",
      "type": "event"
    },
    {
      "anonymous": false,
      "inputs": [
        {
          "indexed": true,
          "internalType": "address",
          "name": "previousOwner",
          "type": "address"
        },
        {
          "indexed": true,
          "internalType": "address",
          "name": "newOwner",
          "type": "address"
        }
      ],
      "name": "OwnershipTransferred",
      "type": "event"
    },
    {
      "anonymous": false,
      "inputs": [
        {
          "indexed": true,
          "internalType": "address",
          "name": "from",
          "type": "address"
        },
        {
          "indexed": true,
          "internalType": "address",
          "name": "to",
          "type": "address"
        },
        {
          "indexed": true,
          "internalType": "uint256",
          "name": "tokenId",
          "type": "uint256"
        }
      ],
      "name": "Transfer",
      "type": "event"
    },
    {
      "inputs": [],
      "name": "DISCOUNT_PRICE",
      "outputs": [
        {
          "internalType": "uint256",
          "name": "",
          "type": "uint256"
        }
      ],
      "stateMutability": "view",
      "type": "function"
    },
    {
      "inputs": [],
      "name": "DISCOUNT_THRESHOLD",
      "outputs": [
        {
          "internalType": "uint256",
          "name": "",
          "type": "uint256"
        }
      ],
      "stateMutability": "view",
      "type": "function"
    },
    {
      "inputs": [],
      "name": "STANDARD_PRICE",
      "outputs": [
        {
          "internalType": "uint256",
          "name": "",
          "type": "uint256"
        }
      ],
      "stateMutability": "view",
      "type": "function"
    },
    {
      "inputs": [],
      "name": "alvaToken",
      "outputs": [
        {
          "internalType": "address",
          "name": "",
          "type": "address"
        }
      ],
      "stateMutability": "view",
      "type": "function"
    },
    {
      "inputs": [
        {
          "internalType": "address",
          "name": "to",
          "type": "address"
        },
        {
          "internalType": "uint256",
          "name": "tokenId",
          "type": "uint256"
        }
      ],
      "name": "approve",
      "outputs": [],
      "stateMutability": "nonpayable",
      "type": "function"
    },
    {
      "inputs": [
        {
          "internalType": "address",
          "name": "owner",
          "type": "address"
        }
      ],
      "name": "balanceOf",
      "outputs": [
        {
          "internalType": "uint256",
          "name": "",
          "type": "uint256"
        }
      ],
      "stateMutability": "view",
      "type": "function"
    },
    {
      "inputs": [
        {
          "internalType": "uint256",
          "name": "",
          "type": "uint256"
        }
      ],
      "name": "designMetadataHash",
      "outputs": [
        {
          "internalType": "string",
          "name": "",
          "type": "string"
        }
      ],
      "stateMutability": "view",
      "type": "function"
    },
    {
      "inputs": [
        {
          "internalType": "uint256",
          "name": "tokenId",
          "type": "uint256"
        }
      ],
      "name": "getApproved",
      "outputs": [
        {
          "internalType": "address",
          "name": "",
          "type": "address"
        }
      ],
      "stateMutability": "view",
      "type": "function"
    },
    {
      "inputs": [
        {
          "internalType": "address",
          "name": "owner",
          "type": "address"
        },
        {
          "internalType": "address",
          "name": "operator",
          "type": "address"
        }
      ],
      "name": "isApprovedForAll",
      "outputs": [
        {
          "internalType": "bool",
          "name": "",
          "type": "bool"
        }
      ],
      "stateMutability": "view",
      "type": "function"
    },
    {
      "inputs": [
        {
          "internalType": "uint256",
          "name": "designId",
          "type": "uint256"
        }
      ],
      "name": "mint",
      "outputs": [],
      "stateMutability": "payable",
      "type": "function"
    },
    {
      "inputs": [],
      "name": "name",
      "outputs": [
        {
          "internalType": "string",
          "name": "",
          "type": "string"
        }
      ],
      "stateMutability": "view",
      "type": "function"
    },
    {
      "inputs": [],
      "name": "nextTokenId",
      "outputs": [
        {
          "internalType": "uint256",
          "name": "",
          "type": "uint256"
        }
      ],
      "stateMutability": "view",
      "type": "function"
    },
    {
      "inputs": [],
      "name": "owner",
      "outputs": [
        {
          "internalType": "address",
          "name": "",
          "type": "address"
        }
      ],
      "stateMutability": "view",
      "type": "function"
    },
    {
      "inputs": [
        {
          "internalType": "uint256",
          "name": "tokenId",
          "type": "uint256"
        }
      ],
      "name": "ownerOf",
      "outputs": [
        {
          "internalType": "address",
          "name": "",
          "type": "address"
        }
      ],
      "stateMutability": "view",
      "type": "function"
    },
    {
      "inputs": [],
      "name": "renounceOwnership",
      "outputs": [],
      "stateMutability": "nonpayable",
      "type": "function"
    },
    {
      "inputs": [
        {
          "internalType": "address",
          "name": "from",
          "type": "address"
        },
        {
          "internalType": "address",
          "name": "to",
          "type": "address"
        },
        {
          "internalType": "uint256",
          "name": "tokenId",
          "type": "uint256"
        }
      ],
      "name": "safeTransferFrom",
      "outputs": [],
      "stateMutability": "nonpayable",
      "type": "function"
    },
    {
      "inputs": [
        {
          "internalType": "address",
          "name": "from",
          "type": "address"
        },
        {
          "internalType": "address",
          "name": "to",
          "type": "address"
        },
        {
          "internalType": "uint256",
          "name": "tokenId",
          "type": "uint256"
        },
        {
          "internalType": "bytes",
          "name": "data",
          "type": "bytes"
        }
      ],
      "name": "safeTransferFrom",
      "outputs": [],
      "stateMutability": "nonpayable",
      "type": "function"
    },
    {
      "inputs": [
        {
          "internalType": "address",
          "name": "_alva",
          "type": "address"
        }
      ],
      "name": "setAlvaToken",
      "outputs": [],
      "stateMutability": "nonpayable",
      "type": "function"
    },
    {
      "inputs": [
        {
          "internalType": "address",
          "name": "operator",
          "type": "address"
        },
        {
          "internalType": "bool",
          "name": "approved",
          "type": "bool"
        }
      ],
      "name": "setApprovalForAll",
      "outputs": [],
      "stateMutability": "nonpayable",
      "type": "function"
    },
    {
      "inputs": [
        {
          "internalType": "bytes4",
          "name": "interfaceId",
          "type": "bytes4"
        }
      ],
      "name": "supportsInterface",
      "outputs": [
        {
          "internalType": "bool",
          "name": "",
          "type": "bool"
        }
      ],
      "stateMutability": "view",
      "type": "function"
    },
    {
      "inputs": [],
      "name": "symbol",
      "outputs": [
        {
          "internalType": "string",
          "name": "",
          "type": "string"
        }
      ],
      "stateMutability": "view",
      "type": "function"
    },
    {
      "inputs": [
        {
          "internalType": "uint256",
          "name": "",
          "type": "uint256"
        }
      ],
      "name": "tokenDesign",
      "outputs": [
        {
          "internalType": "uint256",
          "name": "",
          "type": "uint256"
        }
      ],
      "stateMutability": "view",
      "type": "function"
    },
    {
      "inputs": [
        {
          "internalType": "uint256",
          "name": "tokenId",
          "type": "uint256"
        }
      ],
      "name": "tokenURI",
      "outputs": [
        {
          "internalType": "string",
          "name": "",
          "type": "string"
        }
      ],
      "stateMutability": "view",
      "type": "function"
    },
    {
      "inputs": [
        {
          "internalType": "address",
          "name": "from",
          "type": "address"
        },
        {
          "internalType": "address",
          "name": "to",
          "type": "address"
        },
        {
          "internalType": "uint256",
          "name": "tokenId",
          "type": "uint256"
        }
      ],
      "name": "transferFrom",
      "outputs": [],
      "stateMutability": "nonpayable",
      "type": "function"
    },
    {
      "inputs": [
        {
          "internalType": "address",
          "name": "newOwner",
          "type": "address"
        }
      ],
      "name": "transferOwnership",
      "outputs": [],
      "stateMutability": "nonpayable",
      "type": "function"
    },
    {
      "inputs": [
        {
          "internalType": "uint256",
          "name": "designId",
          "type": "uint256"
        },
        {
          "internalType": "string",
          "name": "newHash",
          "type": "string"
        }
      ],
      "name": "updateDesignMetadata",
      "outputs": [],
      "stateMutability": "nonpayable",
      "type": "function"
    },
    {
      "inputs": [
        {
          "internalType": "address",
          "name": "",
          "type": "address"
        }
      ],
      "name": "walletMints",
      "outputs": [
        {
          "internalType": "uint256",
          "name": "",
          "type": "uint256"
        }
      ],
      "stateMutability": "view",
      "type": "function"
    },
    {
      "inputs": [],
      "name": "withdraw",
      "outputs": [],
      "stateMutability": "nonpayable",
      "type": "function"
    }
  ],
  "bytecode": "0x608060405260016009553480156200001657600080fd5b50604051620037b4380380620037b483398181016040528101906200003c919062000530565b336040518060400160405280600a81526020017f416c76617261204e4654000000000000000000000000000000000000000000008152506040518060400160405280600481526020017f414c5641000000000000000000000000000000000000000000000000000000008152508160009081620000ba9190620007dc565b508060019081620000cc9190620007dc565b505050600073ffffffffffffffffffffffffffffffffffffffff168173ffffffffffffffffffffffffffffffffffffffff1603620001445760006040517f1e4fbdf70000000000000000000000000000000000000000000000000000000081526004016200013b9190620008d4565b60405180910390fd5b62000155816200040060201b60201c565b5080600860006101000a81548173ffffffffffffffffffffffffffffffffffffffff021916908373ffffffffffffffffffffffffffffffffffffffff1602179055506040518060600160405280602e8152602001620036ce602e9139600c6000600181526020019081526020016000209081620001d39190620007dc565b506040518060600160405280602e815260200162003644602e9139600c6000600281526020019081526020016000209081620002109190620007dc565b506040518060600160405280602e815260200162003616602e9139600c60006003815260200190815260200160002090816200024d9190620007dc565b506040518060600160405280602e8152602001620036a0602e9139600c60006004815260200190815260200160002090816200028a9190620007dc565b506040518060600160405280602e8152602001620036fc602e9139600c6000600581526020019081526020016000209081620002c79190620007dc565b506040518060600160405280602e81526020016200372a602e9139600c6000600681526020019081526020016000209081620003049190620007dc565b506040518060600160405280602e815260200162003758602e9139600c6000600781526020019081526020016000209081620003419190620007dc565b506040518060600160405280602e8152602001620035e8602e9139600c60006008815260200190815260200160002090816200037e9190620007dc565b506040518060600160405280602e815260200162003786602e9139600c6000600981526020019081526020016000209081620003bb9190620007dc565b506040518060600160405280602e815260200162003672602e9139600c6000600a81526020019081526020016000209081620003f89190620007dc565b5050620008f1565b6000600760009054906101000a900473ffffffffffffffffffffffffffffffffffffffff16905081600760006101000a81548173ffffffffffffffffffffffffffffffffffffffff021916908373ffffffffffffffffffffffffffffffffffffffff1602179055508173ffffffffffffffffffffffffffffffffffffffff168173ffffffffffffffffffffffffffffffffffffffff167f8be0079c531659141344cd1fd0a4f28419497f9722a3daafe3b4186f6b6457e060405160405180910390a35050565b600080fd5b600073ffffffffffffffffffffffffffffffffffffffff82169050919050565b6000620004f882620004cb565b9050919050565b6200050a81620004eb565b81146200051657600080fd5b50565b6000815190506200052a81620004ff565b92915050565b600060208284031215620005495762000548620004c6565b5b6000620005598482850162000519565b91505092915050565b600081519050919050565b7f4e487b7100000000000000000000000000000000000000000000000000000000600052604160045260246000fd5b7f4e487b7100000000000000000000000000000000000000000000000000000000600052602260045260246000fd5b60006002820490506001821680620005e457607f821691505b602082108103620005fa57620005f96200059c565b5b50919050565b60008190508160005260206000209050919050565b60006020601f8301049050919050565b600082821b905092915050565b600060088302620006647fffffffffffffffffffffffffffffffffffffffffffffffffffffffffffffffff8262000625565b62000670868362000625565b95508019841693508086168417925050509392505050565b6000819050919050565b6000819050919050565b6000620006bd620006b7620006b18462000688565b62000692565b62000688565b9050919050565b6000819050919050565b620006d9836200069c565b620006f1620006e882620006c4565b84845462000632565b825550505050565b600090565b62000708620006f9565b62000715818484620006ce565b505050565b5b818110156200073d5762000731600082620006fe565b6001810190506200071b565b5050565b601f8211156200078c57620007568162000600565b620007618462000615565b8101602085101562000771578190505b62000789620007808562000615565b8301826200071a565b50505b505050565b600082821c905092915050565b6000620007b16000198460080262000791565b1980831691505092915050565b6000620007cc83836200079e565b9150826002028217905092915050565b620007e78262000562565b67ffffffffffffffff8111156200080357620008026200056d565b5b6200080f8254620005cb565b6200081c82828562000741565b600060209050601f8311600181146200085457600084156200083f578287015190505b6200084b8582620007be565b865550620008bb565b601f198416620008648662000600565b60005b828110156200088e5784890151825560018201915060208501945060208101905062000867565b86831015620008ae5784890151620008aa601f8916826200079e565b8355505b6001600288020188555050505b505050505050565b620008ce81620004eb565b82525050565b6000602082019050620008eb6000830184620008c3565b92915050565b612ce780620009016000396000f3fe6080604052600436106101b75760003560e01c8063715018a6116100ec578063b88d4fde1161008a578063e5aeb2aa11610064578063e5aeb2aa146105ff578063e985e9c514610628578063f0293fd314610665578063f2fde38b146106a2576101b7565b8063b88d4fde1461055c578063c87b56dd14610585578063df00d56f146105c2576101b7565b80638da5cb5b116100c65780638da5cb5b146104c157806395d89b41146104ec578063a0712d6814610517578063a22cb46514610533576101b7565b8063715018a61461045457806375794a3c1461046b5780638c16d99e14610496576101b7565b806330449553116101595780635b55a2a6116101335780635b55a2a6146103865780636352211e146103af57806369f66cb7146103ec57806370a0823114610417576101b7565b8063304495531461031b5780633ccfd60b1461034657806342842e0e1461035d576101b7565b8063081812fc11610195578063081812fc1461024f578063095ea7b31461028c578063231efbe2146102b557806323b872dd146102f2576101b7565b806301ffc9a7146101bc578063057707a0146101f957806306fdde0314610224575b600080fd5b3480156101c857600080fd5b506101e360048036038101906101de9190611f78565b6106cb565b6040516101f09190611fc0565b60405180910390f35b34801561020557600080fd5b5061020e61072c565b60405161021b9190611ff4565b60405180910390f35b34801561023057600080fd5b50610239610736565b604051610246919061209f565b60405180910390f35b34801561025b57600080fd5b50610276600480360381019061027191906120ed565b6107c8565b604051610283919061215b565b60405180910390f35b34801561029857600080fd5b506102b360048036038101906102ae91906121a2565b6107e4565b005b3480156102c157600080fd5b506102dc60048036038101906102d791906120ed565b6107fa565b6040516102e99190611ff4565b60405180910390f35b3480156102fe57600080fd5b50610319600480360381019061031491906121e2565b610812565b005b34801561032757600080fd5b50610330610914565b60405161033d9190611ff4565b60405180910390f35b34801561035257600080fd5b5061035b610921565b005b34801561036957600080fd5b50610384600480360381019061037f91906121e2565b610979565b005b34801561039257600080fd5b506103ad60048036038101906103a8919061229a565b610999565b005b3480156103bb57600080fd5b506103d660048036038101906103d191906120ed565b610a1a565b6040516103e3919061215b565b60405180910390f35b3480156103f857600080fd5b50610401610a2c565b60405161040e9190611ff4565b60405180910390f35b34801561042357600080fd5b5061043e600480360381019061043991906122fa565b610a37565b60405161044b9190611ff4565b60405180910390f35b34801561046057600080fd5b50610469610af1565b005b34801561047757600080fd5b50610480610b05565b60405161048d9190611ff4565b60405180910390f35b3480156104a257600080fd5b506104ab610b0b565b6040516104b8919061215b565b60405180910390f35b3480156104cd57600080fd5b506104d6610b31565b6040516104e3919061215b565b60405180910390f35b3480156104f857600080fd5b50610501610b5b565b60405161050e919061209f565b60405180910390f35b610531600480360381019061052c91906120ed565b610bed565b005b34801561053f57600080fd5b5061055a60048036038101906105559190612353565b610de5565b005b34801561056857600080fd5b50610583600480360381019061057e91906124c3565b610dfb565b005b34801561059157600080fd5b506105ac60048036038101906105a791906120ed565b610e20565b6040516105b9919061209f565b60405180910390f35b3480156105ce57600080fd5b506105e960048036038101906105e491906120ed565b610f7a565b6040516105f6919061209f565b60405180910390f35b34801561060b57600080fd5b50610626600480360381019061062191906122fa565b61101a565b005b34801561063457600080fd5b5061064f600480360381019061064a9190612546565b611066565b60405161065c9190611fc0565b60405180910390f35b34801561067157600080fd5b5061068c600480360381019061068791906122fa565b6110fa565b6040516106999190611ff4565b60405180910390f35b3480156106ae57600080fd5b506106c960048036038101906106c491906122fa565b611112565b005b6000634906490660e01b7bffffffffffffffffffffffffffffffffffffffffffffffffffffffff1916827bffffffffffffffffffffffffffffffffffffffffffffffffffffffff19161480610725575061072482611198565b5b9050919050565b65fa1c6d50300081565b606060008054610745906125b5565b80601f0160208091040260200160405190810160405280929190818152602001828054610771906125b5565b80156107be5780601f10610793576101008083540402835291602001916107be565b820191906000526020600020905b8154815290600101906020018083116107a157829003601f168201915b5050505050905090565b60006107d38261127a565b506107dd82611302565b9050919050565b6107f682826107f161133f565b611347565b5050565b600b6020528060005260406000206000915090505481565b600073ffffffffffffffffffffffffffffffffffffffff168273ffffffffffffffffffffffffffffffffffffffff16036108845760006040517f64a0ae9200000000000000000000000000000000000000000000000000000000815260040161087b919061215b565b60405180910390fd5b6000610898838361089361133f565b611359565b90508373ffffffffffffffffffffffffffffffffffffffff168173ffffffffffffffffffffffffffffffffffffffff161461090e578382826040517f64283d7b000000000000000000000000000000000000000000000000000000008152600401610905939291906125e6565b60405180910390fd5b50505050565b680821ab0d441498000081565b610929611573565b610931610b31565b73ffffffffffffffffffffffffffffffffffffffff166108fc479081150290604051600060405180830381858888f19350505050158015610976573d6000803e3d6000fd5b50565b61099483838360405180602001604052806000815250610dfb565b505050565b6109a1611573565b600183101580156109b35750600a8311155b6109f2576040517f08c379a00000000000000000000000000000000000000000000000000000000081526004016109e990612669565b60405180910390fd5b8181600c60008681526020019081526020016000209182610a14929190612840565b50505050565b6000610a258261127a565b9050919050565b6601f438daa0600081565b60008073ffffffffffffffffffffffffffffffffffffffff168273ffffffffffffffffffffffffffffffffffffffff1603610aaa5760006040517f89c62b64000000000000000000000000000000000000000000000000000000008152600401610aa1919061215b565b60405180910390fd5b600360008373ffffffffffffffffffffffffffffffffffffffff1673ffffffffffffffffffffffffffffffffffffffff168152602001908152602001600020549050919050565b610af9611573565b610b0360006115fa565b565b60095481565b600860009054906101000a900473ffffffffffffffffffffffffffffffffffffffff1681565b6000600760009054906101000a900473ffffffffffffffffffffffffffffffffffffffff16905090565b606060018054610b6a906125b5565b80601f0160208091040260200160405190810160405280929190818152602001828054610b96906125b5565b8015610be35780601f10610bb857610100808354040283529160200191610be3565b820191906000526020600020905b815481529060010190602001808311610bc657829003601f168201915b5050505050905090565b60018110158015610bff5750600a8111155b610c3e576040517f08c379a0000000000000000000000000000000000000000000000000000000008152600401610c3590612669565b60405180910390fd5b6000680821ab0d4414980000600860009054906101000a900473ffffffffffffffffffffffffffffffffffffffff1673ffffffffffffffffffffffffffffffffffffffff166370a08231336040518263ffffffff1660e01b8152600401610ca5919061215b565b602060405180830381865afa158015610cc2573d6000803e3d6000fd5b505050506040513d601f19601f82011682018060405250810190610ce69190612925565b10159050600081610cfe576601f438daa06000610d06565b65fa1c6d5030005b905080341015610d4b576040517f08c379a0000000000000000000000000000000000000000000000000000000008152600401610d429061299e565b60405180910390fd5b600060096000815480929190610d60906129ed565b919050559050610d7033826116c0565b83600b6000838152602001908152602001600020819055506001600a60003373ffffffffffffffffffffffffffffffffffffffff1673ffffffffffffffffffffffffffffffffffffffff1681526020019081526020016000206000828254610dd89190612a35565b9250508190555050505050565b610df7610df061133f565b83836116de565b5050565b610e06848484610812565b610e1a610e1161133f565b8585858561184d565b50505050565b6060600073ffffffffffffffffffffffffffffffffffffffff16610e43836119fe565b73ffffffffffffffffffffffffffffffffffffffff1603610e99576040517f08c379a0000000000000000000000000000000000000000000000000000000008152600401610e9090612ab5565b60405180910390fd5b6000600b60008481526020019081526020016000205490506000600c60008381526020019081526020016000208054610ed1906125b5565b80601f0160208091040260200160405190810160405280929190818152602001828054610efd906125b5565b8015610f4a5780601f10610f1f57610100808354040283529160200191610f4a565b820191906000526020600020905b815481529060010190602001808311610f2d57829003601f168201915b5050505050905080604051602001610f629190612b83565b60405160208183030381529060405292505050919050565b600c6020528060005260406000206000915090508054610f99906125b5565b80601f0160208091040260200160405190810160405280929190818152602001828054610fc5906125b5565b80156110125780601f10610fe757610100808354040283529160200191611012565b820191906000526020600020905b815481529060010190602001808311610ff557829003601f168201915b505050505081565b611022611573565b80600860006101000a81548173ffffffffffffffffffffffffffffffffffffffff021916908373ffffffffffffffffffffffffffffffffffffffff16021790555050565b6000600560008473ffffffffffffffffffffffffffffffffffffffff1673ffffffffffffffffffffffffffffffffffffffff16815260200190815260200160002060008373ffffffffffffffffffffffffffffffffffffffff1673ffffffffffffffffffffffffffffffffffffffff16815260200190815260200160002060009054906101000a900460ff16905092915050565b600a6020528060005260406000206000915090505481565b61111a611573565b600073ffffffffffffffffffffffffffffffffffffffff168173ffffffffffffffffffffffffffffffffffffffff160361118c5760006040517f1e4fbdf7000000000000000000000000000000000000000000000000000000008152600401611183919061215b565b60405180910390fd5b611195816115fa565b50565b60007f80ac58cd000000000000000000000000000000000000000000000000000000007bffffffffffffffffffffffffffffffffffffffffffffffffffffffff1916827bffffffffffffffffffffffffffffffffffffffffffffffffffffffff1916148061126357507f5b5e139f000000000000000000000000000000000000000000000000000000007bffffffffffffffffffffffffffffffffffffffffffffffffffffffff1916827bffffffffffffffffffffffffffffffffffffffffffffffffffffffff1916145b80611273575061127282611a3b565b5b9050919050565b600080611286836119fe565b9050600073ffffffffffffffffffffffffffffffffffffffff168173ffffffffffffffffffffffffffffffffffffffff16036112f957826040517f7e2732890000000000000000000000000000000000000000000000000000000081526004016112f09190611ff4565b60405180910390fd5b80915050919050565b60006004600083815260200190815260200160002060009054906101000a900473ffffffffffffffffffffffffffffffffffffffff169050919050565b600033905090565b6113548383836001611aa5565b505050565b600080611365846119fe565b9050600073ffffffffffffffffffffffffffffffffffffffff168373ffffffffffffffffffffffffffffffffffffffff16146113a7576113a6818486611c6a565b5b600073ffffffffffffffffffffffffffffffffffffffff168173ffffffffffffffffffffffffffffffffffffffff1614611438576113e9600085600080611aa5565b6001600360008373ffffffffffffffffffffffffffffffffffffffff1673ffffffffffffffffffffffffffffffffffffffff168152602001908152602001600020600082825403925050819055505b600073ffffffffffffffffffffffffffffffffffffffff168573ffffffffffffffffffffffffffffffffffffffff16146114bb576001600360008773ffffffffffffffffffffffffffffffffffffffff1673ffffffffffffffffffffffffffffffffffffffff168152602001908152602001600020600082825401925050819055505b846002600086815260200190815260200160002060006101000a81548173ffffffffffffffffffffffffffffffffffffffff021916908373ffffffffffffffffffffffffffffffffffffffff160217905550838573ffffffffffffffffffffffffffffffffffffffff168273ffffffffffffffffffffffffffffffffffffffff167fddf252ad1be2c89b69c2b068fc378daa952ba7f163c4a11628f55a4df523b3ef60405160405180910390a4809150509392505050565b61157b61133f565b73ffffffffffffffffffffffffffffffffffffffff16611599610b31565b73ffffffffffffffffffffffffffffffffffffffff16146115f8576115bc61133f565b6040517f118cdaa70000000000000000000000000000000000000000000000000000000081526004016115ef919061215b565b60405180910390fd5b565b6000600760009054906101000a900473ffffffffffffffffffffffffffffffffffffffff16905081600760006101000a81548173ffffffffffffffffffffffffffffffffffffffff021916908373ffffffffffffffffffffffffffffffffffffffff1602179055508173ffffffffffffffffffffffffffffffffffffffff168173ffffffffffffffffffffffffffffffffffffffff167f8be0079c531659141344cd1fd0a4f28419497f9722a3daafe3b4186f6b6457e060405160405180910390a35050565b6116da828260405180602001604052806000815250611d2e565b5050565b600073ffffffffffffffffffffffffffffffffffffffff168273ffffffffffffffffffffffffffffffffffffffff160361174f57816040517f5b08ba18000000000000000000000000000000000000000000000000000000008152600401611746919061215b565b60405180910390fd5b80600560008573ffffffffffffffffffffffffffffffffffffffff1673ffffffffffffffffffffffffffffffffffffffff16815260200190815260200160002060008473ffffffffffffffffffffffffffffffffffffffff1673ffffffffffffffffffffffffffffffffffffffff16815260200190815260200160002060006101000a81548160ff0219169083151502179055508173ffffffffffffffffffffffffffffffffffffffff168373ffffffffffffffffffffffffffffffffffffffff167f17307eab39ab6107e8899845ad3d59bd9653f200f220920489ca2b5937696c31836040516118409190611fc0565b60405180910390a3505050565b60008373ffffffffffffffffffffffffffffffffffffffff163b11156119f7578273ffffffffffffffffffffffffffffffffffffffff1663150b7a02868685856040518563ffffffff1660e01b81526004016118ac9493929190612bfa565b6020604051808303816000875af19250505080156118e857506040513d601f19601f820116820180604052508101906118e59190612c5b565b60015b61196c573d8060008114611918576040519150601f19603f3d011682016040523d82523d6000602084013e61191d565b606091505b50600081510361196457836040517f64a0ae9200000000000000000000000000000000000000000000000000000000815260040161195b919061215b565b60405180910390fd5b805160208201fd5b63150b7a0260e01b7bffffffffffffffffffffffffffffffffffffffffffffffffffffffff1916817bffffffffffffffffffffffffffffffffffffffffffffffffffffffff1916146119f557836040517f64a0ae920000000000000000000000000000000000000000000000000000000081526004016119ec919061215b565b60405180910390fd5b505b5050505050565b60006002600083815260200190815260200160002060009054906101000a900473ffffffffffffffffffffffffffffffffffffffff169050919050565b60007f01ffc9a7000000000000000000000000000000000000000000000000000000007bffffffffffffffffffffffffffffffffffffffffffffffffffffffff1916827bffffffffffffffffffffffffffffffffffffffffffffffffffffffff1916149050919050565b8080611ade5750600073ffffffffffffffffffffffffffffffffffffffff168273ffffffffffffffffffffffffffffffffffffffff1614155b15611c12576000611aee8461127a565b9050600073ffffffffffffffffffffffffffffffffffffffff168373ffffffffffffffffffffffffffffffffffffffff1614158015611b5957508273ffffffffffffffffffffffffffffffffffffffff168173ffffffffffffffffffffffffffffffffffffffff1614155b8015611b6c5750611b6a8184611066565b155b15611bae57826040517fa9fbf51f000000000000000000000000000000000000000000000000000000008152600401611ba5919061215b565b60405180910390fd5b8115611c1057838573ffffffffffffffffffffffffffffffffffffffff168273ffffffffffffffffffffffffffffffffffffffff167f8c5be1e5ebec7d5bd14f71427d1e84f3dd0314c0f7b2291e5b200ac8c7c3b92560405160405180910390a45b505b836004600085815260200190815260200160002060006101000a81548173ffffffffffffffffffffffffffffffffffffffff021916908373ffffffffffffffffffffffffffffffffffffffff16021790555050505050565b611c75838383611d52565b611d2957600073ffffffffffffffffffffffffffffffffffffffff168373ffffffffffffffffffffffffffffffffffffffff1603611cea57806040517f7e273289000000000000000000000000000000000000000000000000000000008152600401611ce19190611ff4565b60405180910390fd5b81816040517f177e802f000000000000000000000000000000000000000000000000000000008152600401611d20929190612c88565b60405180910390fd5b505050565b611d388383611e13565b611d4d611d4361133f565b600085858561184d565b505050565b60008073ffffffffffffffffffffffffffffffffffffffff168373ffffffffffffffffffffffffffffffffffffffff1614158015611e0a57508273ffffffffffffffffffffffffffffffffffffffff168473ffffffffffffffffffffffffffffffffffffffff161480611dcb5750611dca8484611066565b5b80611e0957508273ffffffffffffffffffffffffffffffffffffffff16611df183611302565b73ffffffffffffffffffffffffffffffffffffffff16145b5b90509392505050565b600073ffffffffffffffffffffffffffffffffffffffff168273ffffffffffffffffffffffffffffffffffffffff1603611e855760006040517f64a0ae92000000000000000000000000000000000000000000000000000000008152600401611e7c919061215b565b60405180910390fd5b6000611e9383836000611359565b9050600073ffffffffffffffffffffffffffffffffffffffff168173ffffffffffffffffffffffffffffffffffffffff1614611f075760006040517f73c6ac6e000000000000000000000000000000000000000000000000000000008152600401611efe919061215b565b60405180910390fd5b505050565b6000604051905090565b600080fd5b600080fd5b60007fffffffff0000000000000000000000000000000000000000000000000000000082169050919050565b611f5581611f20565b8114611f6057600080fd5b50565b600081359050611f7281611f4c565b92915050565b600060208284031215611f8e57611f8d611f16565b5b6000611f9c84828501611f63565b91505092915050565b60008115159050919050565b611fba81611fa5565b82525050565b6000602082019050611fd56000830184611fb1565b92915050565b6000819050919050565b611fee81611fdb565b82525050565b60006020820190506120096000830184611fe5565b92915050565b600081519050919050565b600082825260208201905092915050565b60005b8381101561204957808201518184015260208101905061202e565b60008484015250505050565b6000601f19601f8301169050919050565b60006120718261200f565b61207b818561201a565b935061208b81856020860161202b565b61209481612055565b840191505092915050565b600060208201905081810360008301526120b98184612066565b905092915050565b6120ca81611fdb565b81146120d557600080fd5b50565b6000813590506120e7816120c1565b92915050565b60006020828403121561210357612102611f16565b5b6000612111848285016120d8565b91505092915050565b600073ffffffffffffffffffffffffffffffffffffffff82169050919050565b60006121458261211a565b9050919050565b6121558161213a565b82525050565b6000602082019050612170600083018461214c565b92915050565b61217f8161213a565b811461218a57600080fd5b50565b60008135905061219c81612176565b92915050565b600080604083850312156121b9576121b8611f16565b5b60006121c78582860161218d565b92505060206121d8858286016120d8565b9150509250929050565b6000806000606084860312156121fb576121fa611f16565b5b60006122098682870161218d565b935050602061221a8682870161218d565b925050604061222b868287016120d8565b9150509250925092565b600080fd5b600080fd5b600080fd5b60008083601f84011261225a57612259612235565b5b8235905067ffffffffffffffff8111156122775761227661223a565b5b6020830191508360018202830111156122935761229261223f565b5b9250929050565b6000806000604084860312156122b3576122b2611f16565b5b60006122c1868287016120d8565b935050602084013567ffffffffffffffff8111156122e2576122e1611f1b565b5b6122ee86828701612244565b92509250509250925092565b6000602082840312156123105761230f611f16565b5b600061231e8482850161218d565b91505092915050565b61233081611fa5565b811461233b57600080fd5b50565b60008135905061234d81612327565b92915050565b6000806040838503121561236a57612369611f16565b5b60006123788582860161218d565b92505060206123898582860161233e565b9150509250929050565b600080fd5b7f4e487b7100000000000000000000000000000000000000000000000000000000600052604160045260246000fd5b6123d082612055565b810181811067ffffffffffffffff821117156123ef576123ee612398565b5b80604052505050565b6000612402611f0c565b905061240e82826123c7565b919050565b600067ffffffffffffffff82111561242e5761242d612398565b5b61243782612055565b9050602081019050919050565b82818337600083830152505050565b600061246661246184612413565b6123f8565b90508281526020810184848401111561248257612481612393565b5b61248d848285612444565b509392505050565b600082601f8301126124aa576124a9612235565b5b81356124ba848260208601612453565b91505092915050565b600080600080608085870312156124dd576124dc611f16565b5b60006124eb8782880161218d565b94505060206124fc8782880161218d565b935050604061250d878288016120d8565b925050606085013567ffffffffffffffff81111561252e5761252d611f1b565b5b61253a87828801612495565b91505092959194509250565b6000806040838503121561255d5761255c611f16565b5b600061256b8582860161218d565b925050602061257c8582860161218d565b9150509250929050565b7f4e487b7100000000000000000000000000000000000000000000000000000000600052602260045260246000fd5b600060028204905060018216806125cd57607f821691505b6020821081036125e0576125df612586565b5b50919050565b60006060820190506125fb600083018661214c565b6126086020830185611fe5565b612615604083018461214c565b949350505050565b7f496e76616c69642064657369676e000000000000000000000000000000000000600082015250565b6000612653600e8361201a565b915061265e8261261d565b602082019050919050565b6000602082019050818103600083015261268281612646565b9050919050565b600082905092915050565b60008190508160005260206000209050919050565b60006020601f8301049050919050565b600082821b905092915050565b6000600883026126f67fffffffffffffffffffffffffffffffffffffffffffffffffffffffffffffffff826126b9565b61270086836126b9565b95508019841693508086168417925050509392505050565b6000819050919050565b600061273d61273861273384611fdb565b612718565b611fdb565b9050919050565b6000819050919050565b61275783612722565b61276b61276382612744565b8484546126c6565b825550505050565b600090565b612780612773565b61278b81848461274e565b505050565b5b818110156127af576127a4600082612778565b600181019050612791565b5050565b601f8211156127f4576127c581612694565b6127ce846126a9565b810160208510156127dd578190505b6127f16127e9856126a9565b830182612790565b50505b505050565b600082821c905092915050565b6000612817600019846008026127f9565b1980831691505092915050565b60006128308383612806565b9150826002028217905092915050565b61284a8383612689565b67ffffffffffffffff81111561286357612862612398565b5b61286d82546125b5565b6128788282856127b3565b6000601f8311600181146128a75760008415612895578287013590505b61289f8582612824565b865550612907565b601f1984166128b586612694565b60005b828110156128dd578489013582556001820191506020850194506020810190506128b8565b868310156128fa57848901356128f6601f891682612806565b8355505b6001600288020188555050505b50505050505050565b60008151905061291f816120c1565b92915050565b60006020828403121561293b5761293a611f16565b5b600061294984828501612910565b91505092915050565b7f496e73756666696369656e74204554482073656e740000000000000000000000600082015250565b600061298860158361201a565b915061299382612952565b602082019050919050565b600060208201905081810360008301526129b78161297b565b9050919050565b7f4e487b7100000000000000000000000000000000000000000000000000000000600052601160045260246000fd5b60006129f882611fdb565b91507fffffffffffffffffffffffffffffffffffffffffffffffffffffffffffffffff8203612a2a57612a296129be565b5b600182019050919050565b6000612a4082611fdb565b9150612a4b83611fdb565b9250828201905080821115612a6357612a626129be565b5b92915050565b7f4e6f6e6578697374656e7420746f6b656e000000000000000000000000000000600082015250565b6000612a9f60118361201a565b9150612aaa82612a69565b602082019050919050565b60006020820190508181036000830152612ace81612a92565b9050919050565b600081905092915050565b7f68747470733a2f2f676174657761792e70696e6174612e636c6f75642f69706660008201527f732f000000000000000000000000000000000000000000000000000000000000602082015250565b6000612b3c602283612ad5565b9150612b4782612ae0565b602282019050919050565b6000612b5d8261200f565b612b678185612ad5565b9350612b7781856020860161202b565b80840191505092915050565b6000612b8e82612b2f565b9150612b9a8284612b52565b915081905092915050565b600081519050919050565b600082825260208201905092915050565b6000612bcc82612ba5565b612bd68185612bb0565b9350612be681856020860161202b565b612bef81612055565b840191505092915050565b6000608082019050612c0f600083018761214c565b612c1c602083018661214c565b612c296040830185611fe5565b8181036060830152612c3b8184612bc1565b905095945050505050565b600081519050612c5581611f4c565b92915050565b600060208284031215612c7157612c70611f16565b5b6000612c7f84828501612c46565b91505092915050565b6000604082019050612c9d600083018561214c565b612caa6020830184611fe5565b939250505056fea2646970667358221220c11c048b035fe641badbbfaf53ae08df1bf8929ebf45ae66d4dd8d9c5c9166e364736f6c63430008140033516d617961694a44753972395477663567357678644d367442733670615557314b7735746679316a47336b614637516d526b625074394b67777142597263577044643377344346585a727a6d4a53624d524850616155736d694d3339516d5a59674d6b6b76416f473234545a6d6b424862455a7371456a6661635545435046367367696e463359753372516d5668423244764534766f717045623432707464564a41396d704e6a6957756f554452636a523243414a515468516d5575356b366a4c33344b3255757476726264504656464d6a55394a7a324e6f637554573135755031446a3778516d58636931565a576a774a416d593238757553507043746657673242417432504c6a465a704335513554387272516d56786b50445a45426437345856696d7850704e74576a504a364e7646666e5a7263357576503342546d4c3743516d5633376e74663441366f466f51746f755238726a6a6b424c6269744d50766544717056333370347359716851516d524744584577415731797a6b747651694d636334414e753476513377423654345a414635423454545a695962516d5365516f5841464c43693941504e317036354d3868704a6b663248417331347875667a735761744573733972",
  "linkReferences": {},
  "deployedLinkReferences": {}
}