{"src/MockUniswapV4Router.sol":{"MockUniswapV4Router":{"abi":[{"inputs":[{"internalType":"uint256","name":"amountOutMin","type":"uint256"},{"internalType":"address","name":"tokenOut","type":"address"},{"internalType":"address","name":"to","type":"address"},{"internalType":"uint256","name":"deadline","type":"uint256"}],"name":"swapExactETHForTokensSupportingFeeOnTransferTokens","outputs":[],"stateMutability":"payable","type":"function"},{"stateMutability":"payable","type":"receive"}],"evm":{"bytecode":{"linkReferences":{},"object":"608060405234801561001057600080fd5b506101ee806100206000396000f3fe6080604052600436106100225760003560e01c80630e5d3ae21461002e57600080fd5b3661002957005b600080fd5b61004161003c366004610120565b610043565b005b6000610051346103e8610164565b60405163a9059cbb60e01b81526001600160a01b038581166004830152602482018390529192509085169063a9059cbb906044016020604051808303816000875af11580156100a4573d6000803e3d6000fd5b505050506040513d601f19601f820116820180604052508101906100c8919061018f565b5047156100fd5760405133904780156108fc02916000818181858888f193505050501580156100fb573d6000803e3d6000fd5b505b5050505050565b80356001600160a01b038116811461011b57600080fd5b919050565b6000806000806080858703121561013657600080fd5b8435935061014660208601610104565b925061015460408601610104565b9396929550929360600135925050565b808202811582820484141761018957634e487b7160e01b600052601160045260246000fd5b92915050565b6000602082840312156101a157600080fd5b815180151581146101b157600080fd5b939250505056fea26469706673582212204ab0a764e414dda9f419541a544ea63a1de9f5db09bdd2382aac2c5e92465fab64736f6c63430008140033","opcodes":"PUSH1 0x80 PUSH1 0x40 MSTORE CALLVALUE DUP1 ISZERO PUSH2 0x10 JUMPI PUSH1 0x0 DUP1 REVERT JUMPDEST POP PUSH2 0x1EE DUP1 PUSH2 0x20 PUSH1 0x0 CODECOPY PUSH1 0x0 RETURN INVALID PUSH1 0x80 PUSH1 0x40 MSTORE PUSH1 0x4 CALLDATASIZE LT PUSH2 0x22 JUMPI PUSH1 0x0 CALLDATALOAD PUSH1 0xE0 SHR DUP1 PUSH4 0xE5D3AE2 EQ PUSH2 0x2E JUMPI PUSH1 0x0 DUP1 REVERT JUMPDEST CALLDATASIZE PUSH2 0x29 JUMPI STOP JUMPDEST PUSH1 0x0 DUP1 REVERT JUMPDEST PUSH2 0x41 PUSH2 0x3C CALLDATASIZE PUSH1 0x4 PUSH2 0x120 JUMP JUMPDEST PUSH2 0x43 JUMP JUMPDEST STOP JUMPDEST PUSH1 0x0 PUSH2 0x51 CALLVALUE PUSH2 0x3E8 PUSH2 0x164 JUMP JUMPDEST PUSH1 0x40 MLOAD PUSH4 0xA9059CBB PUSH1 0xE0 SHL DUP2 MSTORE PUSH1 0x1 PUSH1 0x1 PUSH1 0xA0 SHL SUB DUP6 DUP2 AND PUSH1 0x4 DUP4 ADD MSTORE PUSH1 0x24 DUP3 ADD DUP4 SWAP1 MSTORE SWAP2 SWAP3 POP SWAP1 DUP6 AND SWAP1 PUSH4 0xA9059CBB SWAP1 PUSH1 0x44 ADD PUSH1 0x20 PUSH1 0x40 MLOAD DUP1 DUP4 SUB DUP2 PUSH1 0x0 DUP8 GAS CALL ISZERO DUP1 ISZERO PUSH2 0xA4 JUMPI RETURNDATASIZE PUSH1 0x0 DUP1 RETURNDATACOPY RETURNDATASIZE PUSH1 0x0 REVERT JUMPDEST POP POP POP POP PUSH1 0x40 MLOAD RETURNDATASIZE PUSH1 0x1F NOT PUSH1 0x1F DUP3 ADD AND DUP3 ADD DUP1 PUSH1 0x40 MSTORE POP DUP2 ADD SWAP1 PUSH2 0xC8 SWAP2 SWAP1 PUSH2 0x18F JUMP JUMPDEST POP SELFBALANCE ISZERO PUSH2 0xFD JUMPI PUSH1 0x40 MLOAD CALLER SWAP1 SELFBALANCE DUP1 ISZERO PUSH2 0x8FC MUL SWAP2 PUSH1 0x0 DUP2 DUP2 DUP2 DUP6 DUP9 DUP9 CALL SWAP4 POP POP POP POP ISZERO DUP1 ISZERO PUSH2 0xFB JUMPI RETURNDATASIZE PUSH1 0x0 DUP1 RETURNDATACOPY RETURNDATASIZE PUSH1 0x0 REVERT JUMPDEST POP JUMPDEST POP POP POP POP POP JUMP JUMPDEST DUP1 CALLDATALOAD PUSH1 0x1 PUSH1 0x1 PUSH1 0xA0 SHL SUB DUP2 AND DUP2 EQ PUSH2 0x11B JUMPI PUSH1 0x0 DUP1 REVERT JUMPDEST SWAP2 SWAP1 POP JUMP JUMPDEST PUSH1 0x0 DUP1 PUSH1 0x0 DUP1 PUSH1 0x80 DUP6 DUP8 SUB SLT ISZERO PUSH2 0x136 JUMPI PUSH1 0x0 DUP1 REVERT JUMPDEST DUP5 CALLDATALOAD SWAP4 POP PUSH2 0x146 PUSH1 0x20 DUP7 ADD PUSH2 0x104 JUMP JUMPDEST SWAP3 POP PUSH2 0x154 PUSH1 0x40 DUP7 ADD PUSH2 0x104 JUMP JUMPDEST SWAP4 SWAP7 SWAP3 SWAP6 POP SWAP3 SWAP4 PUSH1 0x60 ADD CALLDATALOAD SWAP3 POP POP JUMP JUMPDEST DUP1 DUP3 MUL DUP2 ISZERO DUP3 DUP3 DIV DUP5 EQ OR PUSH2 0x189 JUMPI PUSH4 0x4E487B71 PUSH1 0xE0 SHL PUSH1 0x0 MSTORE PUSH1 0x11 PUSH1 0x4 MSTORE PUSH1 0x24 PUSH1 0x0 REVERT JUMPDEST SWAP3 SWAP2 POP POP JUMP JUMPDEST PUSH1 0x0 PUSH1 0x20 DUP3 DUP5 SUB SLT ISZERO PUSH2 0x1A1 JUMPI PUSH1 0x0 DUP1 REVERT JUMPDEST DUP2 MLOAD DUP1 ISZERO ISZERO DUP2 EQ PUSH2 0x1B1 JUMPI PUSH1 0x0 DUP1 REVERT JUMPDEST SWAP4 SWAP3 POP POP POP JUMP INVALID LOG2 PUSH5 0x6970667358 0x22 SLT KECCAK256 0x4A 0xB0 0xA7 PUSH5 0xE414DDA9F4 NOT SLOAD BYTE SLOAD 0x4E 0xA6 GASPRICE SAR 0xE9 CREATE2 0xDB MULMOD 0xBD 0xD2 CODESIZE 0x2A 0xAC 0x2C 0x5E SWAP3 CHAINID PUSH0 0xAB PUSH5 0x736F6C6343 STOP ADDMOD EQ STOP CALLER "},"methodIdentifiers":{"swapExactETHForTokensSupportingFeeOnTransferTokens(uint256,address,address,uint256)":"0e5d3ae2"}}}}}