{
  "_format": "hh-sol-artifact-1",
  "contractName": "AlvaraNFT",
  "sourceName": "src/AlvaraNFT.sol",
  "abi": [
    {
      "inputs": [
        {
          "internalType": "address",
          "name": "_alvaToken",
          "type": "address"
        },
        {
          "internalType": "address",
          "name": "_veALVAToken",
          "type": "address"
        },
        {
          "internalType": "address",
          "name": "_wethToken",
          "type": "address"
        },
        {
          "internalType": "address",
          "name": "_swapRouter",
          "type": "address"
        }
      ],
      "stateMutability": "nonpayable",
      "type": "constructor"
    },
    {
      "inputs": [
        {
          "internalType": "address",
          "name": "sender",
          "type": "address"
        },
        {
          "internalType": "uint256",
          "name": "tokenId",
          "type": "uint256"
        },
        {
          "internalType": "address",
          "name": "owner",
          "type": "address"
        }
      ],
      "name": "ERC721IncorrectOwner",
      "type": "error"
    },
    {
      "inputs": [
        {
          "internalType": "address",
          "name": "operator",
          "type": "address"
        },
        {
          "internalType": "uint256",
          "name": "tokenId",
          "type": "uint256"
        }
      ],
      "name": "ERC721InsufficientApproval",
      "type": "error"
    },
    {
      "inputs": [
        {
          "internalType": "address",
          "name": "approver",
          "type": "address"
        }
      ],
      "name": "ERC721InvalidApprover",
      "type": "error"
    },
    {
      "inputs": [
        {
          "internalType": "address",
          "name": "operator",
          "type": "address"
        }
      ],
      "name": "ERC721InvalidOperator",
      "type": "error"
    },
    {
      "inputs": [
        {
          "internalType": "address",
          "name": "owner",
          "type": "address"
        }
      ],
      "name": "ERC721InvalidOwner",
      "type": "error"
    },
    {
      "inputs": [
        {
          "internalType": "address",
          "name": "receiver",
          "type": "address"
        }
      ],
      "name": "ERC721InvalidReceiver",
      "type": "error"
    },
    {
      "inputs": [
        {
          "internalType": "address",
          "name": "sender",
          "type": "address"
        }
      ],
      "name": "ERC721InvalidSender",
      "type": "error"
    },
    {
      "inputs": [
        {
          "internalType": "uint256",
          "name": "tokenId",
          "type": "uint256"
        }
      ],
      "name": "ERC721NonexistentToken",
      "type": "error"
    },
    {
      "inputs": [
        {
          "internalType": "address",
          "name": "owner",
          "type": "address"
        }
      ],
      "name": "OwnableInvalidOwner",
      "type": "error"
    },
    {
      "inputs": [
        {
          "internalType": "address",
          "name": "account",
          "type": "address"
        }
      ],
      "name": "OwnableUnauthorizedAccount",
      "type": "error"
    },
    {
      "inputs": [],
      "name": "ReentrancyGuardReentrantCall",
      "type": "error"
    },
    {
      "anonymous": false,
      "inputs": [
        {
          "indexed": true,
          "internalType": "address",
          "name": "owner",
          "type": "address"
        },
        {
          "indexed": true,
          "internalType": "address",
          "name": "approved",
          "type": "address"
        },
        {
          "indexed": true,
          "internalType": "uint256",
          "name": "tokenId",
          "type": "uint256"
        }
      ],
      "name": "Approval",
      "type": "event"
    },
    {
      "anonymous": false,
      "inputs": [
        {
          "indexed": true,
          "internalType": "address",
          "name": "owner",
          "type": "address"
        },
        {
          "indexed": true,
          "internalType": "address",
          "name": "operator",
          "type": "address"
        },
        {
          "indexed": false,
          "internalType": "bool",
          "name": "approved",
          "type": "bool"
        }
      ],
      "name": "ApprovalForAll",
      "type": "event"
    },
    {
      "anonymous": false,
      "inputs": [
        {
          "indexed": false,
          "internalType": "uint256",
          "name": "_fromTokenId",
          "type": "uint256"
        },
        {
          "indexed": false,
          "internalType": "uint256",
          "name": "_toTokenId",
          "type": "uint256"
        }
      ],
      "name": "BatchMetadataUpdate",
      "type": "event"
    },
    {
      "anonymous": false,
      "inputs": [
        {
          "indexed": false,
          "internalType": "uint256",
          "name": "_tokenId",
          "type": "uint256"
        }
      ],
      "name": "MetadataUpdate",
      "type": "event"
    },
    {
      "anonymous": false,
      "inputs": [
        {
          "indexed": true,
          "internalType": "address",
          "name": "previousOwner",
          "type": "address"
        },
        {
          "indexed": true,
          "internalType": "address",
          "name": "newOwner",
          "type": "address"
        }
      ],
      "name": "OwnershipTransferStarted",
      "type": "event"
    },
    {
      "anonymous": false,
      "inputs": [
        {
          "indexed": true,
          "internalType": "address",
          "name": "previousOwner",
          "type": "address"
        },
        {
          "indexed": true,
          "internalType": "address",
          "name": "newOwner",
          "type": "address"
        }
      ],
      "name": "OwnershipTransferred",
      "type": "event"
    },
    {
      "anonymous": false,
      "inputs": [
        {
          "indexed": false,
          "internalType": "uint24",
          "name": "newPoolFee",
          "type": "uint24"
        }
      ],
      "name": "PoolFeeUpdated",
      "type": "event"
    },
    {
      "anonymous": false,
      "inputs": [
        {
          "indexed": false,
          "internalType": "uint256",
          "name": "newPrice",
          "type": "uint256"
        }
      ],
      "name": "PriceUpdated",
      "type": "event"
    },
    {
      "anonymous": false,
      "inputs": [
        {
          "indexed": true,
          "internalType": "address",
          "name": "user",
          "type": "address"
        },
        {
          "indexed": false,
          "internalType": "uint256",
          "name": "ethIn",
          "type": "uint256"
        },
        {
          "indexed": false,
          "internalType": "uint256",
          "name": "alvaOut",
          "type": "uint256"
        }
      ],
      "name": "SwapExecuted",
      "type": "event"
    },
    {
      "anonymous": false,
      "inputs": [
        {
          "indexed": true,
          "internalType": "address",
          "name": "from",
          "type": "address"
        },
        {
          "indexed": true,
          "internalType": "address",
          "name": "to",
          "type": "address"
        },
        {
          "indexed": true,
          "internalType": "uint256",
          "name": "tokenId",
          "type": "uint256"
        }
      ],
      "name": "Transfer",
      "type": "event"
    },
    {
      "inputs": [],
      "name": "acceptOwnership",
      "outputs": [],
      "stateMutability": "nonpayable",
      "type": "function"
    },
    {
      "inputs": [],
      "name": "alvaToken",
      "outputs": [
        {
          "internalType": "address",
          "name": "",
          "type": "address"
        }
      ],
      "stateMutability": "view",
      "type": "function"
    },
    {
      "inputs": [
        {
          "internalType": "address",
          "name": "to",
          "type": "address"
        },
        {
          "internalType": "uint256",
          "name": "tokenId",
          "type": "uint256"
        }
      ],
      "name": "approve",
      "outputs": [],
      "stateMutability": "nonpayable",
      "type": "function"
    },
    {
      "inputs": [
        {
          "internalType": "address",
          "name": "owner",
          "type": "address"
        }
      ],
      "name": "balanceOf",
      "outputs": [
        {
          "internalType": "uint256",
          "name": "",
          "type": "uint256"
        }
      ],
      "stateMutability": "view",
      "type": "function"
    },
    {
      "inputs": [],
      "name": "baseURI",
      "outputs": [
        {
          "internalType": "string",
          "name": "",
          "type": "string"
        }
      ],
      "stateMutability": "view",
      "type": "function"
    },
    {
      "inputs": [],
      "name": "defaultPoolFee",
      "outputs": [
        {
          "internalType": "uint24",
          "name": "",
          "type": "uint24"
        }
      ],
      "stateMutability": "view",
      "type": "function"
    },
    {
      "inputs": [
        {
          "internalType": "uint256",
          "name": "tokenId",
          "type": "uint256"
        }
      ],
      "name": "getApproved",
      "outputs": [
        {
          "internalType": "address",
          "name": "",
          "type": "address"
        }
      ],
      "stateMutability": "view",
      "type": "function"
    },
    {
      "inputs": [],
      "name": "getDiscountPrice",
      "outputs": [
        {
          "internalType": "uint256",
          "name": "",
          "type": "uint256"
        }
      ],
      "stateMutability": "view",
      "type": "function"
    },
    {
      "inputs": [
        {
          "internalType": "address",
          "name": "user",
          "type": "address"
        }
      ],
      "name": "hasVeALVA",
      "outputs": [
        {
          "internalType": "bool",
          "name": "",
          "type": "bool"
        }
      ],
      "stateMutability": "view",
      "type": "function"
    },
    {
      "inputs": [
        {
          "internalType": "address",
          "name": "owner",
          "type": "address"
        },
        {
          "internalType": "address",
          "name": "operator",
          "type": "address"
        }
      ],
      "name": "isApprovedForAll",
      "outputs": [
        {
          "internalType": "bool",
          "name": "",
          "type": "bool"
        }
      ],
      "stateMutability": "view",
      "type": "function"
    },
    {
      "inputs": [],
      "name": "maxMintsPerWallet",
      "outputs": [
        {
          "internalType": "uint256",
          "name": "",
          "type": "uint256"
        }
      ],
      "stateMutability": "view",
      "type": "function"
    },
    {
      "inputs": [
        {
          "internalType": "string",
          "name": "designId",
          "type": "string"
        },
        {
          "internalType": "uint256",
          "name": "swapDeadline",
          "type": "uint256"
        },
        {
          "internalType": "uint256",
          "name": "swapMinOutput",
          "type": "uint256"
        },
        {
          "internalType": "uint24",
          "name": "swapPoolFeeTier",
          "type": "uint24"
        }
      ],
      "name": "mint",
      "outputs": [],
      "stateMutability": "payable",
      "type": "function"
    },
    {
      "inputs": [],
      "name": "name",
      "outputs": [
        {
          "internalType": "string",
          "name": "",
          "type": "string"
        }
      ],
      "stateMutability": "view",
      "type": "function"
    },
    {
      "inputs": [],
      "name": "nextTokenId",
      "outputs": [
        {
          "internalType": "uint256",
          "name": "",
          "type": "uint256"
        }
      ],
      "stateMutability": "view",
      "type": "function"
    },
    {
      "inputs": [],
      "name": "owner",
      "outputs": [
        {
          "internalType": "address",
          "name": "",
          "type": "address"
        }
      ],
      "stateMutability": "view",
      "type": "function"
    },
    {
      "inputs": [
        {
          "internalType": "uint256",
          "name": "tokenId",
          "type": "uint256"
        }
      ],
      "name": "ownerOf",
      "outputs": [
        {
          "internalType": "address",
          "name": "",
          "type": "address"
        }
      ],
      "stateMutability": "view",
      "type": "function"
    },
    {
      "inputs": [],
      "name": "pendingOwner",
      "outputs": [
        {
          "internalType": "address",
          "name": "",
          "type": "address"
        }
      ],
      "stateMutability": "view",
      "type": "function"
    },
    {
      "inputs": [],
      "name": "renounceOwnership",
      "outputs": [],
      "stateMutability": "nonpayable",
      "type": "function"
    },
    {
      "inputs": [
        {
          "internalType": "address",
          "name": "from",
          "type": "address"
        },
        {
          "internalType": "address",
          "name": "to",
          "type": "address"
        },
        {
          "internalType": "uint256",
          "name": "tokenId",
          "type": "uint256"
        }
      ],
      "name": "safeTransferFrom",
      "outputs": [],
      "stateMutability": "nonpayable",
      "type": "function"
    },
    {
      "inputs": [
        {
          "internalType": "address",
          "name": "from",
          "type": "address"
        },
        {
          "internalType": "address",
          "name": "to",
          "type": "address"
        },
        {
          "internalType": "uint256",
          "name": "tokenId",
          "type": "uint256"
        },
        {
          "internalType": "bytes",
          "name": "data",
          "type": "bytes"
        }
      ],
      "name": "safeTransferFrom",
      "outputs": [],
      "stateMutability": "nonpayable",
      "type": "function"
    },
    {
      "inputs": [
        {
          "internalType": "address",
          "name": "operator",
          "type": "address"
        },
        {
          "internalType": "bool",
          "name": "approved",
          "type": "bool"
        }
      ],
      "name": "setApprovalForAll",
      "outputs": [],
      "stateMutability": "nonpayable",
      "type": "function"
    },
    {
      "inputs": [
        {
          "internalType": "string",
          "name": "newBaseURI",
          "type": "string"
        }
      ],
      "name": "setBaseURI",
      "outputs": [],
      "stateMutability": "nonpayable",
      "type": "function"
    },
    {
      "inputs": [
        {
          "internalType": "uint24",
          "name": "newPoolFee",
          "type": "uint24"
        }
      ],
      "name": "setDefaultPoolFee",
      "outputs": [],
      "stateMutability": "nonpayable",
      "type": "function"
    },
    {
      "inputs": [
        {
          "internalType": "uint256",
          "name": "newPrice",
          "type": "uint256"
        }
      ],
      "name": "setStandardPrice",
      "outputs": [],
      "stateMutability": "nonpayable",
      "type": "function"
    },
    {
      "inputs": [],
      "name": "standardPrice",
      "outputs": [
        {
          "internalType": "uint256",
          "name": "",
          "type": "uint256"
        }
      ],
      "stateMutability": "view",
      "type": "function"
    },
    {
      "inputs": [
        {
          "internalType": "bytes4",
          "name": "interfaceId",
          "type": "bytes4"
        }
      ],
      "name": "supportsInterface",
      "outputs": [
        {
          "internalType": "bool",
          "name": "",
          "type": "bool"
        }
      ],
      "stateMutability": "view",
      "type": "function"
    },
    {
      "inputs": [],
      "name": "swapRouter",
      "outputs": [
        {
          "internalType": "contract ISwapRouter",
          "name": "",
          "type": "address"
        }
      ],
      "stateMutability": "view",
      "type": "function"
    },
    {
      "inputs": [],
      "name": "symbol",
      "outputs": [
        {
          "internalType": "string",
          "name": "",
          "type": "string"
        }
      ],
      "stateMutability": "view",
      "type": "function"
    },
    {
      "inputs": [
        {
          "internalType": "uint256",
          "name": "tokenId",
          "type": "uint256"
        }
      ],
      "name": "tokenDesign",
      "outputs": [
        {
          "internalType": "string",
          "name": "designId",
          "type": "string"
        }
      ],
      "stateMutability": "view",
      "type": "function"
    },
    {
      "inputs": [
        {
          "internalType": "uint256",
          "name": "tokenId",
          "type": "uint256"
        }
      ],
      "name": "tokenURI",
      "outputs": [
        {
          "internalType": "string",
          "name": "",
          "type": "string"
        }
      ],
      "stateMutability": "view",
      "type": "function"
    },
    {
      "inputs": [
        {
          "internalType": "address",
          "name": "from",
          "type": "address"
        },
        {
          "internalType": "address",
          "name": "to",
          "type": "address"
        },
        {
          "internalType": "uint256",
          "name": "tokenId",
          "type": "uint256"
        }
      ],
      "name": "transferFrom",
      "outputs": [],
      "stateMutability": "nonpayable",
      "type": "function"
    },
    {
      "inputs": [
        {
          "internalType": "address",
          "name": "newOwner",
          "type": "address"
        }
      ],
      "name": "transferOwnership",
      "outputs": [],
      "stateMutability": "nonpayable",
      "type": "function"
    },
    {
      "inputs": [],
      "name": "veALVAToken",
      "outputs": [
        {
          "internalType": "address",
          "name": "",
          "type": "address"
        }
      ],
      "stateMutability": "view",
      "type": "function"
    },
    {
      "inputs": [
        {
          "internalType": "address",
          "name": "user",
          "type": "address"
        }
      ],
      "name": "walletMints",
      "outputs": [
        {
          "internalType": "uint256",
          "name": "mintCount",
          "type": "uint256"
        }
      ],
      "stateMutability": "view",
      "type": "function"
    },
    {
      "inputs": [],
      "name": "wethToken",
      "outputs": [
        {
          "internalType": "address",
          "name": "",
          "type": "address"
        }
      ],
      "stateMutability": "view",
      "type": "function"
    },
    {
      "stateMutability": "payable",
      "type": "receive"
    }
  ],
  "bytecode": "0x66038d7ea4c68000600a556001600b55600c805462ffffff1916610bb81790556003600d556101a06040526071610100818152906200230861012039600e906200004a908262000259565b503480156200005857600080fd5b5060405162002379380380620023798339810160408190526200007b9162000342565b336040518060400160405280600a815260200169105b1d985c984813919560b21b81525060405180604001604052806004815260200163414c564160e01b8152508160009081620000cd919062000259565b506001620000dc828262000259565b5050506001600160a01b0381166200010e57604051631e4fbdf760e01b81526000600482015260240160405180910390fd5b620001198162000142565b5060016009556001600160a01b0393841660805291831660a052821660c0521660e0526200039f565b600880546001600160a01b03191690556200015d8162000160565b50565b600780546001600160a01b038381166001600160a01b0319831681179093556040519116919082907f8be0079c531659141344cd1fd0a4f28419497f9722a3daafe3b4186f6b6457e090600090a35050565b634e487b7160e01b600052604160045260246000fd5b600181811c90821680620001dd57607f821691505b602082108103620001fe57634e487b7160e01b600052602260045260246000fd5b50919050565b601f82111562000254576000816000526020600020601f850160051c810160208610156200022f5750805b601f850160051c820191505b8181101562000250578281556001016200023b565b5050505b505050565b81516001600160401b03811115620002755762000275620001b2565b6200028d81620002868454620001c8565b8462000204565b602080601f831160018114620002c55760008415620002ac5750858301515b600019600386901b1c1916600185901b17855562000250565b600085815260208120601f198616915b82811015620002f657888601518255948401946001909101908401620002d5565b5085821015620003155787850151600019600388901b60f8161c191681555b5050505050600190811b01905550565b80516001600160a01b03811681146200033d57600080fd5b919050565b600080600080608085870312156200035957600080fd5b620003648562000325565b9350620003746020860162000325565b9250620003846040860162000325565b9150620003946060860162000325565b905092959194509250565b60805160a05160c05160e051611f13620003f5600039600081816105d701526113160152600081816103af015261124201526000818161025b0152610d3701526000818161053001526112670152611f136000f3fe6080604052600436106102085760003560e01c806370a0823111610118578063a22cb465116100a0578063e30c39781161006f578063e30c397814610619578063e985e9c514610637578063f0293fd314610657578063f2fde38b14610684578063f516a2e6146106a457600080fd5b8063a22cb46514610585578063b88d4fde146105a5578063c31c9c07146105c5578063c87b56dd146105f957600080fd5b8063854e3214116100e7578063854e3214146104e957806387b5903b146104fe5780638c16d99e1461051e5780638da5cb5b1461055257806395d89b411461057057600080fd5b806370a0823114610489578063715018a6146104a957806375794a3c146104be57806379ba5097146104d457600080fd5b806342842e0e1161019b57806355f804b31161016a57806355f804b3146103e457806356bc3d4c146104045780636352211e146104245780636c0360eb146104445780636f60a6dd1461045957600080fd5b806342842e0e1461035d57806349d429a01461037d5780634b57b0be1461039d578063522692a8146103d157600080fd5b8063095ea7b3116101d7578063095ea7b3146102d75780631f1525e2146102f9578063231efbe21461031d57806323b872dd1461033d57600080fd5b806301ffc9a714610214578063031937181461024957806306fdde0314610295578063081812fc146102b757600080fd5b3661020f57005b600080fd5b34801561022057600080fd5b5061023461022f36600461186f565b6106ba565b60405190151581526020015b60405180910390f35b34801561025557600080fd5b5061027d7f000000000000000000000000000000000000000000000000000000000000000081565b6040516001600160a01b039091168152602001610240565b3480156102a157600080fd5b506102aa6106e5565b60405161024091906118e3565b3480156102c357600080fd5b5061027d6102d23660046118f6565b610777565b3480156102e357600080fd5b506102f76102f236600461192b565b6107a0565b005b34801561030557600080fd5b5061030f600a5481565b604051908152602001610240565b34801561032957600080fd5b506102aa6103383660046118f6565b6107af565b34801561034957600080fd5b506102f7610358366004611955565b610849565b34801561036957600080fd5b506102f7610378366004611955565b6108d9565b34801561038957600080fd5b506102f76103983660046118f6565b6108f9565b3480156103a957600080fd5b5061027d7f000000000000000000000000000000000000000000000000000000000000000081565b6102f76103df3660046119ed565b61098d565b3480156103f057600080fd5b506102f76103ff366004611a54565b610b95565b34801561041057600080fd5b506102f761041f366004611a96565b610baa565b34801561043057600080fd5b5061027d61043f3660046118f6565b610c45565b34801561045057600080fd5b506102aa610c50565b34801561046557600080fd5b50600c546104759062ffffff1681565b60405162ffffff9091168152602001610240565b34801561049557600080fd5b5061030f6104a4366004611ab1565b610c5d565b3480156104b557600080fd5b506102f7610ca5565b3480156104ca57600080fd5b5061030f600b5481565b3480156104e057600080fd5b506102f7610cb9565b3480156104f557600080fd5b5061030f610cfd565b34801561050a57600080fd5b50610234610519366004611ab1565b610d13565b34801561052a57600080fd5b5061027d7f000000000000000000000000000000000000000000000000000000000000000081565b34801561055e57600080fd5b506007546001600160a01b031661027d565b34801561057c57600080fd5b506102aa610da9565b34801561059157600080fd5b506102f76105a0366004611acc565b610db8565b3480156105b157600080fd5b506102f76105c0366004611b1e565b610dc3565b3480156105d157600080fd5b5061027d7f000000000000000000000000000000000000000000000000000000000000000081565b34801561060557600080fd5b506102aa6106143660046118f6565b610ddb565b34801561062557600080fd5b506008546001600160a01b031661027d565b34801561064357600080fd5b50610234610652366004611bfa565b610efa565b34801561066357600080fd5b5061030f610672366004611ab1565b600f6020526000908152604090205481565b34801561069057600080fd5b506102f761069f366004611ab1565b610f28565b3480156106b057600080fd5b5061030f600d5481565b60006001600160e01b03198216632483248360e11b14806106df57506106df82610f99565b92915050565b6060600080546106f490611c2d565b80601f016020809104026020016040519081016040528092919081815260200182805461072090611c2d565b801561076d5780601f106107425761010080835404028352916020019161076d565b820191906000526020600020905b81548152906001019060200180831161075057829003601f168201915b5050505050905090565b600061078282610fe9565b506000828152600460205260409020546001600160a01b03166106df565b6107ab828233611022565b5050565b601060205260009081526040902080546107c890611c2d565b80601f01602080910402602001604051908101604052809291908181526020018280546107f490611c2d565b80156108415780601f1061081657610100808354040283529160200191610841565b820191906000526020600020905b81548152906001019060200180831161082457829003601f168201915b505050505081565b6001600160a01b03821661087857604051633250574960e11b8152600060048201526024015b60405180910390fd5b600061088583833361102f565b9050836001600160a01b0316816001600160a01b0316146108d3576040516364283d7b60e01b81526001600160a01b038086166004830152602482018490528216604482015260640161086f565b50505050565b6108f483838360405180602001604052806000815250610dc3565b505050565b610901611128565b600081116109515760405162461bcd60e51b815260206004820152601c60248201527f5072696365206d7573742062652067726561746572207468616e203000000000604482015260640161086f565b600a8190556040518181527f66cbca4f3c64fecf1dcb9ce094abcf7f68c3450a1d4e3a8e917dd621edb4ebe0906020015b60405180910390a150565b610995611155565b600d54336000908152600f6020526040902054106109f55760405162461bcd60e51b815260206004820152601c60248201527f4d6178206d696e7473207065722077616c6c6574207265616368656400000000604482015260640161086f565b60008211610a395760405162461bcd60e51b815260206004820152601160248201527005377617020736c697070616765203e203607c1b604482015260640161086f565b8062ffffff16600003610a545750600c5462ffffff16610aa1565b610a5d8161117f565b610aa15760405162461bcd60e51b815260206004820152601560248201527424b73b30b634b2103837b7b6103332b2903a34b2b960591b604482015260640161086f565b6000610aac33610d13565b9050600081610abd57600a54610acc565b6002600a54610acc9190611c7d565b9050803414610b125760405162461bcd60e51b8152602060048201526012602482015271125b98dbdc9c9958dd08115512081cd95b9d60721b604482015260640161086f565b600b805460009182610b2383611c9f565b909155506000818152601060205260409020909150610b43888a83611d00565b50336000908152600f60205260408120805460019290610b64908490611dc0565b90915550610b74905033826111d2565b610b8134878787336111ec565b505050610b8e6001600955565b5050505050565b610b9d611128565b600e6108f4828483611d00565b610bb2611128565b610bbb8161117f565b610bff5760405162461bcd60e51b815260206004820152601560248201527424b73b30b634b2103837b7b6103332b2903a34b2b960591b604482015260640161086f565b600c805462ffffff191662ffffff83169081179091556040519081527fa068eeeedda58a9bea7f8ad3dfec53e8583a3705555f9954607f86ab639b592190602001610982565b60006106df82610fe9565b600e80546107c890611c2d565b60006001600160a01b038216610c89576040516322718ad960e21b81526000600482015260240161086f565b506001600160a01b031660009081526003602052604090205490565b610cad611128565b610cb760006113d8565b565b60085433906001600160a01b03168114610cf15760405163118cdaa760e01b81526001600160a01b038216600482015260240161086f565b610cfa816113d8565b50565b60006002600a54610d0e9190611c7d565b905090565b6040516370a0823160e01b81526001600160a01b03828116600483015260009182917f000000000000000000000000000000000000000000000000000000000000000016906370a0823190602401602060405180830381865afa158015610d7e573d6000803e3d6000fd5b505050506040513d601f19601f82011682018060405250810190610da29190611dd3565b1192915050565b6060600180546106f490611c2d565b6107ab3383836113f1565b610dce848484610849565b6108d33385858585611490565b6000818152600260205260409020546060906001600160a01b0316610e365760405162461bcd60e51b81526020600482015260116024820152702737b732bc34b9ba32b73a103a37b5b2b760791b604482015260640161086f565b60008281526010602052604081208054610e4f90611c2d565b80601f0160208091040260200160405190810160405280929190818152602001828054610e7b90611c2d565b8015610ec85780601f10610e9d57610100808354040283529160200191610ec8565b820191906000526020600020905b815481529060010190602001808311610eab57829003601f168201915b50505050509050600e81604051602001610ee3929190611dec565b604051602081830303815290604052915050919050565b6001600160a01b03918216600090815260056020908152604080832093909416825291909152205460ff1690565b610f30611128565b600880546001600160a01b0383166001600160a01b03199091168117909155610f616007546001600160a01b031690565b6001600160a01b03167f38d16b8cac22d99fc7c124b9cd0de2d3fa1faef420bfe791d8c362d765e2270060405160405180910390a350565b60006001600160e01b031982166380ac58cd60e01b1480610fca57506001600160e01b03198216635b5e139f60e01b145b806106df57506301ffc9a760e01b6001600160e01b03198316146106df565b6000818152600260205260408120546001600160a01b0316806106df57604051637e27328960e01b81526004810184905260240161086f565b6108f483838360016115ba565b6000828152600260205260408120546001600160a01b039081169083161561105c5761105c8184866116c0565b6001600160a01b0381161561109a576110796000856000806115ba565b6001600160a01b038116600090815260036020526040902080546000190190555b6001600160a01b038516156110c9576001600160a01b0385166000908152600360205260409020805460010190555b60008481526002602052604080822080546001600160a01b0319166001600160a01b0389811691821790925591518793918516917fddf252ad1be2c89b69c2b068fc378daa952ba7f163c4a11628f55a4df523b3ef91a4949350505050565b6007546001600160a01b03163314610cb75760405163118cdaa760e01b815233600482015260240161086f565b60026009540361117857604051633ee5aeb560e01b815260040160405180910390fd5b6002600955565b60008162ffffff166064148061119b57508162ffffff166101f4145b806111ac57508162ffffff16610bb8145b806111bd57508162ffffff16612710145b156111ca57506001919050565b506000919050565b6107ab828260405180602001604052806000815250611724565b6000851161122d5760405162461bcd60e51b815260206004820152600e60248201526d04e6f2045544820746f20737761760941b604482015260640161086f565b60408051610100810182526001600160a01b037f0000000000000000000000000000000000000000000000000000000000000000811682527f000000000000000000000000000000000000000000000000000000000000000081166020830190815262ffffff80871684860190815286841660608601908152608086018b815260a087018d815260c088018c8152600060e08a018181529a5163414bf38960e01b81528a518a166004820152975189166024890152945190951660448701529151861660648601525160848501525160a4840152905160c48301529351821660e48201529192917f00000000000000000000000000000000000000000000000000000000000000009091169063414bf3899089906101040160206040518083038185885af1158015611363573d6000803e3d6000fd5b50505050506040513d601f19601f820116820180604052508101906113889190611dd3565b60408051898152602081018390529192506001600160a01b038516917f2d043ce009ff53fd444b0f4f5ff4c3f4ee293265203f77f156eeb33b595dfc4f910160405180910390a250505050505050565b600880546001600160a01b0319169055610cfa8161173c565b6001600160a01b03821661142357604051630b61174360e31b81526001600160a01b038316600482015260240161086f565b6001600160a01b03838116600081815260056020908152604080832094871680845294825291829020805460ff191686151590811790915591519182527f17307eab39ab6107e8899845ad3d59bd9653f200f220920489ca2b5937696c31910160405180910390a3505050565b6001600160a01b0383163b15610b8e57604051630a85bd0160e11b81526001600160a01b0384169063150b7a02906114d2908890889087908790600401611e83565b6020604051808303816000875af192505050801561150d575060408051601f3d908101601f1916820190925261150a91810190611ec0565b60015b611576573d80801561153b576040519150601f19603f3d011682016040523d82523d6000602084013e611540565b606091505b50805160000361156e57604051633250574960e11b81526001600160a01b038516600482015260240161086f565b805160208201fd5b6001600160e01b03198116630a85bd0160e11b146115b257604051633250574960e11b81526001600160a01b038516600482015260240161086f565b505050505050565b80806115ce57506001600160a01b03821615155b156116905760006115de84610fe9565b90506001600160a01b0383161580159061160a5750826001600160a01b0316816001600160a01b031614155b801561161d575061161b8184610efa565b155b156116465760405163a9fbf51f60e01b81526001600160a01b038416600482015260240161086f565b811561168e5783856001600160a01b0316826001600160a01b03167f8c5be1e5ebec7d5bd14f71427d1e84f3dd0314c0f7b2291e5b200ac8c7c3b92560405160405180910390a45b505b5050600090815260046020526040902080546001600160a01b0319166001600160a01b0392909216919091179055565b6116cb83838361178e565b6108f4576001600160a01b0383166116f957604051637e27328960e01b81526004810182905260240161086f565b60405163177e802f60e01b81526001600160a01b03831660048201526024810182905260440161086f565b61172e83836117f4565b6108f4336000858585611490565b600780546001600160a01b038381166001600160a01b0319831681179093556040519116919082907f8be0079c531659141344cd1fd0a4f28419497f9722a3daafe3b4186f6b6457e090600090a35050565b60006001600160a01b038316158015906117ec5750826001600160a01b0316846001600160a01b031614806117c857506117c88484610efa565b806117ec57506000828152600460205260409020546001600160a01b038481169116145b949350505050565b6001600160a01b03821661181e57604051633250574960e11b81526000600482015260240161086f565b600061182c8383600061102f565b90506001600160a01b038116156108f4576040516339e3563760e11b81526000600482015260240161086f565b6001600160e01b031981168114610cfa57600080fd5b60006020828403121561188157600080fd5b813561188c81611859565b9392505050565b60005b838110156118ae578181015183820152602001611896565b50506000910152565b600081518084526118cf816020860160208601611893565b601f01601f19169290920160200192915050565b60208152600061188c60208301846118b7565b60006020828403121561190857600080fd5b5035919050565b80356001600160a01b038116811461192657600080fd5b919050565b6000806040838503121561193e57600080fd5b6119478361190f565b946020939093013593505050565b60008060006060848603121561196a57600080fd5b6119738461190f565b92506119816020850161190f565b9150604084013590509250925092565b60008083601f8401126119a357600080fd5b50813567ffffffffffffffff8111156119bb57600080fd5b6020830191508360208285010111156119d357600080fd5b9250929050565b803562ffffff8116811461192657600080fd5b600080600080600060808688031215611a0557600080fd5b853567ffffffffffffffff811115611a1c57600080fd5b611a2888828901611991565b9096509450506020860135925060408601359150611a48606087016119da565b90509295509295909350565b60008060208385031215611a6757600080fd5b823567ffffffffffffffff811115611a7e57600080fd5b611a8a85828601611991565b90969095509350505050565b600060208284031215611aa857600080fd5b61188c826119da565b600060208284031215611ac357600080fd5b61188c8261190f565b60008060408385031215611adf57600080fd5b611ae88361190f565b915060208301358015158114611afd57600080fd5b809150509250929050565b634e487b7160e01b600052604160045260246000fd5b60008060008060808587031215611b3457600080fd5b611b3d8561190f565b9350611b4b6020860161190f565b925060408501359150606085013567ffffffffffffffff80821115611b6f57600080fd5b818701915087601f830112611b8357600080fd5b813581811115611b9557611b95611b08565b604051601f8201601f19908116603f01168101908382118183101715611bbd57611bbd611b08565b816040528281528a6020848701011115611bd657600080fd5b82602086016020830137600060208483010152809550505050505092959194509250565b60008060408385031215611c0d57600080fd5b611c168361190f565b9150611c246020840161190f565b90509250929050565b600181811c90821680611c4157607f821691505b602082108103611c6157634e487b7160e01b600052602260045260246000fd5b50919050565b634e487b7160e01b600052601160045260246000fd5b600082611c9a57634e487b7160e01b600052601260045260246000fd5b500490565b600060018201611cb157611cb1611c67565b5060010190565b601f8211156108f4576000816000526020600020601f850160051c81016020861015611ce15750805b601f850160051c820191505b818110156115b257828155600101611ced565b67ffffffffffffffff831115611d1857611d18611b08565b611d2c83611d268354611c2d565b83611cb8565b6000601f841160018114611d605760008515611d485750838201355b600019600387901b1c1916600186901b178355610b8e565b600083815260209020601f19861690835b82811015611d915786850135825560209485019460019092019101611d71565b5086821015611dae5760001960f88860031b161c19848701351681555b505060018560011b0183555050505050565b808201808211156106df576106df611c67565b600060208284031215611de557600080fd5b5051919050565b6000808454611dfa81611c2d565b60018281168015611e125760018114611e2757611e56565b60ff1984168752821515830287019450611e56565b8860005260208060002060005b85811015611e4d5781548a820152908401908201611e34565b50505082870194505b505050508351611e6a818360208801611893565b64173539b7b760d91b9101908152600501949350505050565b6001600160a01b0385811682528416602082015260408101839052608060608201819052600090611eb6908301846118b7565b9695505050505050565b600060208284031215611ed257600080fd5b815161188c8161185956fea2646970667358221220590bbb5b3f97c921d9b8cae7b13f4e239e02c265e9836bc0831255dade032a0864736f6c6343000818003368747470733a2f2f79656c6c6f772d696d70657269616c2d776173702d3331372e6d7970696e6174612e636c6f75642f697066732f626166796265696274786877367a6572346934656870636b6d66686f683771797672366767736870716164783575726d3763616a637966787473342f",
  "linkReferences": {},
  "deployedLinkReferences": {}
}