{
  "_format": "hh-sol-artifact-1",
  "contractName": "AlvaraNFT",
  "sourceName": "src/AlvaraNFT.sol",
  "abi": [
    {
      "inputs": [
        {
          "internalType": "address",
          "name": "_veALVAToken",
          "type": "address"
        }
      ],
      "stateMutability": "nonpayable",
      "type": "constructor"
    },
    {
      "inputs": [
        {
          "internalType": "address",
          "name": "sender",
          "type": "address"
        },
        {
          "internalType": "uint256",
          "name": "tokenId",
          "type": "uint256"
        },
        {
          "internalType": "address",
          "name": "owner",
          "type": "address"
        }
      ],
      "name": "ERC721IncorrectOwner",
      "type": "error"
    },
    {
      "inputs": [
        {
          "internalType": "address",
          "name": "operator",
          "type": "address"
        },
        {
          "internalType": "uint256",
          "name": "tokenId",
          "type": "uint256"
        }
      ],
      "name": "ERC721InsufficientApproval",
      "type": "error"
    },
    {
      "inputs": [
        {
          "internalType": "address",
          "name": "approver",
          "type": "address"
        }
      ],
      "name": "ERC721InvalidApprover",
      "type": "error"
    },
    {
      "inputs": [
        {
          "internalType": "address",
          "name": "operator",
          "type": "address"
        }
      ],
      "name": "ERC721InvalidOperator",
      "type": "error"
    },
    {
      "inputs": [
        {
          "internalType": "address",
          "name": "owner",
          "type": "address"
        }
      ],
      "name": "ERC721InvalidOwner",
      "type": "error"
    },
    {
      "inputs": [
        {
          "internalType": "address",
          "name": "receiver",
          "type": "address"
        }
      ],
      "name": "ERC721InvalidReceiver",
      "type": "error"
    },
    {
      "inputs": [
        {
          "internalType": "address",
          "name": "sender",
          "type": "address"
        }
      ],
      "name": "ERC721InvalidSender",
      "type": "error"
    },
    {
      "inputs": [
        {
          "internalType": "uint256",
          "name": "tokenId",
          "type": "uint256"
        }
      ],
      "name": "ERC721NonexistentToken",
      "type": "error"
    },
    {
      "inputs": [
        {
          "internalType": "address",
          "name": "owner",
          "type": "address"
        }
      ],
      "name": "OwnableInvalidOwner",
      "type": "error"
    },
    {
      "inputs": [
        {
          "internalType": "address",
          "name": "account",
          "type": "address"
        }
      ],
      "name": "OwnableUnauthorizedAccount",
      "type": "error"
    },
    {
      "inputs": [],
      "name": "ReentrancyGuardReentrantCall",
      "type": "error"
    },
    {
      "inputs": [
        {
          "internalType": "address",
          "name": "token",
          "type": "address"
        }
      ],
      "name": "SafeERC20FailedOperation",
      "type": "error"
    },
    {
      "anonymous": false,
      "inputs": [
        {
          "indexed": true,
          "internalType": "address",
          "name": "owner",
          "type": "address"
        },
        {
          "indexed": true,
          "internalType": "address",
          "name": "approved",
          "type": "address"
        },
        {
          "indexed": true,
          "internalType": "uint256",
          "name": "tokenId",
          "type": "uint256"
        }
      ],
      "name": "Approval",
      "type": "event"
    },
    {
      "anonymous": false,
      "inputs": [
        {
          "indexed": true,
          "internalType": "address",
          "name": "owner",
          "type": "address"
        },
        {
          "indexed": true,
          "internalType": "address",
          "name": "operator",
          "type": "address"
        },
        {
          "indexed": false,
          "internalType": "bool",
          "name": "approved",
          "type": "bool"
        }
      ],
      "name": "ApprovalForAll",
      "type": "event"
    },
    {
      "anonymous": false,
      "inputs": [
        {
          "indexed": false,
          "internalType": "string",
          "name": "newBaseUri",
          "type": "string"
        }
      ],
      "name": "BaseURIUpdated",
      "type": "event"
    },
    {
      "anonymous": false,
      "inputs": [
        {
          "indexed": false,
          "internalType": "uint256",
          "name": "_fromTokenId",
          "type": "uint256"
        },
        {
          "indexed": false,
          "internalType": "uint256",
          "name": "_toTokenId",
          "type": "uint256"
        }
      ],
      "name": "BatchMetadataUpdate",
      "type": "event"
    },
    {
      "anonymous": false,
      "inputs": [
        {
          "indexed": false,
          "internalType": "uint24",
          "name": "newMaxMintPerUser",
          "type": "uint24"
        }
      ],
      "name": "MaxMintPerUserUpdated",
      "type": "event"
    },
    {
      "anonymous": false,
      "inputs": [
        {
          "indexed": false,
          "internalType": "uint256",
          "name": "_tokenId",
          "type": "uint256"
        }
      ],
      "name": "MetadataUpdate",
      "type": "event"
    },
    {
      "anonymous": false,
      "inputs": [
        {
          "indexed": false,
          "internalType": "uint256",
          "name": "openTime",
          "type": "uint256"
        },
        {
          "indexed": false,
          "internalType": "uint256",
          "name": "expiryTime",
          "type": "uint256"
        }
      ],
      "name": "OpenedMinting",
      "type": "event"
    },
    {
      "anonymous": false,
      "inputs": [
        {
          "indexed": true,
          "internalType": "address",
          "name": "previousOwner",
          "type": "address"
        },
        {
          "indexed": true,
          "internalType": "address",
          "name": "newOwner",
          "type": "address"
        }
      ],
      "name": "OwnershipTransferStarted",
      "type": "event"
    },
    {
      "anonymous": false,
      "inputs": [
        {
          "indexed": true,
          "internalType": "address",
          "name": "previousOwner",
          "type": "address"
        },
        {
          "indexed": true,
          "internalType": "address",
          "name": "newOwner",
          "type": "address"
        }
      ],
      "name": "OwnershipTransferred",
      "type": "event"
    },
    {
      "anonymous": false,
      "inputs": [
        {
          "indexed": false,
          "internalType": "uint256",
          "name": "newPrice",
          "type": "uint256"
        }
      ],
      "name": "PriceUpdated",
      "type": "event"
    },
    {
      "anonymous": false,
      "inputs": [
        {
          "indexed": true,
          "internalType": "address",
          "name": "from",
          "type": "address"
        },
        {
          "indexed": true,
          "internalType": "address",
          "name": "to",
          "type": "address"
        },
        {
          "indexed": true,
          "internalType": "uint256",
          "name": "tokenId",
          "type": "uint256"
        }
      ],
      "name": "Transfer",
      "type": "event"
    },
    {
      "inputs": [],
      "name": "VEALVA_DISCOUNT_AMOUNT",
      "outputs": [
        {
          "internalType": "uint256",
          "name": "",
          "type": "uint256"
        }
      ],
      "stateMutability": "view",
      "type": "function"
    },
    {
      "inputs": [],
      "name": "acceptOwnership",
      "outputs": [],
      "stateMutability": "nonpayable",
      "type": "function"
    },
    {
      "inputs": [
        {
          "internalType": "address",
          "name": "to",
          "type": "address"
        },
        {
          "internalType": "uint256",
          "name": "tokenId",
          "type": "uint256"
        }
      ],
      "name": "approve",
      "outputs": [],
      "stateMutability": "nonpayable",
      "type": "function"
    },
    {
      "inputs": [
        {
          "internalType": "address",
          "name": "owner",
          "type": "address"
        }
      ],
      "name": "balanceOf",
      "outputs": [
        {
          "internalType": "uint256",
          "name": "",
          "type": "uint256"
        }
      ],
      "stateMutability": "view",
      "type": "function"
    },
    {
      "inputs": [],
      "name": "baseURI",
      "outputs": [
        {
          "internalType": "string",
          "name": "",
          "type": "string"
        }
      ],
      "stateMutability": "view",
      "type": "function"
    },
    {
      "inputs": [
        {
          "internalType": "uint256",
          "name": "tokenId",
          "type": "uint256"
        }
      ],
      "name": "getApproved",
      "outputs": [
        {
          "internalType": "address",
          "name": "",
          "type": "address"
        }
      ],
      "stateMutability": "view",
      "type": "function"
    },
    {
      "inputs": [],
      "name": "getDiscountPrice",
      "outputs": [
        {
          "internalType": "uint256",
          "name": "",
          "type": "uint256"
        }
      ],
      "stateMutability": "view",
      "type": "function"
    },
    {
      "inputs": [
        {
          "internalType": "address",
          "name": "user",
          "type": "address"
        }
      ],
      "name": "hasVeALVA",
      "outputs": [
        {
          "internalType": "bool",
          "name": "",
          "type": "bool"
        }
      ],
      "stateMutability": "view",
      "type": "function"
    },
    {
      "inputs": [
        {
          "internalType": "address",
          "name": "owner",
          "type": "address"
        },
        {
          "internalType": "address",
          "name": "operator",
          "type": "address"
        }
      ],
      "name": "isApprovedForAll",
      "outputs": [
        {
          "internalType": "bool",
          "name": "",
          "type": "bool"
        }
      ],
      "stateMutability": "view",
      "type": "function"
    },
    {
      "inputs": [],
      "name": "maxMintPerUser",
      "outputs": [
        {
          "internalType": "uint24",
          "name": "",
          "type": "uint24"
        }
      ],
      "stateMutability": "view",
      "type": "function"
    },
    {
      "inputs": [
        {
          "internalType": "string",
          "name": "designId",
          "type": "string"
        }
      ],
      "name": "mint",
      "outputs": [],
      "stateMutability": "payable",
      "type": "function"
    },
    {
      "inputs": [],
      "name": "mintingEnabled",
      "outputs": [
        {
          "internalType": "bool",
          "name": "",
          "type": "bool"
        }
      ],
      "stateMutability": "view",
      "type": "function"
    },
    {
      "inputs": [],
      "name": "mintingEndTime",
      "outputs": [
        {
          "internalType": "uint32",
          "name": "",
          "type": "uint32"
        }
      ],
      "stateMutability": "view",
      "type": "function"
    },
    {
      "inputs": [],
      "name": "name",
      "outputs": [
        {
          "internalType": "string",
          "name": "",
          "type": "string"
        }
      ],
      "stateMutability": "view",
      "type": "function"
    },
    {
      "inputs": [],
      "name": "nextTokenId",
      "outputs": [
        {
          "internalType": "uint256",
          "name": "",
          "type": "uint256"
        }
      ],
      "stateMutability": "view",
      "type": "function"
    },
    {
      "inputs": [],
      "name": "openMinting",
      "outputs": [],
      "stateMutability": "nonpayable",
      "type": "function"
    },
    {
      "inputs": [],
      "name": "owner",
      "outputs": [
        {
          "internalType": "address",
          "name": "",
          "type": "address"
        }
      ],
      "stateMutability": "view",
      "type": "function"
    },
    {
      "inputs": [
        {
          "internalType": "uint256",
          "name": "tokenId",
          "type": "uint256"
        }
      ],
      "name": "ownerOf",
      "outputs": [
        {
          "internalType": "address",
          "name": "",
          "type": "address"
        }
      ],
      "stateMutability": "view",
      "type": "function"
    },
    {
      "inputs": [],
      "name": "pendingOwner",
      "outputs": [
        {
          "internalType": "address",
          "name": "",
          "type": "address"
        }
      ],
      "stateMutability": "view",
      "type": "function"
    },
    {
      "inputs": [],
      "name": "renounceOwnership",
      "outputs": [],
      "stateMutability": "nonpayable",
      "type": "function"
    },
    {
      "inputs": [
        {
          "internalType": "contract IERC20",
          "name": "token",
          "type": "address"
        }
      ],
      "name": "rescueToken",
      "outputs": [],
      "stateMutability": "nonpayable",
      "type": "function"
    },
    {
      "inputs": [
        {
          "internalType": "address",
          "name": "from",
          "type": "address"
        },
        {
          "internalType": "address",
          "name": "to",
          "type": "address"
        },
        {
          "internalType": "uint256",
          "name": "tokenId",
          "type": "uint256"
        }
      ],
      "name": "safeTransferFrom",
      "outputs": [],
      "stateMutability": "nonpayable",
      "type": "function"
    },
    {
      "inputs": [
        {
          "internalType": "address",
          "name": "from",
          "type": "address"
        },
        {
          "internalType": "address",
          "name": "to",
          "type": "address"
        },
        {
          "internalType": "uint256",
          "name": "tokenId",
          "type": "uint256"
        },
        {
          "internalType": "bytes",
          "name": "data",
          "type": "bytes"
        }
      ],
      "name": "safeTransferFrom",
      "outputs": [],
      "stateMutability": "nonpayable",
      "type": "function"
    },
    {
      "inputs": [
        {
          "internalType": "address",
          "name": "operator",
          "type": "address"
        },
        {
          "internalType": "bool",
          "name": "approved",
          "type": "bool"
        }
      ],
      "name": "setApprovalForAll",
      "outputs": [],
      "stateMutability": "nonpayable",
      "type": "function"
    },
    {
      "inputs": [
        {
          "internalType": "string",
          "name": "newBaseURI",
          "type": "string"
        }
      ],
      "name": "setBaseURI",
      "outputs": [],
      "stateMutability": "nonpayable",
      "type": "function"
    },
    {
      "inputs": [
        {
          "internalType": "uint24",
          "name": "newMaxMintPerUser",
          "type": "uint24"
        }
      ],
      "name": "setMaxMintPerUser",
      "outputs": [],
      "stateMutability": "nonpayable",
      "type": "function"
    },
    {
      "inputs": [
        {
          "internalType": "uint256",
          "name": "newPrice",
          "type": "uint256"
        }
      ],
      "name": "setStandardPrice",
      "outputs": [],
      "stateMutability": "nonpayable",
      "type": "function"
    },
    {
      "inputs": [],
      "name": "standardPrice",
      "outputs": [
        {
          "internalType": "uint256",
          "name": "",
          "type": "uint256"
        }
      ],
      "stateMutability": "view",
      "type": "function"
    },
    {
      "inputs": [
        {
          "internalType": "bytes4",
          "name": "interfaceId",
          "type": "bytes4"
        }
      ],
      "name": "supportsInterface",
      "outputs": [
        {
          "internalType": "bool",
          "name": "",
          "type": "bool"
        }
      ],
      "stateMutability": "view",
      "type": "function"
    },
    {
      "inputs": [],
      "name": "symbol",
      "outputs": [
        {
          "internalType": "string",
          "name": "",
          "type": "string"
        }
      ],
      "stateMutability": "view",
      "type": "function"
    },
    {
      "inputs": [
        {
          "internalType": "uint256",
          "name": "tokenId",
          "type": "uint256"
        }
      ],
      "name": "tokenDesign",
      "outputs": [
        {
          "internalType": "string",
          "name": "designId",
          "type": "string"
        }
      ],
      "stateMutability": "view",
      "type": "function"
    },
    {
      "inputs": [
        {
          "internalType": "uint256",
          "name": "tokenId",
          "type": "uint256"
        }
      ],
      "name": "tokenURI",
      "outputs": [
        {
          "internalType": "string",
          "name": "",
          "type": "string"
        }
      ],
      "stateMutability": "view",
      "type": "function"
    },
    {
      "inputs": [
        {
          "internalType": "address",
          "name": "from",
          "type": "address"
        },
        {
          "internalType": "address",
          "name": "to",
          "type": "address"
        },
        {
          "internalType": "uint256",
          "name": "tokenId",
          "type": "uint256"
        }
      ],
      "name": "transferFrom",
      "outputs": [],
      "stateMutability": "nonpayable",
      "type": "function"
    },
    {
      "inputs": [
        {
          "internalType": "address",
          "name": "newOwner",
          "type": "address"
        }
      ],
      "name": "transferOwnership",
      "outputs": [],
      "stateMutability": "nonpayable",
      "type": "function"
    },
    {
      "inputs": [],
      "name": "veALVAToken",
      "outputs": [
        {
          "internalType": "address",
          "name": "",
          "type": "address"
        }
      ],
      "stateMutability": "view",
      "type": "function"
    },
    {
      "inputs": [
        {
          "internalType": "address",
          "name": "user",
          "type": "address"
        }
      ],
      "name": "walletMints",
      "outputs": [
        {
          "internalType": "uint256",
          "name": "mintCount",
          "type": "uint256"
        }
      ],
      "stateMutability": "view",
      "type": "function"
    },
    {
      "inputs": [],
      "name": "withdrawETH",
      "outputs": [],
      "stateMutability": "nonpayable",
      "type": "function"
    },
    {
      "stateMutability": "payable",
      "type": "receive"
    }
  ],
  "bytecode": "0x60a0604052660110d9316ec000600a556001600b55600c805462ffffff191660031790553480156200003057600080fd5b5060405162002431380380620024318339810160408190526200005391620001a4565b336040518060400160405280600a815260200169105b1d985c984813919560b21b81525060405180604001604052806004815260200163414c564160e01b8152508160009081620000a591906200027d565b506001620000b482826200027d565b5050506001600160a01b038116620000e657604051631e4fbdf760e01b81526000600482015260240160405180910390fd5b620000f18162000134565b5060016009556001600160a01b0381166080526040805160a081019091526071808252620023c06020830139600d906200012c90826200027d565b505062000349565b600880546001600160a01b03191690556200014f8162000152565b50565b600780546001600160a01b038381166001600160a01b0319831681179093556040519116919082907f8be0079c531659141344cd1fd0a4f28419497f9722a3daafe3b4186f6b6457e090600090a35050565b600060208284031215620001b757600080fd5b81516001600160a01b0381168114620001cf57600080fd5b9392505050565b634e487b7160e01b600052604160045260246000fd5b600181811c908216806200020157607f821691505b6020821081036200022257634e487b7160e01b600052602260045260246000fd5b50919050565b601f82111562000278576000816000526020600020601f850160051c81016020861015620002535750805b601f850160051c820191505b8181101562000274578281556001016200025f565b5050505b505050565b81516001600160401b03811115620002995762000299620001d6565b620002b181620002aa8454620001ec565b8462000228565b602080601f831160018114620002e95760008415620002d05750858301515b600019600386901b1c1916600185901b17855562000274565b600085815260208120601f198616915b828110156200031a57888601518255948401946001909101908401620002f9565b5085821015620003395787850151600019600388901b60f8161c191681555b5050505050600190811b01905550565b6080516120546200036c600039600081816102710152610c9c01526120546000f3fe60806040526004361061021e5760003560e01c806375794a3c11610123578063b88d4fde116100ab578063e086e5ec1161006f578063e086e5ec14610640578063e30c397814610655578063e985e9c514610673578063f0293fd314610693578063f2fde38b146106c057600080fd5b8063b88d4fde146105a0578063c87b56dd146105c0578063d304c4bc146105e0578063d85d3d2714610610578063d9fad7fc1461062357600080fd5b80638cd3da6e116100f25780638cd3da6e146104f25780638da5cb5b1461052c57806395d89b411461054a5780639fd6db121461055f578063a22cb4651461058057600080fd5b806375794a3c1461049257806379ba5097146104a8578063854e3214146104bd57806387b5903b146104d257600080fd5b806342842e0e116101a65780636352211e116101755780636352211e146104135780636ba9fd38146104335780636c0360eb1461044857806370a082311461045d578063715018a61461047d57600080fd5b806342842e0e146103935780634460d3cf146103b357806349d429a0146103d357806355f804b3146103f357600080fd5b8063095ea7b3116101ed578063095ea7b3146102ed5780631b20314f1461030f5780631f1525e21461032f578063231efbe21461035357806323b872dd1461037357600080fd5b806301ffc9a71461022a578063031937181461025f57806306fdde03146102ab578063081812fc146102cd57600080fd5b3661022557005b600080fd5b34801561023657600080fd5b5061024a610245366004611917565b6106e0565b60405190151581526020015b60405180910390f35b34801561026b57600080fd5b506102937f000000000000000000000000000000000000000000000000000000000000000081565b6040516001600160a01b039091168152602001610256565b3480156102b757600080fd5b506102c061070b565b604051610256919061198b565b3480156102d957600080fd5b506102936102e836600461199e565b61079d565b3480156102f957600080fd5b5061030d6103083660046119cc565b6107c6565b005b34801561031b57600080fd5b5061030d61032a3660046119f8565b6107d5565b34801561033b57600080fd5b50610345600a5481565b604051908152602001610256565b34801561035f57600080fd5b506102c061036e36600461199e565b61082a565b34801561037f57600080fd5b5061030d61038e366004611a1d565b6108c4565b34801561039f57600080fd5b5061030d6103ae366004611a1d565b610954565b3480156103bf57600080fd5b5061030d6103ce366004611a5e565b610974565b3480156103df57600080fd5b5061030d6103ee36600461199e565b6109fa565b3480156103ff57600080fd5b5061030d61040e366004611b07565b610a87565b34801561041f57600080fd5b5061029361042e36600461199e565b610acb565b34801561043f57600080fd5b5061030d610ad6565b34801561045457600080fd5b506102c0610bac565b34801561046957600080fd5b50610345610478366004611a5e565b610bb9565b34801561048957600080fd5b5061030d610c01565b34801561049e57600080fd5b50610345600b5481565b3480156104b457600080fd5b5061030d610c15565b3480156104c957600080fd5b50610345610c59565b3480156104de57600080fd5b5061024a6104ed366004611a5e565b610c6f565b3480156104fe57600080fd5b50600c5461051790640100000000900463ffffffff1681565b60405163ffffffff9091168152602001610256565b34801561053857600080fd5b506007546001600160a01b0316610293565b34801561055657600080fd5b506102c0610d0e565b34801561056b57600080fd5b50600c5461024a906301000000900460ff1681565b34801561058c57600080fd5b5061030d61059b366004611b50565b610d1d565b3480156105ac57600080fd5b5061030d6105bb366004611b8e565b610d28565b3480156105cc57600080fd5b506102c06105db36600461199e565b610d40565b3480156105ec57600080fd5b50600c546105fc9062ffffff1681565b60405162ffffff9091168152602001610256565b61030d61061e366004611c0e565b610e5f565b34801561062f57600080fd5b50610345680821ab0d441498000081565b34801561064c57600080fd5b5061030d611044565b34801561066157600080fd5b506008546001600160a01b0316610293565b34801561067f57600080fd5b5061024a61068e366004611c80565b61111d565b34801561069f57600080fd5b506103456106ae366004611a5e565b600e6020526000908152604090205481565b3480156106cc57600080fd5b5061030d6106db366004611a5e565b61114b565b60006001600160e01b03198216632483248360e11b14806107055750610705826111bc565b92915050565b60606000805461071a90611cae565b80601f016020809104026020016040519081016040528092919081815260200182805461074690611cae565b80156107935780601f1061076857610100808354040283529160200191610793565b820191906000526020600020905b81548152906001019060200180831161077657829003601f168201915b5050505050905090565b60006107a88261120c565b506000828152600460205260409020546001600160a01b0316610705565b6107d1828233611245565b5050565b6107dd611252565b600c805462ffffff191662ffffff83169081179091556040519081527f061d47c8ce93a51407fa196299ea8c9012565cb8b06e1f95681f729c2e354377906020015b60405180910390a150565b600f602052600090815260409020805461084390611cae565b80601f016020809104026020016040519081016040528092919081815260200182805461086f90611cae565b80156108bc5780601f10610891576101008083540402835291602001916108bc565b820191906000526020600020905b81548152906001019060200180831161089f57829003601f168201915b505050505081565b6001600160a01b0382166108f357604051633250574960e11b8152600060048201526024015b60405180910390fd5b600061090083833361127f565b9050836001600160a01b0316816001600160a01b03161461094e576040516364283d7b60e01b81526001600160a01b03808616600483015260248201849052821660448201526064016108ea565b50505050565b61096f83838360405180602001604052806000815250610d28565b505050565b61097c611252565b6040516370a0823160e01b81523060048201526000906001600160a01b038316906370a0823190602401602060405180830381865afa1580156109c3573d6000803e3d6000fd5b505050506040513d601f19601f820116820180604052508101906109e79190611ce8565b905080156107d1576107d1823383611378565b610a02611252565b60008111610a525760405162461bcd60e51b815260206004820152601c60248201527f5072696365206d7573742062652067726561746572207468616e20300000000060448201526064016108ea565b600a8190556040518181527f66cbca4f3c64fecf1dcb9ce094abcf7f68c3450a1d4e3a8e917dd621edb4ebe09060200161081f565b610a8f611252565b600d610a9b8282611d49565b507f6741b2fc379fad678116fe3d4d4b9a1a184ab53ba36b86ad0fa66340b1ab41ad8160405161081f919061198b565b60006107058261120c565b610ade611252565b600c546301000000900460ff1615610b315760405162461bcd60e51b8152602060048201526016602482015275135a5b9d1a5b99c8185b1c9958591e481bdc195b995960521b60448201526064016108ea565b6000610b404262093a80611e1f565b600c805463ffffffff83166401000000000267ffffffffff000000199091161763010000001790556040519091507fc3f099fb1193888b0c1b81f296691595867a9f0d890683b5d88fc6458ffd753b9061081f904290849091825263ffffffff16602082015260400190565b600d805461084390611cae565b60006001600160a01b038216610be5576040516322718ad960e21b8152600060048201526024016108ea565b506001600160a01b031660009081526003602052604090205490565b610c09611252565b610c1360006113ca565b565b60085433906001600160a01b03168114610c4d5760405163118cdaa760e01b81526001600160a01b03821660048201526024016108ea565b610c56816113ca565b50565b60006002600a54610c6a9190611e32565b905090565b6040516370a0823160e01b81526001600160a01b038281166004830152600091680821ab0d4414980000917f000000000000000000000000000000000000000000000000000000000000000016906370a0823190602401602060405180830381865afa158015610ce3573d6000803e3d6000fd5b505050506040513d601f19601f82011682018060405250810190610d079190611ce8565b1192915050565b60606001805461071a90611cae565b6107d13383836113e3565b610d338484846108c4565b61094e3385858585611482565b6000818152600260205260409020546060906001600160a01b0316610d9b5760405162461bcd60e51b81526020600482015260116024820152702737b732bc34b9ba32b73a103a37b5b2b760791b60448201526064016108ea565b6000828152600f602052604081208054610db490611cae565b80601f0160208091040260200160405190810160405280929190818152602001828054610de090611cae565b8015610e2d5780601f10610e0257610100808354040283529160200191610e2d565b820191906000526020600020905b815481529060010190602001808311610e1057829003601f168201915b50505050509050600d81604051602001610e48929190611e54565b604051602081830303815290604052915050919050565b610e676115ad565b600c546301000000900460ff16610eb35760405162461bcd60e51b815260206004820152601060248201526f135a5b9d1a5b99c8191a5cd8589b195960821b60448201526064016108ea565b600c54640100000000900463ffffffff164210610f095760405162461bcd60e51b8152602060048201526014602482015273135a5b9d1a5b99c81d1a5b5948195e1c1a5c995960621b60448201526064016108ea565b600c54336000908152600e602052604090205462ffffff90911611610f645760405162461bcd60e51b815260206004820152601160248201527026b0bc1036b4b73a103832b9103ab9b2b960791b60448201526064016108ea565b6000610f6f33610c6f565b9050600081610f8057600a54610f8f565b6002600a54610f8f9190611e32565b9050803414610fd55760405162461bcd60e51b8152602060048201526012602482015271125b98dbdc9c9958dd08115512081cd95b9d60721b60448201526064016108ea565b600b805460009182610fe683611eeb565b909155506000818152600f60205260409020909150611006858783611f04565b50336000908152600e60205260408120805460019290611027908490611e1f565b90915550611037905033826115d7565b5050506107d16001600955565b61104c611252565b478061108f5760405162461bcd60e51b81526020600482015260126024820152714e6f2045544820746f20776974686472617760701b60448201526064016108ea565b604051600090339083908381818185875af1925050503d80600081146110d1576040519150601f19603f3d011682016040523d82523d6000602084013e6110d6565b606091505b50509050806107d15760405162461bcd60e51b8152602060048201526013602482015272115512081d1c985b9cd9995c8819985a5b1959606a1b60448201526064016108ea565b6001600160a01b03918216600090815260056020908152604080832093909416825291909152205460ff1690565b611153611252565b600880546001600160a01b0383166001600160a01b031990911681179091556111846007546001600160a01b031690565b6001600160a01b03167f38d16b8cac22d99fc7c124b9cd0de2d3fa1faef420bfe791d8c362d765e2270060405160405180910390a350565b60006001600160e01b031982166380ac58cd60e01b14806111ed57506001600160e01b03198216635b5e139f60e01b145b8061070557506301ffc9a760e01b6001600160e01b0319831614610705565b6000818152600260205260408120546001600160a01b03168061070557604051637e27328960e01b8152600481018490526024016108ea565b61096f83838360016115f1565b6007546001600160a01b03163314610c135760405163118cdaa760e01b81523360048201526024016108ea565b6000828152600260205260408120546001600160a01b03908116908316156112ac576112ac8184866116f7565b6001600160a01b038116156112ea576112c96000856000806115f1565b6001600160a01b038116600090815260036020526040902080546000190190555b6001600160a01b03851615611319576001600160a01b0385166000908152600360205260409020805460010190555b60008481526002602052604080822080546001600160a01b0319166001600160a01b0389811691821790925591518793918516917fddf252ad1be2c89b69c2b068fc378daa952ba7f163c4a11628f55a4df523b3ef91a4949350505050565b604080516001600160a01b038416602482015260448082018490528251808303909101815260649091019091526020810180516001600160e01b031663a9059cbb60e01b17905261096f90849061175b565b600880546001600160a01b0319169055610c56816117cc565b6001600160a01b03821661141557604051630b61174360e31b81526001600160a01b03831660048201526024016108ea565b6001600160a01b03838116600081815260056020908152604080832094871680845294825291829020805460ff191686151590811790915591519182527f17307eab39ab6107e8899845ad3d59bd9653f200f220920489ca2b5937696c31910160405180910390a3505050565b6001600160a01b0383163b156115a657604051630a85bd0160e11b81526001600160a01b0384169063150b7a02906114c4908890889087908790600401611fc4565b6020604051808303816000875af19250505080156114ff575060408051601f3d908101601f191682019092526114fc91810190612001565b60015b611568573d80801561152d576040519150601f19603f3d011682016040523d82523d6000602084013e611532565b606091505b50805160000361156057604051633250574960e11b81526001600160a01b03851660048201526024016108ea565b805160208201fd5b6001600160e01b03198116630a85bd0160e11b146115a457604051633250574960e11b81526001600160a01b03851660048201526024016108ea565b505b5050505050565b6002600954036115d057604051633ee5aeb560e01b815260040160405180910390fd5b6002600955565b6107d182826040518060200160405280600081525061181e565b808061160557506001600160a01b03821615155b156116c75760006116158461120c565b90506001600160a01b038316158015906116415750826001600160a01b0316816001600160a01b031614155b80156116545750611652818461111d565b155b1561167d5760405163a9fbf51f60e01b81526001600160a01b03841660048201526024016108ea565b81156116c55783856001600160a01b0316826001600160a01b03167f8c5be1e5ebec7d5bd14f71427d1e84f3dd0314c0f7b2291e5b200ac8c7c3b92560405160405180910390a45b505b5050600090815260046020526040902080546001600160a01b0319166001600160a01b0392909216919091179055565b611702838383611836565b61096f576001600160a01b03831661173057604051637e27328960e01b8152600481018290526024016108ea565b60405163177e802f60e01b81526001600160a01b0383166004820152602481018290526044016108ea565b600080602060008451602086016000885af18061177e576040513d6000823e3d81fd5b50506000513d915081156117965780600114156117a3565b6001600160a01b0384163b155b1561094e57604051635274afe760e01b81526001600160a01b03851660048201526024016108ea565b600780546001600160a01b038381166001600160a01b0319831681179093556040519116919082907f8be0079c531659141344cd1fd0a4f28419497f9722a3daafe3b4186f6b6457e090600090a35050565b611828838361189c565b61096f336000858585611482565b60006001600160a01b038316158015906118945750826001600160a01b0316846001600160a01b031614806118705750611870848461111d565b8061189457506000828152600460205260409020546001600160a01b038481169116145b949350505050565b6001600160a01b0382166118c657604051633250574960e11b8152600060048201526024016108ea565b60006118d48383600061127f565b90506001600160a01b0381161561096f576040516339e3563760e11b8152600060048201526024016108ea565b6001600160e01b031981168114610c5657600080fd5b60006020828403121561192957600080fd5b813561193481611901565b9392505050565b60005b8381101561195657818101518382015260200161193e565b50506000910152565b6000815180845261197781602086016020860161193b565b601f01601f19169290920160200192915050565b602081526000611934602083018461195f565b6000602082840312156119b057600080fd5b5035919050565b6001600160a01b0381168114610c5657600080fd5b600080604083850312156119df57600080fd5b82356119ea816119b7565b946020939093013593505050565b600060208284031215611a0a57600080fd5b813562ffffff8116811461193457600080fd5b600080600060608486031215611a3257600080fd5b8335611a3d816119b7565b92506020840135611a4d816119b7565b929592945050506040919091013590565b600060208284031215611a7057600080fd5b8135611934816119b7565b634e487b7160e01b600052604160045260246000fd5b600067ffffffffffffffff80841115611aac57611aac611a7b565b604051601f8501601f19908116603f01168101908282118183101715611ad457611ad4611a7b565b81604052809350858152868686011115611aed57600080fd5b858560208301376000602087830101525050509392505050565b600060208284031215611b1957600080fd5b813567ffffffffffffffff811115611b3057600080fd5b8201601f81018413611b4157600080fd5b61189484823560208401611a91565b60008060408385031215611b6357600080fd5b8235611b6e816119b7565b915060208301358015158114611b8357600080fd5b809150509250929050565b60008060008060808587031215611ba457600080fd5b8435611baf816119b7565b93506020850135611bbf816119b7565b925060408501359150606085013567ffffffffffffffff811115611be257600080fd5b8501601f81018713611bf357600080fd5b611c0287823560208401611a91565b91505092959194509250565b60008060208385031215611c2157600080fd5b823567ffffffffffffffff80821115611c3957600080fd5b818501915085601f830112611c4d57600080fd5b813581811115611c5c57600080fd5b866020828501011115611c6e57600080fd5b60209290920196919550909350505050565b60008060408385031215611c9357600080fd5b8235611c9e816119b7565b91506020830135611b83816119b7565b600181811c90821680611cc257607f821691505b602082108103611ce257634e487b7160e01b600052602260045260246000fd5b50919050565b600060208284031215611cfa57600080fd5b5051919050565b601f82111561096f576000816000526020600020601f850160051c81016020861015611d2a5750805b601f850160051c820191505b818110156115a457828155600101611d36565b815167ffffffffffffffff811115611d6357611d63611a7b565b611d7781611d718454611cae565b84611d01565b602080601f831160018114611dac5760008415611d945750858301515b600019600386901b1c1916600185901b1785556115a4565b600085815260208120601f198616915b82811015611ddb57888601518255948401946001909101908401611dbc565b5085821015611df95787850151600019600388901b60f8161c191681555b5050505050600190811b01905550565b634e487b7160e01b600052601160045260246000fd5b8082018082111561070557610705611e09565b600082611e4f57634e487b7160e01b600052601260045260246000fd5b500490565b6000808454611e6281611cae565b60018281168015611e7a5760018114611e8f57611ebe565b60ff1984168752821515830287019450611ebe565b8860005260208060002060005b85811015611eb55781548a820152908401908201611e9c565b50505082870194505b505050508351611ed281836020880161193b565b64173539b7b760d91b9101908152600501949350505050565b600060018201611efd57611efd611e09565b5060010190565b67ffffffffffffffff831115611f1c57611f1c611a7b565b611f3083611f2a8354611cae565b83611d01565b6000601f841160018114611f645760008515611f4c5750838201355b600019600387901b1c1916600186901b1783556115a6565b600083815260209020601f19861690835b82811015611f955786850135825560209485019460019092019101611f75565b5086821015611fb25760001960f88860031b161c19848701351681555b505060018560011b0183555050505050565b6001600160a01b0385811682528416602082015260408101839052608060608201819052600090611ff79083018461195f565b9695505050505050565b60006020828403121561201357600080fd5b81516119348161190156fea2646970667358221220a62636f3f016aad9b2419416434209790b6eca59ce3005de1e221e9ff7cf055a64736f6c6343000818003368747470733a2f2f79656c6c6f772d696d70657269616c2d776173702d3331372e6d7970696e6174612e636c6f75642f697066732f6261667962656962366d367968786b32703366646878796a737868326a613661743461636c7935626c7079667370696d776b796e6576366e77786d2f",
  "linkReferences": {},
  "deployedLinkReferences": {}
}