{
  "_format": "hh-sol-artifact-1",
  "contractName": "MockUniswapV4Router",
  "sourceName": "src/MockUniswapV4Router.sol",
  "abi": [
    {
      "inputs": [
        {
          "internalType": "uint256",
          "name": "",
          "type": "uint256"
        },
        {
          "internalType": "address",
          "name": "tokenOut",
          "type": "address"
        },
        {
          "internalType": "address",
          "name": "to",
          "type": "address"
        },
        {
          "internalType": "uint256",
          "name": "",
          "type": "uint256"
        }
      ],
      "name": "swapExactETHForTokensSupportingFeeOnTransferTokens",
      "outputs": [],
      "stateMutability": "payable",
      "type": "function"
    },
    {
      "stateMutability": "payable",
      "type": "receive"
    }
  ],
  "bytecode": "0x608060405234801561001057600080fd5b506101ee806100206000396000f3fe6080604052600436106100225760003560e01c80630e5d3ae21461002e57600080fd5b3661002957005b600080fd5b61004161003c366004610120565b610043565b005b6000610051346103e8610164565b60405163a9059cbb60e01b81526001600160a01b038581166004830152602482018390529192509085169063a9059cbb906044016020604051808303816000875af11580156100a4573d6000803e3d6000fd5b505050506040513d601f19601f820116820180604052508101906100c8919061018f565b5047156100fd5760405133904780156108fc02916000818181858888f193505050501580156100fb573d6000803e3d6000fd5b505b5050505050565b80356001600160a01b038116811461011b57600080fd5b919050565b6000806000806080858703121561013657600080fd5b8435935061014660208601610104565b925061015460408601610104565b9396929550929360600135925050565b808202811582820484141761018957634e487b7160e01b600052601160045260246000fd5b92915050565b6000602082840312156101a157600080fd5b815180151581146101b157600080fd5b939250505056fea2646970667358221220cbe878fc522b50dac5711f8bda2287ba92542755fc99372c3fb18909ee65ad4664736f6c63430008140033",
  "linkReferences": {},
  "deployedLinkReferences": {}
}